{
  "contractName": "ClassicHodlFactory",
  "abi": [
    {
      "inputs": [
        {
          "internalType": "address",
          "name": "_cashAddress",
          "type": "address"
        },
        {
          "internalType": "address",
          "name": "_aTokenAddress",
          "type": "address"
        },
        {
          "internalType": "address",
          "name": "_aaveLpAddress",
          "type": "address"
        },
        {
          "internalType": "address",
          "name": "_aaveLpcoreAddress",
          "type": "address"
        }
      ],
      "payable": false,
      "stateMutability": "nonpayable",
      "type": "constructor"
    },
    {
      "anonymous": false,
      "inputs": [
        {
          "indexed": true,
          "internalType": "address",
          "name": "owner",
          "type": "address"
        },
        {
          "indexed": true,
          "internalType": "address",
          "name": "approved",
          "type": "address"
        },
        {
          "indexed": true,
          "internalType": "uint256",
          "name": "tokenId",
          "type": "uint256"
        }
      ],
      "name": "Approval",
      "type": "event"
    },
    {
      "anonymous": false,
      "inputs": [
        {
          "indexed": true,
          "internalType": "address",
          "name": "owner",
          "type": "address"
        },
        {
          "indexed": true,
          "internalType": "address",
          "name": "operator",
          "type": "address"
        },
        {
          "indexed": false,
          "internalType": "bool",
          "name": "approved",
          "type": "bool"
        }
      ],
      "name": "ApprovalForAll",
      "type": "event"
    },
    {
      "anonymous": false,
      "inputs": [
        {
          "indexed": true,
          "internalType": "address",
          "name": "from",
          "type": "address"
        },
        {
          "indexed": true,
          "internalType": "address",
          "name": "to",
          "type": "address"
        },
        {
          "indexed": true,
          "internalType": "uint256",
          "name": "tokenId",
          "type": "uint256"
        }
      ],
      "name": "Transfer",
      "type": "event"
    },
    {
      "anonymous": false,
      "inputs": [
        {
          "indexed": true,
          "internalType": "uint256",
          "name": "stfu",
          "type": "uint256"
        }
      ],
      "name": "stfu",
      "type": "event"
    },
    {
      "constant": false,
      "inputs": [
        {
          "internalType": "address",
          "name": "to",
          "type": "address"
        },
        {
          "internalType": "uint256",
          "name": "tokenId",
          "type": "uint256"
        }
      ],
      "name": "approve",
      "outputs": [],
      "payable": false,
      "stateMutability": "nonpayable",
      "type": "function"
    },
    {
      "constant": true,
      "inputs": [],
      "name": "averageTimeLastWithdrawn",
      "outputs": [
        {
          "internalType": "uint256",
          "name": "",
          "type": "uint256"
        }
      ],
      "payable": false,
      "stateMutability": "view",
      "type": "function"
    },
    {
      "constant": true,
      "inputs": [
        {
          "internalType": "address",
          "name": "owner",
          "type": "address"
        }
      ],
      "name": "balanceOf",
      "outputs": [
        {
          "internalType": "uint256",
          "name": "",
          "type": "uint256"
        }
      ],
      "payable": false,
      "stateMutability": "view",
      "type": "function"
    },
    {
      "constant": true,
      "inputs": [],
      "name": "baseURI",
      "outputs": [
        {
          "internalType": "string",
          "name": "",
          "type": "string"
        }
      ],
      "payable": false,
      "stateMutability": "view",
      "type": "function"
    },
    {
      "constant": true,
      "inputs": [
        {
          "internalType": "uint256",
          "name": "tokenId",
          "type": "uint256"
        }
      ],
      "name": "getApproved",
      "outputs": [
        {
          "internalType": "address",
          "name": "",
          "type": "address"
        }
      ],
      "payable": false,
      "stateMutability": "view",
      "type": "function"
    },
    {
      "constant": true,
      "inputs": [],
      "name": "hodlCount",
      "outputs": [
        {
          "internalType": "uint256",
          "name": "",
          "type": "uint256"
        }
      ],
      "payable": false,
      "stateMutability": "view",
      "type": "function"
    },
    {
      "constant": true,
      "inputs": [
        {
          "internalType": "uint256",
          "name": "",
          "type": "uint256"
        }
      ],
      "name": "hodlTracker",
      "outputs": [
        {
          "internalType": "uint256",
          "name": "purchaseTime",
          "type": "uint256"
        },
        {
          "internalType": "uint256",
          "name": "interestLastWithdrawnTime",
          "type": "uint256"
        }
      ],
      "payable": false,
      "stateMutability": "view",
      "type": "function"
    },
    {
      "constant": true,
      "inputs": [
        {
          "internalType": "address",
          "name": "owner",
          "type": "address"
        },
        {
          "internalType": "address",
          "name": "operator",
          "type": "address"
        }
      ],
      "name": "isApprovedForAll",
      "outputs": [
        {
          "internalType": "bool",
          "name": "",
          "type": "bool"
        }
      ],
      "payable": false,
      "stateMutability": "view",
      "type": "function"
    },
    {
      "constant": true,
      "inputs": [],
      "name": "name",
      "outputs": [
        {
          "internalType": "string",
          "name": "",
          "type": "string"
        }
      ],
      "payable": false,
      "stateMutability": "view",
      "type": "function"
    },
    {
      "constant": true,
      "inputs": [],
      "name": "oneHundredDai",
      "outputs": [
        {
          "internalType": "uint256",
          "name": "",
          "type": "uint256"
        }
      ],
      "payable": false,
      "stateMutability": "view",
      "type": "function"
    },
    {
      "constant": true,
      "inputs": [
        {
          "internalType": "uint256",
          "name": "tokenId",
          "type": "uint256"
        }
      ],
      "name": "ownerOf",
      "outputs": [
        {
          "internalType": "address",
          "name": "",
          "type": "address"
        }
      ],
      "payable": false,
      "stateMutability": "view",
      "type": "function"
    },
    {
      "constant": false,
      "inputs": [
        {
          "internalType": "address",
          "name": "from",
          "type": "address"
        },
        {
          "internalType": "address",
          "name": "to",
          "type": "address"
        },
        {
          "internalType": "uint256",
          "name": "tokenId",
          "type": "uint256"
        }
      ],
      "name": "safeTransferFrom",
      "outputs": [],
      "payable": false,
      "stateMutability": "nonpayable",
      "type": "function"
    },
    {
      "constant": false,
      "inputs": [
        {
          "internalType": "address",
          "name": "from",
          "type": "address"
        },
        {
          "internalType": "address",
          "name": "to",
          "type": "address"
        },
        {
          "internalType": "uint256",
          "name": "tokenId",
          "type": "uint256"
        },
        {
          "internalType": "bytes",
          "name": "_data",
          "type": "bytes"
        }
      ],
      "name": "safeTransferFrom",
      "outputs": [],
      "payable": false,
      "stateMutability": "nonpayable",
      "type": "function"
    },
    {
      "constant": false,
      "inputs": [
        {
          "internalType": "address",
          "name": "to",
          "type": "address"
        },
        {
          "internalType": "bool",
          "name": "approved",
          "type": "bool"
        }
      ],
      "name": "setApprovalForAll",
      "outputs": [],
      "payable": false,
      "stateMutability": "nonpayable",
      "type": "function"
    },
    {
      "constant": true,
      "inputs": [
        {
          "internalType": "bytes4",
          "name": "interfaceId",
          "type": "bytes4"
        }
      ],
      "name": "supportsInterface",
      "outputs": [
        {
          "internalType": "bool",
          "name": "",
          "type": "bool"
        }
      ],
      "payable": false,
      "stateMutability": "view",
      "type": "function"
    },
    {
      "constant": true,
      "inputs": [],
      "name": "symbol",
      "outputs": [
        {
          "internalType": "string",
          "name": "",
          "type": "string"
        }
      ],
      "payable": false,
      "stateMutability": "view",
      "type": "function"
    },
    {
      "constant": true,
      "inputs": [],
      "name": "testingVariableA",
      "outputs": [
        {
          "internalType": "uint256",
          "name": "",
          "type": "uint256"
        }
      ],
      "payable": false,
      "stateMutability": "view",
      "type": "function"
    },
    {
      "constant": true,
      "inputs": [],
      "name": "testingVariableB",
      "outputs": [
        {
          "internalType": "uint256",
          "name": "",
          "type": "uint256"
        }
      ],
      "payable": false,
      "stateMutability": "view",
      "type": "function"
    },
    {
      "constant": true,
      "inputs": [],
      "name": "testingVariableC",
      "outputs": [
        {
          "internalType": "uint256",
          "name": "",
          "type": "uint256"
        }
      ],
      "payable": false,
      "stateMutability": "view",
      "type": "function"
    },
    {
      "constant": true,
      "inputs": [],
      "name": "testingVariableD",
      "outputs": [
        {
          "internalType": "uint256",
          "name": "",
          "type": "uint256"
        }
      ],
      "payable": false,
      "stateMutability": "view",
      "type": "function"
    },
    {
      "constant": true,
      "inputs": [],
      "name": "testingVariableE",
      "outputs": [
        {
          "internalType": "uint256",
          "name": "",
          "type": "uint256"
        }
      ],
      "payable": false,
      "stateMutability": "view",
      "type": "function"
    },
    {
      "constant": true,
      "inputs": [
        {
          "internalType": "uint256",
          "name": "index",
          "type": "uint256"
        }
      ],
      "name": "tokenByIndex",
      "outputs": [
        {
          "internalType": "uint256",
          "name": "",
          "type": "uint256"
        }
      ],
      "payable": false,
      "stateMutability": "view",
      "type": "function"
    },
    {
      "constant": true,
      "inputs": [
        {
          "internalType": "address",
          "name": "owner",
          "type": "address"
        },
        {
          "internalType": "uint256",
          "name": "index",
          "type": "uint256"
        }
      ],
      "name": "tokenOfOwnerByIndex",
      "outputs": [
        {
          "internalType": "uint256",
          "name": "",
          "type": "uint256"
        }
      ],
      "payable": false,
      "stateMutability": "view",
      "type": "function"
    },
    {
      "constant": true,
      "inputs": [
        {
          "internalType": "uint256",
          "name": "tokenId",
          "type": "uint256"
        }
      ],
      "name": "tokenURI",
      "outputs": [
        {
          "internalType": "string",
          "name": "",
          "type": "string"
        }
      ],
      "payable": false,
      "stateMutability": "view",
      "type": "function"
    },
    {
      "constant": true,
      "inputs": [],
      "name": "totalSupply",
      "outputs": [
        {
          "internalType": "uint256",
          "name": "",
          "type": "uint256"
        }
      ],
      "payable": false,
      "stateMutability": "view",
      "type": "function"
    },
    {
      "constant": false,
      "inputs": [
        {
          "internalType": "address",
          "name": "from",
          "type": "address"
        },
        {
          "internalType": "address",
          "name": "to",
          "type": "address"
        },
        {
          "internalType": "uint256",
          "name": "tokenId",
          "type": "uint256"
        }
      ],
      "name": "transferFrom",
      "outputs": [],
      "payable": false,
      "stateMutability": "nonpayable",
      "type": "function"
    },
    {
      "constant": true,
      "inputs": [
        {
          "internalType": "uint256",
          "name": "_hodlId",
          "type": "uint256"
        }
      ],
      "name": "getHodlPurchaseTime",
      "outputs": [
        {
          "internalType": "uint256",
          "name": "",
          "type": "uint256"
        }
      ],
      "payable": false,
      "stateMutability": "view",
      "type": "function"
    },
    {
      "constant": true,
      "inputs": [],
      "name": "getAdaiBalance",
      "outputs": [
        {
          "internalType": "uint256",
          "name": "",
          "type": "uint256"
        }
      ],
      "payable": false,
      "stateMutability": "view",
      "type": "function"
    },
    {
      "constant": false,
      "inputs": [],
      "name": "createHodl",
      "outputs": [],
      "payable": false,
      "stateMutability": "nonpayable",
      "type": "function"
    },
    {
      "constant": true,
      "inputs": [
        {
          "internalType": "uint256",
          "name": "_hodlId",
          "type": "uint256"
        }
      ],
      "name": "getInterestAvailableToWithdraw",
      "outputs": [
        {
          "internalType": "uint256",
          "name": "",
          "type": "uint256"
        }
      ],
      "payable": false,
      "stateMutability": "view",
      "type": "function"
    },
    {
      "constant": false,
      "inputs": [
        {
          "internalType": "uint256",
          "name": "_hodlId",
          "type": "uint256"
        }
      ],
      "name": "withdrawInterest",
      "outputs": [],
      "payable": false,
      "stateMutability": "nonpayable",
      "type": "function"
    },
    {
      "constant": false,
      "inputs": [
        {
          "internalType": "uint256",
          "name": "_hodlId",
          "type": "uint256"
        }
      ],
      "name": "destroyHodl",
      "outputs": [],
      "payable": false,
      "stateMutability": "nonpayable",
      "type": "function"
    }
  ],
  "bytecode": "0x608060405260006011556000601255604560135560006014556000601555600060165560006017553480156200003457600080fd5b506040516200406038038062004060833981810160405260808110156200005a57600080fd5b81019080805190602001909291908051906020019092919080519060200190929190805190602001909291905050506040518060400160405280600b81526020017f486f646c466163746f72790000000000000000000000000000000000000000008152506040518060400160405280600481526020017f484f444c0000000000000000000000000000000000000000000000000000000081525081816200010f6301ffc9a760e01b6200029b60201b60201c565b620001276380ac58cd60e01b6200029b60201b60201c565b6200013f63780e9d6360e01b6200029b60201b60201c565b816009908051906020019062000157929190620003a4565b5080600a908051906020019062000170929190620003a4565b5062000189635b5e139f60e01b6200029b60201b60201c565b5050505083600d60006101000a81548173ffffffffffffffffffffffffffffffffffffffff021916908373ffffffffffffffffffffffffffffffffffffffff16021790555082600e60006101000a81548173ffffffffffffffffffffffffffffffffffffffff021916908373ffffffffffffffffffffffffffffffffffffffff16021790555081600f60006101000a81548173ffffffffffffffffffffffffffffffffffffffff021916908373ffffffffffffffffffffffffffffffffffffffff16021790555080601060006101000a81548173ffffffffffffffffffffffffffffffffffffffff021916908373ffffffffffffffffffffffffffffffffffffffff1602179055505050505062000453565b63ffffffff60e01b817bffffffffffffffffffffffffffffffffffffffffffffffffffffffff1916141562000338576040517f08c379a000000000000000000000000000000000000000000000000000000000815260040180806020018281038252601c8152602001807f4552433136353a20696e76616c696420696e746572666163652069640000000081525060200191505060405180910390fd5b6001600080837bffffffffffffffffffffffffffffffffffffffffffffffffffffffff19167bffffffffffffffffffffffffffffffffffffffffffffffffffffffff1916815260200190815260200160002060006101000a81548160ff02191690831515021790555050565b828054600181600116156101000203166002900490600052602060002090601f016020900481019282601f10620003e757805160ff191683800117855562000418565b8280016001018555821562000418579182015b8281111562000417578251825591602001919060010190620003fa565b5b5090506200042791906200042b565b5090565b6200045091905b808211156200044c57600081600090555060010162000432565b5090565b90565b613bfd80620004636000396000f3fe608060405234801561001057600080fd5b50600436106101f05760003560e01c80636c0360eb1161010f578063a22cb465116100a2578063c87b56dd11610071578063c87b56dd14610a71578063d3d125b214610b18578063e0c756fe14610b36578063e985e9c514610b40576101f0565b8063a22cb465146108bc578063aac13c3d1461090c578063b0aa08911461094e578063b88d4fde1461096c576101f0565b806382221907116100de57806382221907146107b457806395d89b41146107d25780639709e738146108555780639c91e09c14610873576101f0565b80636c0360eb1461069d5780636c49c786146107205780636ebcf0c71461073e57806370a082311461075c576101f0565b8063291eeebf116101875780634b704921116101565780634b7049211461058d5780634f6ccce7146105ab5780636352211e146105ed578063663922e21461065b576101f0565b8063291eeebf146104815780632f745c591461049f578063369b79e91461050157806342842e0e1461051f576101f0565b806308669aab116101c357806308669aab14610379578063095ea7b3146103a757806318160ddd146103f557806323b872dd14610413576101f0565b806301ffaabd146101f557806301ffc9a71461022357806306fdde0314610288578063081812fc1461030b575b600080fd5b6102216004803603602081101561020b57600080fd5b8101908080359060200190929190505050610bbc565b005b61026e6004803603602081101561023957600080fd5b8101908080357bffffffffffffffffffffffffffffffffffffffffffffffffffffffff19169060200190929190505050610f2d565b604051808215151515815260200191505060405180910390f35b610290610f94565b6040518080602001828103825283818151815260200191508051906020019080838360005b838110156102d05780820151818401526020810190506102b5565b50505050905090810190601f1680156102fd5780820380516001836020036101000a031916815260200191505b509250505060405180910390f35b6103376004803603602081101561032157600080fd5b8101908080359060200190929190505050611036565b604051808273ffffffffffffffffffffffffffffffffffffffff1673ffffffffffffffffffffffffffffffffffffffff16815260200191505060405180910390f35b6103a56004803603602081101561038f57600080fd5b81019080803590602001909291905050506110d1565b005b6103f3600480360360408110156103bd57600080fd5b81019080803573ffffffffffffffffffffffffffffffffffffffff169060200190929190803590602001909291905050506112f5565b005b6103fd6114dc565b6040518082815260200191505060405180910390f35b61047f6004803603606081101561042957600080fd5b81019080803573ffffffffffffffffffffffffffffffffffffffff169060200190929190803573ffffffffffffffffffffffffffffffffffffffff169060200190929190803590602001909291905050506114e9565b005b61048961155f565b6040518082815260200191505060405180910390f35b6104eb600480360360408110156104b557600080fd5b81019080803573ffffffffffffffffffffffffffffffffffffffff16906020019092919080359060200190929190505050611565565b6040518082815260200191505060405180910390f35b610509611624565b6040518082815260200191505060405180910390f35b61058b6004803603606081101561053557600080fd5b81019080803573ffffffffffffffffffffffffffffffffffffffff169060200190929190803573ffffffffffffffffffffffffffffffffffffffff1690602001909291908035906020019092919050505061162a565b005b61059561164a565b6040518082815260200191505060405180910390f35b6105d7600480360360208110156105c157600080fd5b8101908080359060200190929190505050611650565b6040518082815260200191505060405180910390f35b6106196004803603602081101561060357600080fd5b81019080803590602001909291905050506116d0565b604051808273ffffffffffffffffffffffffffffffffffffffff1673ffffffffffffffffffffffffffffffffffffffff16815260200191505060405180910390f35b6106876004803603602081101561067157600080fd5b8101908080359060200190929190505050611798565b6040518082815260200191505060405180910390f35b6106a561193b565b6040518080602001828103825283818151815260200191508051906020019080838360005b838110156106e55780820151818401526020810190506106ca565b50505050905090810190601f1680156107125780820380516001836020036101000a031916815260200191505b509250505060405180910390f35b6107286119dd565b6040518082815260200191505060405180910390f35b610746611abe565b6040518082815260200191505060405180910390f35b61079e6004803603602081101561077257600080fd5b81019080803573ffffffffffffffffffffffffffffffffffffffff169060200190929190505050611ac4565b6040518082815260200191505060405180910390f35b6107bc611b99565b6040518082815260200191505060405180910390f35b6107da611b9f565b6040518080602001828103825283818151815260200191508051906020019080838360005b8381101561081a5780820151818401526020810190506107ff565b50505050905090810190601f1680156108475780820380516001836020036101000a031916815260200191505b509250505060405180910390f35b61085d611c41565b6040518082815260200191505060405180910390f35b61089f6004803603602081101561088957600080fd5b8101908080359060200190929190505050611c4e565b604051808381526020018281526020019250505060405180910390f35b61090a600480360360408110156108d257600080fd5b81019080803573ffffffffffffffffffffffffffffffffffffffff169060200190929190803515159060200190929190505050611c72565b005b6109386004803603602081101561092257600080fd5b8101908080359060200190929190505050611e2a565b6040518082815260200191505060405180910390f35b610956611e4a565b6040518082815260200191505060405180910390f35b610a6f6004803603608081101561098257600080fd5b81019080803573ffffffffffffffffffffffffffffffffffffffff169060200190929190803573ffffffffffffffffffffffffffffffffffffffff16906020019092919080359060200190929190803590602001906401000000008111156109e957600080fd5b8201836020820111156109fb57600080fd5b80359060200191846001830284011164010000000083111715610a1d57600080fd5b91908080601f016020809104026020016040519081016040528093929190818152602001838380828437600081840152601f19601f820116905080830192505050505050509192919290505050611e50565b005b610a9d60048036036020811015610a8757600080fd5b8101908080359060200190929190505050611ec8565b6040518080602001828103825283818151815260200191508051906020019080838360005b83811015610add578082015181840152602081019050610ac2565b50505050905090810190601f168015610b0a5780820380516001836020036101000a031916815260200191505b509250505060405180910390f35b610b206120ca565b6040518082815260200191505060405180910390f35b610b3e6120d0565b005b610ba260048036036040811015610b5657600080fd5b81019080803573ffffffffffffffffffffffffffffffffffffffff169060200190929190803573ffffffffffffffffffffffffffffffffffffffff169060200190929190505050612429565b604051808215151515815260200191505060405180910390f35b3373ffffffffffffffffffffffffffffffffffffffff16610bdc826116d0565b73ffffffffffffffffffffffffffffffffffffffff1614610c65576040517f08c379a00000000000000000000000000000000000000000000000000000000081526004018080602001828103825260098152602001807f4e6f74206f776e6572000000000000000000000000000000000000000000000081525060200191505060405180910390fd5b42610c91610e1060186000858152602001908152602001600020600001546124bd90919063ffffffff16565b10610d04576040517f08c379a000000000000000000000000000000000000000000000000000000000815260040180806020018281038252601d8152602001807f484f444c206d757374206265206f776e656420666f72203120686f757200000081525060200191505060405180910390fd5b610d6a610d1d600160115461254590919063ffffffff16565b610d5c6018600085815260200190815260200160002060010154610d4e60115460125461258f90919063ffffffff16565b61254590919063ffffffff16565b61261590919063ffffffff16565b601281905550610d86600160115461254590919063ffffffff16565b601181905550610d958161265f565b610d9e816110d1565b600e60009054906101000a900473ffffffffffffffffffffffffffffffffffffffff1673ffffffffffffffffffffffffffffffffffffffff1663db006a7568056bc75e2d631000006040518263ffffffff1660e01b815260040180828152602001915050600060405180830381600087803b158015610e1c57600080fd5b505af1158015610e30573d6000803e3d6000fd5b50505050600d60009054906101000a900473ffffffffffffffffffffffffffffffffffffffff1673ffffffffffffffffffffffffffffffffffffffff1663a9059cbb610e7b836116d0565b68056bc75e2d631000006040518363ffffffff1660e01b8152600401808373ffffffffffffffffffffffffffffffffffffffff1673ffffffffffffffffffffffffffffffffffffffff16815260200182815260200192505050602060405180830381600087803b158015610eee57600080fd5b505af1158015610f02573d6000803e3d6000fd5b505050506040513d6020811015610f1857600080fd5b81019080805190602001909291905050505050565b6000806000837bffffffffffffffffffffffffffffffffffffffffffffffffffffffff19167bffffffffffffffffffffffffffffffffffffffffffffffffffffffff1916815260200190815260200160002060009054906101000a900460ff169050919050565b606060098054600181600116156101000203166002900480601f01602080910402602001604051908101604052809291908181526020018280546001816001161561010002031660029004801561102c5780601f106110015761010080835404028352916020019161102c565b820191906000526020600020905b81548152906001019060200180831161100f57829003601f168201915b5050505050905090565b600061104182612674565b611096576040517f08c379a000000000000000000000000000000000000000000000000000000000815260040180806020018281038252602c815260200180613aa2602c913960400191505060405180910390fd5b6002600083815260200190815260200160002060009054906101000a900473ffffffffffffffffffffffffffffffffffffffff169050919050565b60006110dc82611798565b90508060138190555060006110fe60115460125461258f90919063ffffffff16565b9050600061113d601860008681526020019081526020016000206001015461112f42856124bd90919063ffffffff16565b61254590919063ffffffff16565b90506111546011548261261590919063ffffffff16565b601281905550426018600086815260200190815260200160002060010181905550600e60009054906101000a900473ffffffffffffffffffffffffffffffffffffffff1673ffffffffffffffffffffffffffffffffffffffff1663db006a75846040518263ffffffff1660e01b815260040180828152602001915050600060405180830381600087803b1580156111ea57600080fd5b505af11580156111fe573d6000803e3d6000fd5b50505050600d60009054906101000a900473ffffffffffffffffffffffffffffffffffffffff1673ffffffffffffffffffffffffffffffffffffffff1663a9059cbb611249866116d0565b856040518363ffffffff1660e01b8152600401808373ffffffffffffffffffffffffffffffffffffffff1673ffffffffffffffffffffffffffffffffffffffff16815260200182815260200192505050602060405180830381600087803b1580156112b357600080fd5b505af11580156112c7573d6000803e3d6000fd5b505050506040513d60208110156112dd57600080fd5b81019080805190602001909291905050505050505050565b6000611300826116d0565b90508073ffffffffffffffffffffffffffffffffffffffff168373ffffffffffffffffffffffffffffffffffffffff161415611387576040517f08c379a0000000000000000000000000000000000000000000000000000000008152600401808060200182810382526021815260200180613b266021913960400191505060405180910390fd5b8073ffffffffffffffffffffffffffffffffffffffff166113a66126e6565b73ffffffffffffffffffffffffffffffffffffffff1614806113d557506113d4816113cf6126e6565b612429565b5b61142a576040517f08c379a00000000000000000000000000000000000000000000000000000000081526004018080602001828103825260388152602001806139f66038913960400191505060405180910390fd5b826002600084815260200190815260200160002060006101000a81548173ffffffffffffffffffffffffffffffffffffffff021916908373ffffffffffffffffffffffffffffffffffffffff160217905550818373ffffffffffffffffffffffffffffffffffffffff168273ffffffffffffffffffffffffffffffffffffffff167f8c5be1e5ebec7d5bd14f71427d1e84f3dd0314c0f7b2291e5b200ac8c7c3b92560405160405180910390a4505050565b6000600780549050905090565b6114fa6114f46126e6565b826126ee565b61154f576040517f08c379a0000000000000000000000000000000000000000000000000000000008152600401808060200182810382526031815260200180613b476031913960400191505060405180910390fd5b61155a8383836127e2565b505050565b60175481565b600061157083611ac4565b82106115c7576040517f08c379a000000000000000000000000000000000000000000000000000000000815260040180806020018281038252602b815260200180613949602b913960400191505060405180910390fd5b600560008473ffffffffffffffffffffffffffffffffffffffff1673ffffffffffffffffffffffffffffffffffffffff168152602001908152602001600020828154811061161157fe5b9060005260206000200154905092915050565b60145481565b61164583838360405180602001604052806000815250611e50565b505050565b60155481565b600061165a6114dc565b82106116b1576040517f08c379a000000000000000000000000000000000000000000000000000000000815260040180806020018281038252602c815260200180613b78602c913960400191505060405180910390fd5b600782815481106116be57fe5b90600052602060002001549050919050565b6000806001600084815260200190815260200160002060009054906101000a900473ffffffffffffffffffffffffffffffffffffffff169050600073ffffffffffffffffffffffffffffffffffffffff168173ffffffffffffffffffffffffffffffffffffffff16141561178f576040517f08c379a0000000000000000000000000000000000000000000000000000000008152600401808060200182810382526029815260200180613a586029913960400191505060405180910390fd5b80915050919050565b600080600e60009054906101000a900473ffffffffffffffffffffffffffffffffffffffff1673ffffffffffffffffffffffffffffffffffffffff166370a08231306040518263ffffffff1660e01b8152600401808273ffffffffffffffffffffffffffffffffffffffff1673ffffffffffffffffffffffffffffffffffffffff16815260200191505060206040518083038186803b15801561183a57600080fd5b505afa15801561184e573d6000803e3d6000fd5b505050506040513d602081101561186457600080fd5b81019080805190602001909291905050509050600061189768056bc75e2d6310000060115461258f90919063ffffffff16565b905060006118ae828461254590919063ffffffff16565b905060006118ed6118de60186000898152602001908152602001600020600101544261254590919063ffffffff16565b8361258f90919063ffffffff16565b9050600061191a60115461190c6012544261254590919063ffffffff16565b61258f90919063ffffffff16565b905061192f818361261590919063ffffffff16565b95505050505050919050565b6060600b8054600181600116156101000203166002900480601f0160208091040260200160405190810160405280929190818152602001828054600181600116156101000203166002900480156119d35780601f106119a8576101008083540402835291602001916119d3565b820191906000526020600020905b8154815290600101906020018083116119b657829003601f168201915b5050505050905090565b6000600e60009054906101000a900473ffffffffffffffffffffffffffffffffffffffff1673ffffffffffffffffffffffffffffffffffffffff166370a08231306040518263ffffffff1660e01b8152600401808273ffffffffffffffffffffffffffffffffffffffff1673ffffffffffffffffffffffffffffffffffffffff16815260200191505060206040518083038186803b158015611a7e57600080fd5b505afa158015611a92573d6000803e3d6000fd5b505050506040513d6020811015611aa857600080fd5b8101908080519060200190929190505050905090565b60115481565b60008073ffffffffffffffffffffffffffffffffffffffff168273ffffffffffffffffffffffffffffffffffffffff161415611b4b576040517f08c379a000000000000000000000000000000000000000000000000000000000815260040180806020018281038252602a815260200180613a2e602a913960400191505060405180910390fd5b611b92600360008473ffffffffffffffffffffffffffffffffffffffff1673ffffffffffffffffffffffffffffffffffffffff168152602001908152602001600020612806565b9050919050565b60125481565b6060600a8054600181600116156101000203166002900480601f016020809104026020016040519081016040528092919081815260200182805460018160011615610100020316600290048015611c375780601f10611c0c57610100808354040283529160200191611c37565b820191906000526020600020905b815481529060010190602001808311611c1a57829003601f168201915b5050505050905090565b68056bc75e2d6310000081565b60186020528060005260406000206000915090508060000154908060010154905082565b611c7a6126e6565b73ffffffffffffffffffffffffffffffffffffffff168273ffffffffffffffffffffffffffffffffffffffff161415611d1b576040517f08c379a00000000000000000000000000000000000000000000000000000000081526004018080602001828103825260198152602001807f4552433732313a20617070726f766520746f2063616c6c65720000000000000081525060200191505060405180910390fd5b8060046000611d286126e6565b73ffffffffffffffffffffffffffffffffffffffff1673ffffffffffffffffffffffffffffffffffffffff16815260200190815260200160002060008473ffffffffffffffffffffffffffffffffffffffff1673ffffffffffffffffffffffffffffffffffffffff16815260200190815260200160002060006101000a81548160ff0219169083151502179055508173ffffffffffffffffffffffffffffffffffffffff16611dd56126e6565b73ffffffffffffffffffffffffffffffffffffffff167f17307eab39ab6107e8899845ad3d59bd9653f200f220920489ca2b5937696c3183604051808215151515815260200191505060405180910390a35050565b600060186000838152602001908152602001600020600001549050919050565b60135481565b611e61611e5b6126e6565b836126ee565b611eb6576040517f08c379a0000000000000000000000000000000000000000000000000000000008152600401808060200182810382526031815260200180613b476031913960400191505060405180910390fd5b611ec284848484612814565b50505050565b6060611ed382612674565b611f28576040517f08c379a000000000000000000000000000000000000000000000000000000000815260040180806020018281038252602f815260200180613af7602f913960400191505060405180910390fd5b6060600c60008481526020019081526020016000208054600181600116156101000203166002900480601f016020809104026020016040519081016040528092919081815260200182805460018160011615610100020316600290048015611fd15780601f10611fa657610100808354040283529160200191611fd1565b820191906000526020600020905b815481529060010190602001808311611fb457829003601f168201915b50505050509050600081511415611ffa57604051806020016040528060008152509150506120c5565b600b81604051602001808380546001816001161561010002031660029004801561205b5780601f1061203957610100808354040283529182019161205b565b820191906000526020600020905b815481529060010190602001808311612047575b505082805190602001908083835b6020831061208c5780518252602082019150602081019050602083039250612069565b6001836020036101000a038019825116818451168082178552505050505050905001925050506040516020818303038152906040529150505b919050565b60165481565b4260186000601154815260200190815260200160002060000181905550426018600060115481526020019081526020016000206001018190555061215a61212360016011546124bd90919063ffffffff16565b61214c4261213e60115460125461258f90919063ffffffff16565b6124bd90919063ffffffff16565b61261590919063ffffffff16565b601281905550600d60009054906101000a900473ffffffffffffffffffffffffffffffffffffffff1673ffffffffffffffffffffffffffffffffffffffff1663a0712d6868056bc75e2d631000006040518263ffffffff1660e01b815260040180828152602001915050600060405180830381600087803b1580156121de57600080fd5b505af11580156121f2573d6000803e3d6000fd5b50505050600d60009054906101000a900473ffffffffffffffffffffffffffffffffffffffff1673ffffffffffffffffffffffffffffffffffffffff1663095ea7b3601060009054906101000a900473ffffffffffffffffffffffffffffffffffffffff1668056bc75e2d631000006040518363ffffffff1660e01b8152600401808373ffffffffffffffffffffffffffffffffffffffff1673ffffffffffffffffffffffffffffffffffffffff16815260200182815260200192505050602060405180830381600087803b1580156122ca57600080fd5b505af11580156122de573d6000803e3d6000fd5b505050506040513d60208110156122f457600080fd5b810190808051906020019092919050505050600f60009054906101000a900473ffffffffffffffffffffffffffffffffffffffff1673ffffffffffffffffffffffffffffffffffffffff1663d2d0e066600d60009054906101000a900473ffffffffffffffffffffffffffffffffffffffff1668056bc75e2d6310000060006040518463ffffffff1660e01b8152600401808473ffffffffffffffffffffffffffffffffffffffff1673ffffffffffffffffffffffffffffffffffffffff1681526020018381526020018261ffff1681526020019350505050600060405180830381600087803b1580156123e757600080fd5b505af11580156123fb573d6000803e3d6000fd5b5050505061240b33601154612886565b61242160016011546124bd90919063ffffffff16565b601181905550565b6000600460008473ffffffffffffffffffffffffffffffffffffffff1673ffffffffffffffffffffffffffffffffffffffff16815260200190815260200160002060008373ffffffffffffffffffffffffffffffffffffffff1673ffffffffffffffffffffffffffffffffffffffff16815260200190815260200160002060009054906101000a900460ff16905092915050565b60008082840190508381101561253b576040517f08c379a000000000000000000000000000000000000000000000000000000000815260040180806020018281038252601b8152602001807f536166654d6174683a206164646974696f6e206f766572666c6f77000000000081525060200191505060405180910390fd5b8091505092915050565b600061258783836040518060400160405280601e81526020017f536166654d6174683a207375627472616374696f6e206f766572666c6f7700008152506128a7565b905092915050565b6000808314156125a2576000905061260f565b60008284029050828482816125b357fe5b041461260a576040517f08c379a0000000000000000000000000000000000000000000000000000000008152600401808060200182810382526021815260200180613a816021913960400191505060405180910390fd5b809150505b92915050565b600061265783836040518060400160405280601a81526020017f536166654d6174683a206469766973696f6e206279207a65726f000000000000815250612967565b905092915050565b61267161266b826116d0565b82612a2d565b50565b6000806001600084815260200190815260200160002060009054906101000a900473ffffffffffffffffffffffffffffffffffffffff169050600073ffffffffffffffffffffffffffffffffffffffff168173ffffffffffffffffffffffffffffffffffffffff161415915050919050565b600033905090565b60006126f982612674565b61274e576040517f08c379a000000000000000000000000000000000000000000000000000000000815260040180806020018281038252602c8152602001806139ca602c913960400191505060405180910390fd5b6000612759836116d0565b90508073ffffffffffffffffffffffffffffffffffffffff168473ffffffffffffffffffffffffffffffffffffffff1614806127c857508373ffffffffffffffffffffffffffffffffffffffff166127b084611036565b73ffffffffffffffffffffffffffffffffffffffff16145b806127d957506127d88185612429565b5b91505092915050565b6127ed838383612a8a565b6127f78382612ce5565b6128018282612e83565b505050565b600081600001549050919050565b61281f8484846127e2565b61282b84848484612f4a565b612880576040517f08c379a00000000000000000000000000000000000000000000000000000000081526004018080602001828103825260328152602001806139746032913960400191505060405180910390fd5b50505050565b6128908282613286565b61289a8282612e83565b6128a38161349e565b5050565b6000838311158290612954576040517f08c379a00000000000000000000000000000000000000000000000000000000081526004018080602001828103825283818151815260200191508051906020019080838360005b838110156129195780820151818401526020810190506128fe565b50505050905090810190601f1680156129465780820380516001836020036101000a031916815260200191505b509250505060405180910390fd5b5060008385039050809150509392505050565b60008083118290612a13576040517f08c379a00000000000000000000000000000000000000000000000000000000081526004018080602001828103825283818151815260200191508051906020019080838360005b838110156129d85780820151818401526020810190506129bd565b50505050905090810190601f168015612a055780820380516001836020036101000a031916815260200191505b509250505060405180910390fd5b506000838581612a1f57fe5b049050809150509392505050565b612a3782826134ea565b6000600c600083815260200190815260200160002080546001816001161561010002031660029004905014612a8657600c60008281526020019081526020016000206000612a8591906138af565b5b5050565b8273ffffffffffffffffffffffffffffffffffffffff16612aaa826116d0565b73ffffffffffffffffffffffffffffffffffffffff1614612b16576040517f08c379a0000000000000000000000000000000000000000000000000000000008152600401808060200182810382526029815260200180613ace6029913960400191505060405180910390fd5b600073ffffffffffffffffffffffffffffffffffffffff168273ffffffffffffffffffffffffffffffffffffffff161415612b9c576040517f08c379a00000000000000000000000000000000000000000000000000000000081526004018080602001828103825260248152602001806139a66024913960400191505060405180910390fd5b612ba581613524565b612bec600360008573ffffffffffffffffffffffffffffffffffffffff1673ffffffffffffffffffffffffffffffffffffffff1681526020019081526020016000206135e2565b612c33600360008473ffffffffffffffffffffffffffffffffffffffff1673ffffffffffffffffffffffffffffffffffffffff168152602001908152602001600020613605565b816001600083815260200190815260200160002060006101000a81548173ffffffffffffffffffffffffffffffffffffffff021916908373ffffffffffffffffffffffffffffffffffffffff160217905550808273ffffffffffffffffffffffffffffffffffffffff168473ffffffffffffffffffffffffffffffffffffffff167fddf252ad1be2c89b69c2b068fc378daa952ba7f163c4a11628f55a4df523b3ef60405160405180910390a4505050565b6000612d3d6001600560008673ffffffffffffffffffffffffffffffffffffffff1673ffffffffffffffffffffffffffffffffffffffff1681526020019081526020016000208054905061254590919063ffffffff16565b9050600060066000848152602001908152602001600020549050818114612e2a576000600560008673ffffffffffffffffffffffffffffffffffffffff1673ffffffffffffffffffffffffffffffffffffffff1681526020019081526020016000208381548110612daa57fe5b9060005260206000200154905080600560008773ffffffffffffffffffffffffffffffffffffffff1673ffffffffffffffffffffffffffffffffffffffff1681526020019081526020016000208381548110612e0257fe5b9060005260206000200181905550816006600083815260200190815260200160002081905550505b600560008573ffffffffffffffffffffffffffffffffffffffff1673ffffffffffffffffffffffffffffffffffffffff168152602001908152602001600020805480919060019003612e7c91906138f7565b5050505050565b600560008373ffffffffffffffffffffffffffffffffffffffff1673ffffffffffffffffffffffffffffffffffffffff168152602001908152602001600020805490506006600083815260200190815260200160002081905550600560008373ffffffffffffffffffffffffffffffffffffffff1673ffffffffffffffffffffffffffffffffffffffff1681526020019081526020016000208190806001815401808255809150509060018203906000526020600020016000909192909190915055505050565b6000612f6b8473ffffffffffffffffffffffffffffffffffffffff1661361b565b612f78576001905061327e565b600060608573ffffffffffffffffffffffffffffffffffffffff168673ffffffffffffffffffffffffffffffffffffffff1663150b7a02905060e01b612fbc6126e6565b898888604051602401808573ffffffffffffffffffffffffffffffffffffffff1673ffffffffffffffffffffffffffffffffffffffff1681526020018473ffffffffffffffffffffffffffffffffffffffff1673ffffffffffffffffffffffffffffffffffffffff16815260200183815260200180602001828103825283818151815260200191508051906020019080838360005b8381101561306c578082015181840152602081019050613051565b50505050905090810190601f1680156130995780820380516001836020036101000a031916815260200191505b5095505050505050604051602081830303815290604052907bffffffffffffffffffffffffffffffffffffffffffffffffffffffff19166020820180517bffffffffffffffffffffffffffffffffffffffffffffffffffffffff83818316178352505050506040518082805190602001908083835b60208310613131578051825260208201915060208101905060208303925061310e565b6001836020036101000a0380198251168184511680821785525050505050509050019150506000604051808303816000865af19150503d8060008114613193576040519150601f19603f3d011682016040523d82523d6000602084013e613198565b606091505b509150915081613206576000815111156131b55780518082602001fd5b6040517f08c379a00000000000000000000000000000000000000000000000000000000081526004018080602001828103825260328152602001806139746032913960400191505060405180910390fd5b600081806020019051602081101561321d57600080fd5b8101908080519060200190929190505050905063150b7a0260e01b7bffffffffffffffffffffffffffffffffffffffffffffffffffffffff1916817bffffffffffffffffffffffffffffffffffffffffffffffffffffffff19161493505050505b949350505050565b600073ffffffffffffffffffffffffffffffffffffffff168273ffffffffffffffffffffffffffffffffffffffff161415613329576040517f08c379a00000000000000000000000000000000000000000000000000000000081526004018080602001828103825260208152602001807f4552433732313a206d696e7420746f20746865207a65726f206164647265737381525060200191505060405180910390fd5b61333281612674565b156133a5576040517f08c379a000000000000000000000000000000000000000000000000000000000815260040180806020018281038252601c8152602001807f4552433732313a20746f6b656e20616c7265616479206d696e7465640000000081525060200191505060405180910390fd5b816001600083815260200190815260200160002060006101000a81548173ffffffffffffffffffffffffffffffffffffffff021916908373ffffffffffffffffffffffffffffffffffffffff16021790555061343e600360008473ffffffffffffffffffffffffffffffffffffffff1673ffffffffffffffffffffffffffffffffffffffff168152602001908152602001600020613605565b808273ffffffffffffffffffffffffffffffffffffffff16600073ffffffffffffffffffffffffffffffffffffffff167fddf252ad1be2c89b69c2b068fc378daa952ba7f163c4a11628f55a4df523b3ef60405160405180910390a45050565b6007805490506008600083815260200190815260200160002081905550600781908060018154018082558091505090600182039060005260206000200160009091929091909150555050565b6134f48282613666565b6134fe8282612ce5565b60006006600083815260200190815260200160002081905550613520816137f5565b5050565b600073ffffffffffffffffffffffffffffffffffffffff166002600083815260200190815260200160002060009054906101000a900473ffffffffffffffffffffffffffffffffffffffff1673ffffffffffffffffffffffffffffffffffffffff16146135df5760006002600083815260200190815260200160002060006101000a81548173ffffffffffffffffffffffffffffffffffffffff021916908373ffffffffffffffffffffffffffffffffffffffff1602179055505b50565b6135fa6001826000015461254590919063ffffffff16565b816000018190555050565b6001816000016000828254019250508190555050565b60008060007fc5d2460186f7233c927e7db2dcc703c0e500b653ca82273b7bfad8045d85a47060001b9050833f915080821415801561365d57506000801b8214155b92505050919050565b8173ffffffffffffffffffffffffffffffffffffffff16613686826116d0565b73ffffffffffffffffffffffffffffffffffffffff16146136f2576040517f08c379a0000000000000000000000000000000000000000000000000000000008152600401808060200182810382526025815260200180613ba46025913960400191505060405180910390fd5b6136fb81613524565b613742600360008473ffffffffffffffffffffffffffffffffffffffff1673ffffffffffffffffffffffffffffffffffffffff1681526020019081526020016000206135e2565b60006001600083815260200190815260200160002060006101000a81548173ffffffffffffffffffffffffffffffffffffffff021916908373ffffffffffffffffffffffffffffffffffffffff16021790555080600073ffffffffffffffffffffffffffffffffffffffff168373ffffffffffffffffffffffffffffffffffffffff167fddf252ad1be2c89b69c2b068fc378daa952ba7f163c4a11628f55a4df523b3ef60405160405180910390a45050565b6000613810600160078054905061254590919063ffffffff16565b905060006008600084815260200190815260200160002054905060006007838154811061383957fe5b90600052602060002001549050806007838154811061385457fe5b9060005260206000200181905550816008600083815260200190815260200160002081905550600780548091906001900361388f91906138f7565b506000600860008681526020019081526020016000208190555050505050565b50805460018160011615610100020316600290046000825580601f106138d557506138f4565b601f0160209004906000526020600020908101906138f39190613923565b5b50565b81548183558181111561391e5781836000526020600020918201910161391d9190613923565b5b505050565b61394591905b80821115613941576000816000905550600101613929565b5090565b9056fe455243373231456e756d657261626c653a206f776e657220696e646578206f7574206f6620626f756e64734552433732313a207472616e7366657220746f206e6f6e20455243373231526563656976657220696d706c656d656e7465724552433732313a207472616e7366657220746f20746865207a65726f20616464726573734552433732313a206f70657261746f7220717565727920666f72206e6f6e6578697374656e7420746f6b656e4552433732313a20617070726f76652063616c6c6572206973206e6f74206f776e6572206e6f7220617070726f76656420666f7220616c6c4552433732313a2062616c616e636520717565727920666f7220746865207a65726f20616464726573734552433732313a206f776e657220717565727920666f72206e6f6e6578697374656e7420746f6b656e536166654d6174683a206d756c7469706c69636174696f6e206f766572666c6f774552433732313a20617070726f76656420717565727920666f72206e6f6e6578697374656e7420746f6b656e4552433732313a207472616e73666572206f6620746f6b656e2074686174206973206e6f74206f776e4552433732314d657461646174613a2055524920717565727920666f72206e6f6e6578697374656e7420746f6b656e4552433732313a20617070726f76616c20746f2063757272656e74206f776e65724552433732313a207472616e736665722063616c6c6572206973206e6f74206f776e6572206e6f7220617070726f766564455243373231456e756d657261626c653a20676c6f62616c20696e646578206f7574206f6620626f756e64734552433732313a206275726e206f6620746f6b656e2074686174206973206e6f74206f776ea265627a7a7231582098746accfb3931cab813da1ba60a772dcfc2bbc45b39e93ba697c17872dae38464736f6c634300050c0032",
  "source": "pragma solidity >=0.4.21 <0.7.0;\n\nimport \"@openzeppelin/contracts/token/ERC721/ERC721Full.sol\";\nimport \"@openzeppelin/contracts/math/SafeMath.sol\";\n\n/// @title Dai contract interface\n/// @notice Various cash functions\ninterface Cash \n{\n    function approve(address _spender, uint _amount) external returns (bool);\n    function balanceOf(address _ownesr) external view returns (uint);\n    function mint(uint256) external;\n    function transfer(address _to, uint _amount) external returns (bool);\n}\n\ninterface IaToken \n{\n    function balanceOf(address _user) external view returns(uint);\n    function redeem(uint256 _amount) external;\n}\n\ninterface IAaveLendingPool \n{\n    function deposit( address _reserve, uint256 _amount, uint16 _referralCode) external;\n}\n\ninterface IAaveLendingPoolCore {}\n\ncontract ClassicHodlFactory is ERC721Full {\n\n    using SafeMath for uint;\n\n    Cash underlying;\n    IaToken aToken;\n    IAaveLendingPool aaveLendingPool;\n    IAaveLendingPoolCore aaveLendingPoolCore;\n\n    constructor(address _cashAddress, address _aTokenAddress, address _aaveLpAddress, address _aaveLpcoreAddress ) ERC721Full(\"HodlFactory\", \"HODL\") public { \n        underlying = Cash(_cashAddress);\n        aToken = IaToken(_aTokenAddress); \n        aaveLendingPool = IAaveLendingPool(_aaveLpAddress); \n        aaveLendingPoolCore = IAaveLendingPoolCore(_aaveLpcoreAddress); \n    }\n\n    uint public hodlCount = 0;\n    uint public averageTimeLastWithdrawn = 0;\n    uint constant public oneHundredDai = 10**20;\n    uint public testingVariableA = 69;\n    uint public testingVariableB = 0;\n    uint public testingVariableC = 0;\n    uint public testingVariableD = 0;\n    uint public testingVariableE = 0;\n\n     struct hodl {\n        uint purchaseTime;\n        uint interestLastWithdrawnTime;\n    }\n\n    mapping (uint => hodl) public hodlTracker; \n\n    event stfu(uint indexed stfu);\n\n    function getHodlPurchaseTime(uint _hodlId) external view returns (uint) {\n        return hodlTracker[_hodlId].purchaseTime;\n    }\n\n    function getAdaiBalance() public view returns (uint) {\n        return(aToken.balanceOf(address(this)));\n    }\n\n    function createHodl() public {\n        // UPDATE VARIABLES\n        hodlTracker[hodlCount].purchaseTime = now;\n        hodlTracker[hodlCount].interestLastWithdrawnTime = now;\n        averageTimeLastWithdrawn = ((averageTimeLastWithdrawn.mul(hodlCount)).add(now)).div(hodlCount.add(1));\n         // SWAP DAI FOR aDAI\n        underlying.mint(oneHundredDai);\n        underlying.approve(address(aaveLendingPoolCore), oneHundredDai);\n\n        aaveLendingPool.deposit(address(underlying), oneHundredDai, 0);\n         \n        // // GENERATE NFT\n        _mint(msg.sender, hodlCount);\n        hodlCount = hodlCount.add(1);\n    } \n\n    function getInterestAvailableToWithdraw(uint _hodlId) public view returns (uint) {\n        uint _totalAdaiBalance = aToken.balanceOf(address(this)); \n        uint _totalDaiBalance = hodlCount.mul(oneHundredDai);\n        uint _totalInterestAvailable = _totalAdaiBalance.sub(_totalDaiBalance);\n        uint _numerator = _totalInterestAvailable.mul(now.sub(hodlTracker[_hodlId].interestLastWithdrawnTime));\n        uint _denominator = (now.sub(averageTimeLastWithdrawn)).mul(hodlCount);\n        return (_numerator.div(_denominator));\n    }\n\n    function withdrawInterest(uint _hodlId) public {\n        uint _interestToWithdraw = getInterestAvailableToWithdraw(_hodlId);\n        testingVariableA = _interestToWithdraw;\n        // update variables\n        uint _sumOfLastWithdrawTimes = averageTimeLastWithdrawn.mul(hodlCount);\n        uint _sumOfLastWithdrawTimesUpdated = _sumOfLastWithdrawTimes.add(now).sub(hodlTracker[_hodlId].interestLastWithdrawnTime);\n        averageTimeLastWithdrawn = _sumOfLastWithdrawTimesUpdated.div(hodlCount);\n        hodlTracker[_hodlId].interestLastWithdrawnTime = now;\n        // external calls\n        aToken.redeem(_interestToWithdraw);\n        underlying.transfer(ownerOf(_hodlId), _interestToWithdraw);\n    }\n\n    function destroyHodl(uint _hodlId) public {\n        require (ownerOf(_hodlId) == msg.sender, \"Not owner\");\n        require (hodlTracker[_hodlId].purchaseTime.add(3600) < now, \"HODL must be owned for 1 hour\");\n        // update variables\n        averageTimeLastWithdrawn = ((averageTimeLastWithdrawn.mul(hodlCount)).sub(hodlTracker[_hodlId].interestLastWithdrawnTime)).div(hodlCount.sub(1));\n        hodlCount = hodlCount.sub(1);\n        // external calls\n        _burn(_hodlId);\n        withdrawInterest(_hodlId);\n        aToken.redeem(oneHundredDai);\n        underlying.transfer(ownerOf(_hodlId), oneHundredDai);\n    }\n\n\n\n}\n",
  "sourcePath": "/Users/mcplums/Repos/HodlFactory/contracts/ClassicHodlFactory.sol",
  "compiler": {
    "name": "solc",
    "version": "0.5.12+commit.7709ece9.Emscripten.clang"
  },
  "schemaVersion": "3.0.19",
  "updatedAt": "2020-04-14T14:59:52.526Z",
  "devdoc": {
    "methods": {
      "approve(address,uint256)": {
        "details": "Approves another address to transfer the given token ID The zero address indicates there is no approved address. There can only be one approved address per token at a given time. Can only be called by the token owner or an approved operator.",
        "params": {
          "to": "address to be approved for the given token ID",
          "tokenId": "uint256 ID of the token to be approved"
        }
      },
      "balanceOf(address)": {
        "details": "Gets the balance of the specified address.",
        "params": {
          "owner": "address to query the balance of"
        },
        "return": "uint256 representing the amount owned by the passed address"
      },
      "baseURI()": {
        "details": "Returns the base URI set via {_setBaseURI}. This will be automatically added as a preffix in {tokenURI} to each token's URI, when they are non-empty.    * _Available since v2.5.0._"
      },
      "getApproved(uint256)": {
        "details": "Gets the approved address for a token ID, or zero if no address set Reverts if the token ID does not exist.",
        "params": {
          "tokenId": "uint256 ID of the token to query the approval of"
        },
        "return": "address currently approved for the given token ID"
      },
      "isApprovedForAll(address,address)": {
        "details": "Tells whether an operator is approved by a given owner.",
        "params": {
          "operator": "operator address which you want to query the approval of",
          "owner": "owner address which you want to query the approval of"
        },
        "return": "bool whether the given operator is approved by the given owner"
      },
      "name()": {
        "details": "Gets the token name.",
        "return": "string representing the token name"
      },
      "ownerOf(uint256)": {
        "details": "Gets the owner of the specified token ID.",
        "params": {
          "tokenId": "uint256 ID of the token to query the owner of"
        },
        "return": "address currently marked as the owner of the given token ID"
      },
      "safeTransferFrom(address,address,uint256)": {
        "details": "Safely transfers the ownership of a given token ID to another address If the target address is a contract, it must implement {IERC721Receiver-onERC721Received}, which is called upon a safe transfer, and return the magic value `bytes4(keccak256(\"onERC721Received(address,address,uint256,bytes)\"))`; otherwise, the transfer is reverted. Requires the msg.sender to be the owner, approved, or operator",
        "params": {
          "from": "current owner of the token",
          "to": "address to receive the ownership of the given token ID",
          "tokenId": "uint256 ID of the token to be transferred"
        }
      },
      "safeTransferFrom(address,address,uint256,bytes)": {
        "details": "Safely transfers the ownership of a given token ID to another address If the target address is a contract, it must implement {IERC721Receiver-onERC721Received}, which is called upon a safe transfer, and return the magic value `bytes4(keccak256(\"onERC721Received(address,address,uint256,bytes)\"))`; otherwise, the transfer is reverted. Requires the _msgSender() to be the owner, approved, or operator",
        "params": {
          "_data": "bytes data to send along with a safe transfer check",
          "from": "current owner of the token",
          "to": "address to receive the ownership of the given token ID",
          "tokenId": "uint256 ID of the token to be transferred"
        }
      },
      "setApprovalForAll(address,bool)": {
        "details": "Sets or unsets the approval of a given operator An operator is allowed to transfer all tokens of the sender on their behalf.",
        "params": {
          "approved": "representing the status of the approval to be set",
          "to": "operator address to set the approval"
        }
      },
      "supportsInterface(bytes4)": {
        "details": "See {IERC165-supportsInterface}.     * Time complexity O(1), guaranteed to always use less than 30 000 gas."
      },
      "symbol()": {
        "details": "Gets the token symbol.",
        "return": "string representing the token symbol"
      },
      "tokenByIndex(uint256)": {
        "details": "Gets the token ID at a given index of all the tokens in this contract Reverts if the index is greater or equal to the total number of tokens.",
        "params": {
          "index": "uint256 representing the index to be accessed of the tokens list"
        },
        "return": "uint256 token ID at the given index of the tokens list"
      },
      "tokenOfOwnerByIndex(address,uint256)": {
        "details": "Gets the token ID at a given index of the tokens list of the requested owner.",
        "params": {
          "index": "uint256 representing the index to be accessed of the requested tokens list",
          "owner": "address owning the tokens list to be accessed"
        },
        "return": "uint256 token ID at the given index of the tokens list owned by the requested address"
      },
      "tokenURI(uint256)": {
        "details": "Returns the URI for a given token ID. May return an empty string.     * If the token's URI is non-empty and a base URI was set (via {_setBaseURI}), it will be added to the token ID's URI as a prefix.     * Reverts if the token ID does not exist."
      },
      "totalSupply()": {
        "details": "Gets the total amount of tokens stored by the contract.",
        "return": "uint256 representing the total amount of tokens"
      },
      "transferFrom(address,address,uint256)": {
        "details": "Transfers the ownership of a given token ID to another address. Usage of this method is discouraged, use {safeTransferFrom} whenever possible. Requires the msg.sender to be the owner, approved, or operator.",
        "params": {
          "from": "current owner of the token",
          "to": "address to receive the ownership of the given token ID",
          "tokenId": "uint256 ID of the token to be transferred"
        }
      }
    }
  },
  "userdoc": {
    "methods": {}
  }
}