{
  "contractName": "PonziHodlFactory",
  "abi": [
    {
      "inputs": [
        {
          "internalType": "address",
          "name": "_cashAddress",
          "type": "address"
        },
        {
          "internalType": "address",
          "name": "_aTokenAddress",
          "type": "address"
        },
        {
          "internalType": "address",
          "name": "_aaveLpAddress",
          "type": "address"
        },
        {
          "internalType": "address",
          "name": "_aaveLpcoreAddress",
          "type": "address"
        }
      ],
      "payable": false,
      "stateMutability": "nonpayable",
      "type": "constructor"
    },
    {
      "anonymous": false,
      "inputs": [
        {
          "indexed": true,
          "internalType": "address",
          "name": "owner",
          "type": "address"
        },
        {
          "indexed": true,
          "internalType": "address",
          "name": "approved",
          "type": "address"
        },
        {
          "indexed": true,
          "internalType": "uint256",
          "name": "tokenId",
          "type": "uint256"
        }
      ],
      "name": "Approval",
      "type": "event"
    },
    {
      "anonymous": false,
      "inputs": [
        {
          "indexed": true,
          "internalType": "address",
          "name": "owner",
          "type": "address"
        },
        {
          "indexed": true,
          "internalType": "address",
          "name": "operator",
          "type": "address"
        },
        {
          "indexed": false,
          "internalType": "bool",
          "name": "approved",
          "type": "bool"
        }
      ],
      "name": "ApprovalForAll",
      "type": "event"
    },
    {
      "anonymous": false,
      "inputs": [
        {
          "indexed": true,
          "internalType": "address",
          "name": "from",
          "type": "address"
        },
        {
          "indexed": true,
          "internalType": "address",
          "name": "to",
          "type": "address"
        },
        {
          "indexed": true,
          "internalType": "uint256",
          "name": "tokenId",
          "type": "uint256"
        }
      ],
      "name": "Transfer",
      "type": "event"
    },
    {
      "constant": false,
      "inputs": [
        {
          "internalType": "address",
          "name": "to",
          "type": "address"
        },
        {
          "internalType": "uint256",
          "name": "tokenId",
          "type": "uint256"
        }
      ],
      "name": "approve",
      "outputs": [],
      "payable": false,
      "stateMutability": "nonpayable",
      "type": "function"
    },
    {
      "constant": true,
      "inputs": [],
      "name": "averagePurchaseTime",
      "outputs": [
        {
          "internalType": "uint256",
          "name": "",
          "type": "uint256"
        }
      ],
      "payable": false,
      "stateMutability": "view",
      "type": "function"
    },
    {
      "constant": true,
      "inputs": [
        {
          "internalType": "address",
          "name": "owner",
          "type": "address"
        }
      ],
      "name": "balanceOf",
      "outputs": [
        {
          "internalType": "uint256",
          "name": "",
          "type": "uint256"
        }
      ],
      "payable": false,
      "stateMutability": "view",
      "type": "function"
    },
    {
      "constant": true,
      "inputs": [],
      "name": "baseURI",
      "outputs": [
        {
          "internalType": "string",
          "name": "",
          "type": "string"
        }
      ],
      "payable": false,
      "stateMutability": "view",
      "type": "function"
    },
    {
      "constant": true,
      "inputs": [
        {
          "internalType": "uint256",
          "name": "tokenId",
          "type": "uint256"
        }
      ],
      "name": "getApproved",
      "outputs": [
        {
          "internalType": "address",
          "name": "",
          "type": "address"
        }
      ],
      "payable": false,
      "stateMutability": "view",
      "type": "function"
    },
    {
      "constant": true,
      "inputs": [],
      "name": "hodlCount",
      "outputs": [
        {
          "internalType": "uint256",
          "name": "",
          "type": "uint256"
        }
      ],
      "payable": false,
      "stateMutability": "view",
      "type": "function"
    },
    {
      "constant": true,
      "inputs": [
        {
          "internalType": "uint256",
          "name": "",
          "type": "uint256"
        }
      ],
      "name": "hodlProperties",
      "outputs": [
        {
          "internalType": "uint256",
          "name": "purchaseTime",
          "type": "uint256"
        },
        {
          "internalType": "uint256",
          "name": "tier",
          "type": "uint256"
        }
      ],
      "payable": false,
      "stateMutability": "view",
      "type": "function"
    },
    {
      "constant": true,
      "inputs": [
        {
          "internalType": "address",
          "name": "owner",
          "type": "address"
        },
        {
          "internalType": "address",
          "name": "operator",
          "type": "address"
        }
      ],
      "name": "isApprovedForAll",
      "outputs": [
        {
          "internalType": "bool",
          "name": "",
          "type": "bool"
        }
      ],
      "payable": false,
      "stateMutability": "view",
      "type": "function"
    },
    {
      "constant": true,
      "inputs": [],
      "name": "name",
      "outputs": [
        {
          "internalType": "string",
          "name": "",
          "type": "string"
        }
      ],
      "payable": false,
      "stateMutability": "view",
      "type": "function"
    },
    {
      "constant": true,
      "inputs": [],
      "name": "oneHundredDai",
      "outputs": [
        {
          "internalType": "uint256",
          "name": "",
          "type": "uint256"
        }
      ],
      "payable": false,
      "stateMutability": "view",
      "type": "function"
    },
    {
      "constant": true,
      "inputs": [
        {
          "internalType": "uint256",
          "name": "tokenId",
          "type": "uint256"
        }
      ],
      "name": "ownerOf",
      "outputs": [
        {
          "internalType": "address",
          "name": "",
          "type": "address"
        }
      ],
      "payable": false,
      "stateMutability": "view",
      "type": "function"
    },
    {
      "constant": false,
      "inputs": [
        {
          "internalType": "address",
          "name": "from",
          "type": "address"
        },
        {
          "internalType": "address",
          "name": "to",
          "type": "address"
        },
        {
          "internalType": "uint256",
          "name": "tokenId",
          "type": "uint256"
        }
      ],
      "name": "safeTransferFrom",
      "outputs": [],
      "payable": false,
      "stateMutability": "nonpayable",
      "type": "function"
    },
    {
      "constant": false,
      "inputs": [
        {
          "internalType": "address",
          "name": "from",
          "type": "address"
        },
        {
          "internalType": "address",
          "name": "to",
          "type": "address"
        },
        {
          "internalType": "uint256",
          "name": "tokenId",
          "type": "uint256"
        },
        {
          "internalType": "bytes",
          "name": "_data",
          "type": "bytes"
        }
      ],
      "name": "safeTransferFrom",
      "outputs": [],
      "payable": false,
      "stateMutability": "nonpayable",
      "type": "function"
    },
    {
      "constant": false,
      "inputs": [
        {
          "internalType": "address",
          "name": "to",
          "type": "address"
        },
        {
          "internalType": "bool",
          "name": "approved",
          "type": "bool"
        }
      ],
      "name": "setApprovalForAll",
      "outputs": [],
      "payable": false,
      "stateMutability": "nonpayable",
      "type": "function"
    },
    {
      "constant": true,
      "inputs": [
        {
          "internalType": "bytes4",
          "name": "interfaceId",
          "type": "bytes4"
        }
      ],
      "name": "supportsInterface",
      "outputs": [
        {
          "internalType": "bool",
          "name": "",
          "type": "bool"
        }
      ],
      "payable": false,
      "stateMutability": "view",
      "type": "function"
    },
    {
      "constant": true,
      "inputs": [],
      "name": "symbol",
      "outputs": [
        {
          "internalType": "string",
          "name": "",
          "type": "string"
        }
      ],
      "payable": false,
      "stateMutability": "view",
      "type": "function"
    },
    {
      "constant": true,
      "inputs": [],
      "name": "testingVariableA",
      "outputs": [
        {
          "internalType": "uint256",
          "name": "",
          "type": "uint256"
        }
      ],
      "payable": false,
      "stateMutability": "view",
      "type": "function"
    },
    {
      "constant": true,
      "inputs": [],
      "name": "testingVariableB",
      "outputs": [
        {
          "internalType": "uint256",
          "name": "",
          "type": "uint256"
        }
      ],
      "payable": false,
      "stateMutability": "view",
      "type": "function"
    },
    {
      "constant": true,
      "inputs": [],
      "name": "testingVariableC",
      "outputs": [
        {
          "internalType": "uint256",
          "name": "",
          "type": "uint256"
        }
      ],
      "payable": false,
      "stateMutability": "view",
      "type": "function"
    },
    {
      "constant": true,
      "inputs": [],
      "name": "testingVariableD",
      "outputs": [
        {
          "internalType": "uint256",
          "name": "",
          "type": "uint256"
        }
      ],
      "payable": false,
      "stateMutability": "view",
      "type": "function"
    },
    {
      "constant": true,
      "inputs": [],
      "name": "testingVariableE",
      "outputs": [
        {
          "internalType": "uint256",
          "name": "",
          "type": "uint256"
        }
      ],
      "payable": false,
      "stateMutability": "view",
      "type": "function"
    },
    {
      "constant": true,
      "inputs": [],
      "name": "tierCount",
      "outputs": [
        {
          "internalType": "uint256",
          "name": "",
          "type": "uint256"
        }
      ],
      "payable": false,
      "stateMutability": "view",
      "type": "function"
    },
    {
      "constant": true,
      "inputs": [
        {
          "internalType": "uint256",
          "name": "",
          "type": "uint256"
        }
      ],
      "name": "tierProperties",
      "outputs": [
        {
          "internalType": "uint256",
          "name": "size",
          "type": "uint256"
        },
        {
          "internalType": "uint256",
          "name": "hodlsInTier",
          "type": "uint256"
        },
        {
          "internalType": "uint256",
          "name": "averagePurchaseTime",
          "type": "uint256"
        },
        {
          "internalType": "uint256",
          "name": "interestAlreadyWithdrawn",
          "type": "uint256"
        }
      ],
      "payable": false,
      "stateMutability": "view",
      "type": "function"
    },
    {
      "constant": true,
      "inputs": [
        {
          "internalType": "uint256",
          "name": "index",
          "type": "uint256"
        }
      ],
      "name": "tokenByIndex",
      "outputs": [
        {
          "internalType": "uint256",
          "name": "",
          "type": "uint256"
        }
      ],
      "payable": false,
      "stateMutability": "view",
      "type": "function"
    },
    {
      "constant": true,
      "inputs": [
        {
          "internalType": "address",
          "name": "owner",
          "type": "address"
        },
        {
          "internalType": "uint256",
          "name": "index",
          "type": "uint256"
        }
      ],
      "name": "tokenOfOwnerByIndex",
      "outputs": [
        {
          "internalType": "uint256",
          "name": "",
          "type": "uint256"
        }
      ],
      "payable": false,
      "stateMutability": "view",
      "type": "function"
    },
    {
      "constant": true,
      "inputs": [
        {
          "internalType": "uint256",
          "name": "tokenId",
          "type": "uint256"
        }
      ],
      "name": "tokenURI",
      "outputs": [
        {
          "internalType": "string",
          "name": "",
          "type": "string"
        }
      ],
      "payable": false,
      "stateMutability": "view",
      "type": "function"
    },
    {
      "constant": true,
      "inputs": [],
      "name": "totalInterestWithdrawn",
      "outputs": [
        {
          "internalType": "uint256",
          "name": "",
          "type": "uint256"
        }
      ],
      "payable": false,
      "stateMutability": "view",
      "type": "function"
    },
    {
      "constant": true,
      "inputs": [],
      "name": "totalSupply",
      "outputs": [
        {
          "internalType": "uint256",
          "name": "",
          "type": "uint256"
        }
      ],
      "payable": false,
      "stateMutability": "view",
      "type": "function"
    },
    {
      "constant": false,
      "inputs": [
        {
          "internalType": "address",
          "name": "from",
          "type": "address"
        },
        {
          "internalType": "address",
          "name": "to",
          "type": "address"
        },
        {
          "internalType": "uint256",
          "name": "tokenId",
          "type": "uint256"
        }
      ],
      "name": "transferFrom",
      "outputs": [],
      "payable": false,
      "stateMutability": "nonpayable",
      "type": "function"
    },
    {
      "constant": true,
      "inputs": [],
      "name": "getAdaiBalance",
      "outputs": [
        {
          "internalType": "uint256",
          "name": "",
          "type": "uint256"
        }
      ],
      "payable": false,
      "stateMutability": "view",
      "type": "function"
    },
    {
      "constant": true,
      "inputs": [],
      "name": "getHodlsOwned",
      "outputs": [
        {
          "internalType": "uint256[]",
          "name": "",
          "type": "uint256[]"
        }
      ],
      "payable": false,
      "stateMutability": "view",
      "type": "function"
    },
    {
      "constant": true,
      "inputs": [
        {
          "internalType": "uint256",
          "name": "_hodlId",
          "type": "uint256"
        }
      ],
      "name": "getPlayersMyTierOrBelow",
      "outputs": [
        {
          "internalType": "uint256",
          "name": "",
          "type": "uint256"
        }
      ],
      "payable": false,
      "stateMutability": "view",
      "type": "function"
    },
    {
      "constant": false,
      "inputs": [],
      "name": "createHodl",
      "outputs": [],
      "payable": false,
      "stateMutability": "nonpayable",
      "type": "function"
    },
    {
      "constant": true,
      "inputs": [
        {
          "internalType": "uint256",
          "name": "_tierId",
          "type": "uint256"
        }
      ],
      "name": "getTierInterestAccrued",
      "outputs": [
        {
          "internalType": "uint256",
          "name": "",
          "type": "uint256"
        }
      ],
      "payable": false,
      "stateMutability": "view",
      "type": "function"
    },
    {
      "constant": true,
      "inputs": [
        {
          "internalType": "uint256",
          "name": "_hodlId",
          "type": "uint256"
        }
      ],
      "name": "getInterestAvailableToWithdrawView",
      "outputs": [
        {
          "internalType": "uint256",
          "name": "",
          "type": "uint256"
        }
      ],
      "payable": false,
      "stateMutability": "view",
      "type": "function"
    },
    {
      "constant": false,
      "inputs": [
        {
          "internalType": "uint256",
          "name": "_hodlId",
          "type": "uint256"
        }
      ],
      "name": "destroyHodl",
      "outputs": [],
      "payable": false,
      "stateMutability": "nonpayable",
      "type": "function"
    }
  ],
  "bytecode": "0x60806040526000601155600060125560006013556000601455604560155560006016556000601755600060185560006019553480156200003e57600080fd5b506040516200487d3803806200487d833981810160405260808110156200006457600080fd5b81019080805190602001909291908051906020019092919080519060200190929190805190602001909291905050506040518060400160405280600b81526020017f486f646c466163746f72790000000000000000000000000000000000000000008152506040518060400160405280600681526020017f484f444c2b2b00000000000000000000000000000000000000000000000000008152508181620001196301ffc9a760e01b620002c160201b60201c565b620001316380ac58cd60e01b620002c160201b60201c565b6200014963780e9d6360e01b620002c160201b60201c565b816009908051906020019062000161929190620003ca565b5080600a90805190602001906200017a929190620003ca565b5062000193635b5e139f60e01b620002c160201b60201c565b5050505083600d60006101000a81548173ffffffffffffffffffffffffffffffffffffffff021916908373ffffffffffffffffffffffffffffffffffffffff16021790555082600e60006101000a81548173ffffffffffffffffffffffffffffffffffffffff021916908373ffffffffffffffffffffffffffffffffffffffff16021790555081600f60006101000a81548173ffffffffffffffffffffffffffffffffffffffff021916908373ffffffffffffffffffffffffffffffffffffffff16021790555080601060006101000a81548173ffffffffffffffffffffffffffffffffffffffff021916908373ffffffffffffffffffffffffffffffffffffffff160217905550600a601b6000808152602001908152602001600020600001819055505050505062000479565b63ffffffff60e01b817bffffffffffffffffffffffffffffffffffffffffffffffffffffffff191614156200035e576040517f08c379a000000000000000000000000000000000000000000000000000000000815260040180806020018281038252601c8152602001807f4552433136353a20696e76616c696420696e746572666163652069640000000081525060200191505060405180910390fd5b6001600080837bffffffffffffffffffffffffffffffffffffffffffffffffffffffff19167bffffffffffffffffffffffffffffffffffffffffffffffffffffffff1916815260200190815260200160002060006101000a81548160ff02191690831515021790555050565b828054600181600116156101000203166002900490600052602060002090601f016020900481019282601f106200040d57805160ff19168380011785556200043e565b828001600101855582156200043e579182015b828111156200043d57825182559160200191906001019062000420565b5b5090506200044d919062000451565b5090565b6200047691905b808211156200047257600081600090555060010162000458565b5090565b90565b6143f480620004896000396000f3fe608060405234801561001057600080fd5b506004361061021b5760003560e01c80636c0360eb11610125578063a5080bdd116100ad578063d3d125b21161007c578063d3d125b214610bd4578063e0c756fe14610bf2578063e386bdd714610bfc578063e985e9c514610c1a578063ee9d129514610c965761021b565b8063a5080bdd146109c1578063b0aa089114610a0a578063b88d4fde14610a28578063c87b56dd14610b2d5761021b565b80637a2aedc0116100f45780637a2aedc01461087057806395d89b41146108b257806396b55f7d146109355780639709e73814610953578063a22cb465146109715761021b565b80636c0360eb146107595780636c49c786146107dc5780636ebcf0c7146107fa57806370a08231146108185761021b565b806323b872dd116101a857806342842e0e1161017757806342842e0e146105be5780634b7049211461062c5780634f6ccce71461064a578063630e825a1461068c5780636352211e146106eb5761021b565b806323b872dd146104b2578063291eeebf146105205780632f745c591461053e578063369b79e9146105a05761021b565b806306fdde03116101ef57806306fdde0314610313578063081812fc14610396578063095ea7b31461040457806318160ddd146104525780631a1409e0146104705761021b565b80625d8d371461022057806301ffaabd1461026257806301ffc9a714610290578063035a06ca146102f5575b600080fd5b61024c6004803603602081101561023657600080fd5b8101908080359060200190929190505050610ced565b6040518082815260200191505060405180910390f35b61028e6004803603602081101561027857600080fd5b8101908080359060200190929190505050610f00565b005b6102db600480360360208110156102a657600080fd5b8101908080357bffffffffffffffffffffffffffffffffffffffffffffffffffffffff191690602001909291905050506112a3565b604051808215151515815260200191505060405180910390f35b6102fd61130a565b6040518082815260200191505060405180910390f35b61031b611310565b6040518080602001828103825283818151815260200191508051906020019080838360005b8381101561035b578082015181840152602081019050610340565b50505050905090810190601f1680156103885780820380516001836020036101000a031916815260200191505b509250505060405180910390f35b6103c2600480360360208110156103ac57600080fd5b81019080803590602001909291905050506113b2565b604051808273ffffffffffffffffffffffffffffffffffffffff1673ffffffffffffffffffffffffffffffffffffffff16815260200191505060405180910390f35b6104506004803603604081101561041a57600080fd5b81019080803573ffffffffffffffffffffffffffffffffffffffff1690602001909291908035906020019092919050505061144d565b005b61045a611634565b6040518082815260200191505060405180910390f35b61049c6004803603602081101561048657600080fd5b8101908080359060200190929190505050611641565b6040518082815260200191505060405180910390f35b61051e600480360360608110156104c857600080fd5b81019080803573ffffffffffffffffffffffffffffffffffffffff169060200190929190803573ffffffffffffffffffffffffffffffffffffffff169060200190929190803590602001909291905050506116af565b005b610528611725565b6040518082815260200191505060405180910390f35b61058a6004803603604081101561055457600080fd5b81019080803573ffffffffffffffffffffffffffffffffffffffff1690602001909291908035906020019092919050505061172b565b6040518082815260200191505060405180910390f35b6105a86117ea565b6040518082815260200191505060405180910390f35b61062a600480360360608110156105d457600080fd5b81019080803573ffffffffffffffffffffffffffffffffffffffff169060200190929190803573ffffffffffffffffffffffffffffffffffffffff169060200190929190803590602001909291905050506117f0565b005b610634611810565b6040518082815260200191505060405180910390f35b6106766004803603602081101561066057600080fd5b8101908080359060200190929190505050611816565b6040518082815260200191505060405180910390f35b610694611896565b6040518080602001828103825283818151815260200191508051906020019060200280838360005b838110156106d75780820151818401526020810190506106bc565b505050509050019250505060405180910390f35b6107176004803603602081101561070157600080fd5b810190808035906020019092919050505061192b565b604051808273ffffffffffffffffffffffffffffffffffffffff1673ffffffffffffffffffffffffffffffffffffffff16815260200191505060405180910390f35b6107616119f3565b6040518080602001828103825283818151815260200191508051906020019080838360005b838110156107a1578082015181840152602081019050610786565b50505050905090810190601f1680156107ce5780820380516001836020036101000a031916815260200191505b509250505060405180910390f35b6107e4611a95565b6040518082815260200191505060405180910390f35b610802611b76565b6040518082815260200191505060405180910390f35b61085a6004803603602081101561082e57600080fd5b81019080803573ffffffffffffffffffffffffffffffffffffffff169060200190929190505050611b7c565b6040518082815260200191505060405180910390f35b61089c6004803603602081101561088657600080fd5b8101908080359060200190929190505050611c51565b6040518082815260200191505060405180910390f35b6108ba611ddf565b6040518080602001828103825283818151815260200191508051906020019080838360005b838110156108fa5780820151818401526020810190506108df565b50505050905090810190601f1680156109275780820380516001836020036101000a031916815260200191505b509250505060405180910390f35b61093d611e81565b6040518082815260200191505060405180910390f35b61095b611e87565b6040518082815260200191505060405180910390f35b6109bf6004803603604081101561098757600080fd5b81019080803573ffffffffffffffffffffffffffffffffffffffff169060200190929190803515159060200190929190505050611e94565b005b6109ed600480360360208110156109d757600080fd5b810190808035906020019092919050505061204c565b604051808381526020018281526020019250505060405180910390f35b610a12612070565b6040518082815260200191505060405180910390f35b610b2b60048036036080811015610a3e57600080fd5b81019080803573ffffffffffffffffffffffffffffffffffffffff169060200190929190803573ffffffffffffffffffffffffffffffffffffffff1690602001909291908035906020019092919080359060200190640100000000811115610aa557600080fd5b820183602082011115610ab757600080fd5b80359060200191846001830284011164010000000083111715610ad957600080fd5b91908080601f016020809104026020016040519081016040528093929190818152602001838380828437600081840152601f19601f820116905080830192505050505050509192919290505050612076565b005b610b5960048036036020811015610b4357600080fd5b81019080803590602001909291905050506120ee565b6040518080602001828103825283818151815260200191508051906020019080838360005b83811015610b99578082015181840152602081019050610b7e565b50505050905090810190601f168015610bc65780820380516001836020036101000a031916815260200191505b509250505060405180910390f35b610bdc6122f0565b6040518082815260200191505060405180910390f35b610bfa6122f6565b005b610c046126c7565b6040518082815260200191505060405180910390f35b610c7c60048036036040811015610c3057600080fd5b81019080803573ffffffffffffffffffffffffffffffffffffffff169060200190929190803573ffffffffffffffffffffffffffffffffffffffff1690602001909291905050506126cd565b604051808215151515815260200191505060405180910390f35b610cc260048036036020811015610cac57600080fd5b8101908080359060200190929190505050612761565b6040518085815260200184815260200183815260200182815260200194505050505060405180910390f35b600080600e60009054906101000a900473ffffffffffffffffffffffffffffffffffffffff1673ffffffffffffffffffffffffffffffffffffffff166370a08231306040518263ffffffff1660e01b8152600401808273ffffffffffffffffffffffffffffffffffffffff1673ffffffffffffffffffffffffffffffffffffffff16815260200191505060206040518083038186803b158015610d8f57600080fd5b505afa158015610da3573d6000803e3d6000fd5b505050506040513d6020811015610db957600080fd5b810190808051906020019092919050505090506000610dec68056bc75e2d6310000060115461279190919063ffffffff16565b90506000610e17601454610e09848661281790919063ffffffff16565b61286190919063ffffffff16565b90506000601b60008781526020019081526020016000206001015490506000601b60008881526020019081526020016000206003015490506000610e9e83610e90610e81601b60008d8152602001908152602001600020600201544261281790919063ffffffff16565b8761279190919063ffffffff16565b61279190919063ffffffff16565b90506000610ecb601154610ebd6013544261281790919063ffffffff16565b61279190919063ffffffff16565b9050610ef283610ee483856128e990919063ffffffff16565b61281790919063ffffffff16565b975050505050505050919050565b3373ffffffffffffffffffffffffffffffffffffffff16610f208261192b565b73ffffffffffffffffffffffffffffffffffffffff1614610fa9576040517f08c379a00000000000000000000000000000000000000000000000000000000081526004018080602001828103825260098152602001807f4e6f74206f776e6572000000000000000000000000000000000000000000000081525060200191505060405180910390fd5b610fb281612933565b6000601a60008381526020019081526020016000206001015490506000601b60008381526020019081526020016000206001015490506000601b6000848152602001908152602001600020600201549050600182111561108b5761106c61102360018461281790919063ffffffff16565b61105e601a600088815260200190815260200160002060000154611050868661279190919063ffffffff16565b61281790919063ffffffff16565b6128e990919063ffffffff16565b601b6000858152602001908152602001600020600201819055506110a8565b6000601b6000858152602001908152602001600020600201819055505b6110d26001601b60008681526020019081526020016000206001015461281790919063ffffffff16565b601b600085815260200190815260200160002060010181905550600e60009054906101000a900473ffffffffffffffffffffffffffffffffffffffff1673ffffffffffffffffffffffffffffffffffffffff1663db006a7568056bc75e2d631000006040518263ffffffff1660e01b815260040180828152602001915050600060405180830381600087803b15801561116a57600080fd5b505af115801561117e573d6000803e3d6000fd5b50505050600d60009054906101000a900473ffffffffffffffffffffffffffffffffffffffff1673ffffffffffffffffffffffffffffffffffffffff1663a9059cbb6111c98661192b565b68056bc75e2d631000006040518363ffffffff1660e01b8152600401808373ffffffffffffffffffffffffffffffffffffffff1673ffffffffffffffffffffffffffffffffffffffff16815260200182815260200192505050602060405180830381600087803b15801561123c57600080fd5b505af1158015611250573d6000803e3d6000fd5b505050506040513d602081101561126657600080fd5b81019080805190602001909291905050505061128e600160115461281790919063ffffffff16565b60118190555061129d84612ad9565b50505050565b6000806000837bffffffffffffffffffffffffffffffffffffffffffffffffffffffff19167bffffffffffffffffffffffffffffffffffffffffffffffffffffffff1916815260200190815260200160002060009054906101000a900460ff169050919050565b60135481565b606060098054600181600116156101000203166002900480601f0160208091040260200160405190810160405280929190818152602001828054600181600116156101000203166002900480156113a85780601f1061137d576101008083540402835291602001916113a8565b820191906000526020600020905b81548152906001019060200180831161138b57829003601f168201915b5050505050905090565b60006113bd82612aee565b611412576040517f08c379a000000000000000000000000000000000000000000000000000000000815260040180806020018281038252602c815260200180614299602c913960400191505060405180910390fd5b6002600083815260200190815260200160002060009054906101000a900473ffffffffffffffffffffffffffffffffffffffff169050919050565b60006114588261192b565b90508073ffffffffffffffffffffffffffffffffffffffff168373ffffffffffffffffffffffffffffffffffffffff1614156114df576040517f08c379a000000000000000000000000000000000000000000000000000000000815260040180806020018281038252602181526020018061431d6021913960400191505060405180910390fd5b8073ffffffffffffffffffffffffffffffffffffffff166114fe612b60565b73ffffffffffffffffffffffffffffffffffffffff16148061152d575061152c81611527612b60565b6126cd565b5b611582576040517f08c379a00000000000000000000000000000000000000000000000000000000081526004018080602001828103825260388152602001806141ed6038913960400191505060405180910390fd5b826002600084815260200190815260200160002060006101000a81548173ffffffffffffffffffffffffffffffffffffffff021916908373ffffffffffffffffffffffffffffffffffffffff160217905550818373ffffffffffffffffffffffffffffffffffffffff168273ffffffffffffffffffffffffffffffffffffffff167f8c5be1e5ebec7d5bd14f71427d1e84f3dd0314c0f7b2291e5b200ac8c7c3b92560405160405180910390a4505050565b6000600780549050905090565b600080601a6000848152602001908152602001600020600101549050600080600090505b8281116116a457611695601b6000838152602001908152602001600020600101548361286190919063ffffffff16565b91508080600101915050611665565b508092505050919050565b6116c06116ba612b60565b82612b68565b611715576040517f08c379a000000000000000000000000000000000000000000000000000000000815260040180806020018281038252603181526020018061433e6031913960400191505060405180910390fd5b611720838383612c5c565b505050565b60195481565b600061173683611b7c565b821061178d576040517f08c379a000000000000000000000000000000000000000000000000000000000815260040180806020018281038252602b815260200180614140602b913960400191505060405180910390fd5b600560008473ffffffffffffffffffffffffffffffffffffffff1673ffffffffffffffffffffffffffffffffffffffff16815260200190815260200160002082815481106117d757fe5b9060005260206000200154905092915050565b60165481565b61180b83838360405180602001604052806000815250612076565b505050565b60175481565b6000611820611634565b8210611877576040517f08c379a000000000000000000000000000000000000000000000000000000000815260040180806020018281038252602c81526020018061436f602c913960400191505060405180910390fd5b6007828154811061188457fe5b90600052602060002001549050919050565b6060601c60003373ffffffffffffffffffffffffffffffffffffffff1673ffffffffffffffffffffffffffffffffffffffff16815260200190815260200160002080548060200260200160405190810160405280929190818152602001828054801561192157602002820191906000526020600020905b81548152602001906001019080831161190d575b5050505050905090565b6000806001600084815260200190815260200160002060009054906101000a900473ffffffffffffffffffffffffffffffffffffffff169050600073ffffffffffffffffffffffffffffffffffffffff168173ffffffffffffffffffffffffffffffffffffffff1614156119ea576040517f08c379a000000000000000000000000000000000000000000000000000000000815260040180806020018281038252602981526020018061424f6029913960400191505060405180910390fd5b80915050919050565b6060600b8054600181600116156101000203166002900480601f016020809104026020016040519081016040528092919081815260200182805460018160011615610100020316600290048015611a8b5780601f10611a6057610100808354040283529160200191611a8b565b820191906000526020600020905b815481529060010190602001808311611a6e57829003601f168201915b5050505050905090565b6000600e60009054906101000a900473ffffffffffffffffffffffffffffffffffffffff1673ffffffffffffffffffffffffffffffffffffffff166370a08231306040518263ffffffff1660e01b8152600401808273ffffffffffffffffffffffffffffffffffffffff1673ffffffffffffffffffffffffffffffffffffffff16815260200191505060206040518083038186803b158015611b3657600080fd5b505afa158015611b4a573d6000803e3d6000fd5b505050506040513d6020811015611b6057600080fd5b8101908080519060200190929190505050905090565b60115481565b60008073ffffffffffffffffffffffffffffffffffffffff168273ffffffffffffffffffffffffffffffffffffffff161415611c03576040517f08c379a000000000000000000000000000000000000000000000000000000000815260040180806020018281038252602a815260200180614225602a913960400191505060405180910390fd5b611c4a600360008473ffffffffffffffffffffffffffffffffffffffff1673ffffffffffffffffffffffffffffffffffffffff168152602001908152602001600020612c80565b9050919050565b600081600073ffffffffffffffffffffffffffffffffffffffff16611c758261192b565b73ffffffffffffffffffffffffffffffffffffffff161415611cff576040517f08c379a00000000000000000000000000000000000000000000000000000000081526004018080602001828103825260138152602001807f486f646c20646f6573206e6f742065786973740000000000000000000000000081525060200191505060405180910390fd5b600080611d0b85611641565b90506000601a600087815260200190815260200160002060010154905060008114611d4757611d4460018261286190919063ffffffff16565b90505b60008190505b6012548111611dd2576000611d6182610ced565b90506000611d7885836128e990919063ffffffff16565b9050611d8d818761286190919063ffffffff16565b955060008314611dc357611dc0601b6000858152602001908152602001600020600101548661286190919063ffffffff16565b94505b50508080600101915050611d4d565b5082945050505050919050565b6060600a8054600181600116156101000203166002900480601f016020809104026020016040519081016040528092919081815260200182805460018160011615610100020316600290048015611e775780601f10611e4c57610100808354040283529160200191611e77565b820191906000526020600020905b815481529060010190602001808311611e5a57829003601f168201915b5050505050905090565b60125481565b68056bc75e2d6310000081565b611e9c612b60565b73ffffffffffffffffffffffffffffffffffffffff168273ffffffffffffffffffffffffffffffffffffffff161415611f3d576040517f08c379a00000000000000000000000000000000000000000000000000000000081526004018080602001828103825260198152602001807f4552433732313a20617070726f766520746f2063616c6c65720000000000000081525060200191505060405180910390fd5b8060046000611f4a612b60565b73ffffffffffffffffffffffffffffffffffffffff1673ffffffffffffffffffffffffffffffffffffffff16815260200190815260200160002060008473ffffffffffffffffffffffffffffffffffffffff1673ffffffffffffffffffffffffffffffffffffffff16815260200190815260200160002060006101000a81548160ff0219169083151502179055508173ffffffffffffffffffffffffffffffffffffffff16611ff7612b60565b73ffffffffffffffffffffffffffffffffffffffff167f17307eab39ab6107e8899845ad3d59bd9653f200f220920489ca2b5937696c3183604051808215151515815260200191505060405180910390a35050565b601a6020528060005260406000206000915090508060000154908060010154905082565b60155481565b612087612081612b60565b83612b68565b6120dc576040517f08c379a000000000000000000000000000000000000000000000000000000000815260040180806020018281038252603181526020018061433e6031913960400191505060405180910390fd5b6120e884848484612c8e565b50505050565b60606120f982612aee565b61214e576040517f08c379a000000000000000000000000000000000000000000000000000000000815260040180806020018281038252602f8152602001806142ee602f913960400191505060405180910390fd5b6060600c60008481526020019081526020016000208054600181600116156101000203166002900480601f0160208091040260200160405190810160405280929190818152602001828054600181600116156101000203166002900480156121f75780601f106121cc576101008083540402835291602001916121f7565b820191906000526020600020905b8154815290600101906020018083116121da57829003601f168201915b5050505050905060008151141561222057604051806020016040528060008152509150506122eb565b600b8160405160200180838054600181600116156101000203166002900480156122815780601f1061225f576101008083540402835291820191612281565b820191906000526020600020905b81548152906001019060200180831161226d575b505082805190602001908083835b602083106122b2578051825260208201915060208101905060208303925061228f565b6001836020036101000a038019825116818451168082178552505050505050905001925050506040516020818303038152906040529150505b919050565b60185481565b612301601154612d00565b601c60003373ffffffffffffffffffffffffffffffffffffffff1673ffffffffffffffffffffffffffffffffffffffff168152602001908152602001600020601154908060018154018082558091505090600182039060005260206000200160009091929091909150555042601a6000601154815260200190815260200160002060000181905550601254601a60006011548152602001908152602001600020600101819055506123f86123c1600160115461286190919063ffffffff16565b6123ea426123dc60115460135461279190919063ffffffff16565b61286190919063ffffffff16565b6128e990919063ffffffff16565b601381905550600d60009054906101000a900473ffffffffffffffffffffffffffffffffffffffff1673ffffffffffffffffffffffffffffffffffffffff1663a0712d6868056bc75e2d631000006040518263ffffffff1660e01b815260040180828152602001915050600060405180830381600087803b15801561247c57600080fd5b505af1158015612490573d6000803e3d6000fd5b50505050600d60009054906101000a900473ffffffffffffffffffffffffffffffffffffffff1673ffffffffffffffffffffffffffffffffffffffff1663095ea7b3601060009054906101000a900473ffffffffffffffffffffffffffffffffffffffff1668056bc75e2d631000006040518363ffffffff1660e01b8152600401808373ffffffffffffffffffffffffffffffffffffffff1673ffffffffffffffffffffffffffffffffffffffff16815260200182815260200192505050602060405180830381600087803b15801561256857600080fd5b505af115801561257c573d6000803e3d6000fd5b505050506040513d602081101561259257600080fd5b810190808051906020019092919050505050600f60009054906101000a900473ffffffffffffffffffffffffffffffffffffffff1673ffffffffffffffffffffffffffffffffffffffff1663d2d0e066600d60009054906101000a900473ffffffffffffffffffffffffffffffffffffffff1668056bc75e2d6310000060006040518463ffffffff1660e01b8152600401808473ffffffffffffffffffffffffffffffffffffffff1673ffffffffffffffffffffffffffffffffffffffff1681526020018381526020018261ffff1681526020019350505050600060405180830381600087803b15801561268557600080fd5b505af1158015612699573d6000803e3d6000fd5b505050506126a933601154612e12565b6126bf600160115461286190919063ffffffff16565b601181905550565b60145481565b6000600460008473ffffffffffffffffffffffffffffffffffffffff1673ffffffffffffffffffffffffffffffffffffffff16815260200190815260200160002060008373ffffffffffffffffffffffffffffffffffffffff1673ffffffffffffffffffffffffffffffffffffffff16815260200190815260200160002060009054906101000a900460ff16905092915050565b601b6020528060005260406000206000915090508060000154908060010154908060020154908060030154905084565b6000808314156127a45760009050612811565b60008284029050828482816127b557fe5b041461280c576040517f08c379a00000000000000000000000000000000000000000000000000000000081526004018080602001828103825260218152602001806142786021913960400191505060405180910390fd5b809150505b92915050565b600061285983836040518060400160405280601e81526020017f536166654d6174683a207375627472616374696f6e206f766572666c6f770000815250612e33565b905092915050565b6000808284019050838110156128df576040517f08c379a000000000000000000000000000000000000000000000000000000000815260040180806020018281038252601b8152602001807f536166654d6174683a206164646974696f6e206f766572666c6f77000000000081525060200191505060405180910390fd5b8091505092915050565b600061292b83836040518060400160405280601a81526020017f536166654d6174683a206469766973696f6e206279207a65726f000000000000815250612ef3565b905092915050565b600061293e82612fb9565b90506129558160145461286190919063ffffffff16565b601481905550600e60009054906101000a900473ffffffffffffffffffffffffffffffffffffffff1673ffffffffffffffffffffffffffffffffffffffff1663db006a75826040518263ffffffff1660e01b815260040180828152602001915050600060405180830381600087803b1580156129d057600080fd5b505af11580156129e4573d6000803e3d6000fd5b50505050600d60009054906101000a900473ffffffffffffffffffffffffffffffffffffffff1673ffffffffffffffffffffffffffffffffffffffff1663a9059cbb612a2f8461192b565b836040518363ffffffff1660e01b8152600401808373ffffffffffffffffffffffffffffffffffffffff1673ffffffffffffffffffffffffffffffffffffffff16815260200182815260200192505050602060405180830381600087803b158015612a9957600080fd5b505af1158015612aad573d6000803e3d6000fd5b505050506040513d6020811015612ac357600080fd5b8101908080519060200190929190505050505050565b612aeb612ae58261192b565b8261319f565b50565b6000806001600084815260200190815260200160002060009054906101000a900473ffffffffffffffffffffffffffffffffffffffff169050600073ffffffffffffffffffffffffffffffffffffffff168173ffffffffffffffffffffffffffffffffffffffff161415915050919050565b600033905090565b6000612b7382612aee565b612bc8576040517f08c379a000000000000000000000000000000000000000000000000000000000815260040180806020018281038252602c8152602001806141c1602c913960400191505060405180910390fd5b6000612bd38361192b565b90508073ffffffffffffffffffffffffffffffffffffffff168473ffffffffffffffffffffffffffffffffffffffff161480612c4257508373ffffffffffffffffffffffffffffffffffffffff16612c2a846113b2565b73ffffffffffffffffffffffffffffffffffffffff16145b80612c535750612c5281856126cd565b5b91505092915050565b612c678383836131fc565b612c718382613457565b612c7b82826135f5565b505050565b600081600001549050919050565b612c99848484612c5c565b612ca5848484846136bc565b612cfa576040517f08c379a000000000000000000000000000000000000000000000000000000000815260040180806020018281038252603281526020018061416b6032913960400191505060405180910390fd5b50505050565b6000601b600060125481526020019081526020016000206001015490506000601b600060125481526020019081526020016000206000015490506000601b6000601254815260200190815260200160002060020154905081831015612dfa57612d7360018461286190919063ffffffff16565b601b6000601254815260200190815260200160002060010181905550612dd9612da660018561286190919063ffffffff16565b612dcb42612dbd878661279190919063ffffffff16565b61286190919063ffffffff16565b6128e990919063ffffffff16565b601b6000601254815260200190815260200160002060020181905550612e0c565b612e026139f8565b612e0b84612d00565b5b50505050565b612e1c8282613a7d565b612e2682826135f5565b612e2f81613c95565b5050565b6000838311158290612ee0576040517f08c379a00000000000000000000000000000000000000000000000000000000081526004018080602001828103825283818151815260200191508051906020019080838360005b83811015612ea5578082015181840152602081019050612e8a565b50505050905090810190601f168015612ed25780820380516001836020036101000a031916815260200191505b509250505060405180910390fd5b5060008385039050809150509392505050565b60008083118290612f9f576040517f08c379a00000000000000000000000000000000000000000000000000000000081526004018080602001828103825283818151815260200191508051906020019080838360005b83811015612f64578082015181840152602081019050612f49565b50505050905090810190601f168015612f915780820380516001836020036101000a031916815260200191505b509250505060405180910390fd5b506000838581612fab57fe5b049050809150509392505050565b600081600073ffffffffffffffffffffffffffffffffffffffff16612fdd8261192b565b73ffffffffffffffffffffffffffffffffffffffff161415613067576040517f08c379a00000000000000000000000000000000000000000000000000000000081526004018080602001828103825260138152602001807f486f646c20646f6573206e6f742065786973740000000000000000000000000081525060200191505060405180910390fd5b60008061307385611641565b90506000601a6000878152602001908152602001600020600101549050600081146130af576130ac60018261286190919063ffffffff16565b90505b60008190505b60125481116131925760006130c982610ced565b905060006130e085836128e990919063ffffffff16565b905081601581905550806016819055508460178190555061310a818761286190919063ffffffff16565b955061313581601b60008681526020019081526020016000206003015461286190919063ffffffff16565b601b6000858152602001908152602001600020600301819055506000831461318357613180601b6000858152602001908152602001600020600101548661286190919063ffffffff16565b94505b505080806001019150506130b5565b5082945050505050919050565b6131a98282613ce1565b6000600c6000838152602001908152602001600020805460018160011615610100020316600290049050146131f857600c600082815260200190815260200160002060006131f791906140a6565b5b5050565b8273ffffffffffffffffffffffffffffffffffffffff1661321c8261192b565b73ffffffffffffffffffffffffffffffffffffffff1614613288576040517f08c379a00000000000000000000000000000000000000000000000000000000081526004018080602001828103825260298152602001806142c56029913960400191505060405180910390fd5b600073ffffffffffffffffffffffffffffffffffffffff168273ffffffffffffffffffffffffffffffffffffffff16141561330e576040517f08c379a000000000000000000000000000000000000000000000000000000000815260040180806020018281038252602481526020018061419d6024913960400191505060405180910390fd5b61331781613d1b565b61335e600360008573ffffffffffffffffffffffffffffffffffffffff1673ffffffffffffffffffffffffffffffffffffffff168152602001908152602001600020613dd9565b6133a5600360008473ffffffffffffffffffffffffffffffffffffffff1673ffffffffffffffffffffffffffffffffffffffff168152602001908152602001600020613dfc565b816001600083815260200190815260200160002060006101000a81548173ffffffffffffffffffffffffffffffffffffffff021916908373ffffffffffffffffffffffffffffffffffffffff160217905550808273ffffffffffffffffffffffffffffffffffffffff168473ffffffffffffffffffffffffffffffffffffffff167fddf252ad1be2c89b69c2b068fc378daa952ba7f163c4a11628f55a4df523b3ef60405160405180910390a4505050565b60006134af6001600560008673ffffffffffffffffffffffffffffffffffffffff1673ffffffffffffffffffffffffffffffffffffffff1681526020019081526020016000208054905061281790919063ffffffff16565b905060006006600084815260200190815260200160002054905081811461359c576000600560008673ffffffffffffffffffffffffffffffffffffffff1673ffffffffffffffffffffffffffffffffffffffff168152602001908152602001600020838154811061351c57fe5b9060005260206000200154905080600560008773ffffffffffffffffffffffffffffffffffffffff1673ffffffffffffffffffffffffffffffffffffffff168152602001908152602001600020838154811061357457fe5b9060005260206000200181905550816006600083815260200190815260200160002081905550505b600560008573ffffffffffffffffffffffffffffffffffffffff1673ffffffffffffffffffffffffffffffffffffffff1681526020019081526020016000208054809190600190036135ee91906140ee565b5050505050565b600560008373ffffffffffffffffffffffffffffffffffffffff1673ffffffffffffffffffffffffffffffffffffffff168152602001908152602001600020805490506006600083815260200190815260200160002081905550600560008373ffffffffffffffffffffffffffffffffffffffff1673ffffffffffffffffffffffffffffffffffffffff1681526020019081526020016000208190806001815401808255809150509060018203906000526020600020016000909192909190915055505050565b60006136dd8473ffffffffffffffffffffffffffffffffffffffff16613e12565b6136ea57600190506139f0565b600060608573ffffffffffffffffffffffffffffffffffffffff168673ffffffffffffffffffffffffffffffffffffffff1663150b7a02905060e01b61372e612b60565b898888604051602401808573ffffffffffffffffffffffffffffffffffffffff1673ffffffffffffffffffffffffffffffffffffffff1681526020018473ffffffffffffffffffffffffffffffffffffffff1673ffffffffffffffffffffffffffffffffffffffff16815260200183815260200180602001828103825283818151815260200191508051906020019080838360005b838110156137de5780820151818401526020810190506137c3565b50505050905090810190601f16801561380b5780820380516001836020036101000a031916815260200191505b5095505050505050604051602081830303815290604052907bffffffffffffffffffffffffffffffffffffffffffffffffffffffff19166020820180517bffffffffffffffffffffffffffffffffffffffffffffffffffffffff83818316178352505050506040518082805190602001908083835b602083106138a35780518252602082019150602081019050602083039250613880565b6001836020036101000a0380198251168184511680821785525050505050509050019150506000604051808303816000865af19150503d8060008114613905576040519150601f19603f3d011682016040523d82523d6000602084013e61390a565b606091505b509150915081613978576000815111156139275780518082602001fd5b6040517f08c379a000000000000000000000000000000000000000000000000000000000815260040180806020018281038252603281526020018061416b6032913960400191505060405180910390fd5b600081806020019051602081101561398f57600080fd5b8101908080519060200190929190505050905063150b7a0260e01b7bffffffffffffffffffffffffffffffffffffffffffffffffffffffff1916817bffffffffffffffffffffffffffffffffffffffffffffffffffffffff19161493505050505b949350505050565b6000601b600060125481526020019081526020016000206000015490506000613a3e6009613a30600a8561279190919063ffffffff16565b6128e990919063ffffffff16565b9050613a56600160125461286190919063ffffffff16565b60128190555080601b60006012548152602001908152602001600020600001819055505050565b600073ffffffffffffffffffffffffffffffffffffffff168273ffffffffffffffffffffffffffffffffffffffff161415613b20576040517f08c379a00000000000000000000000000000000000000000000000000000000081526004018080602001828103825260208152602001807f4552433732313a206d696e7420746f20746865207a65726f206164647265737381525060200191505060405180910390fd5b613b2981612aee565b15613b9c576040517f08c379a000000000000000000000000000000000000000000000000000000000815260040180806020018281038252601c8152602001807f4552433732313a20746f6b656e20616c7265616479206d696e7465640000000081525060200191505060405180910390fd5b816001600083815260200190815260200160002060006101000a81548173ffffffffffffffffffffffffffffffffffffffff021916908373ffffffffffffffffffffffffffffffffffffffff160217905550613c35600360008473ffffffffffffffffffffffffffffffffffffffff1673ffffffffffffffffffffffffffffffffffffffff168152602001908152602001600020613dfc565b808273ffffffffffffffffffffffffffffffffffffffff16600073ffffffffffffffffffffffffffffffffffffffff167fddf252ad1be2c89b69c2b068fc378daa952ba7f163c4a11628f55a4df523b3ef60405160405180910390a45050565b6007805490506008600083815260200190815260200160002081905550600781908060018154018082558091505090600182039060005260206000200160009091929091909150555050565b613ceb8282613e5d565b613cf58282613457565b60006006600083815260200190815260200160002081905550613d1781613fec565b5050565b600073ffffffffffffffffffffffffffffffffffffffff166002600083815260200190815260200160002060009054906101000a900473ffffffffffffffffffffffffffffffffffffffff1673ffffffffffffffffffffffffffffffffffffffff1614613dd65760006002600083815260200190815260200160002060006101000a81548173ffffffffffffffffffffffffffffffffffffffff021916908373ffffffffffffffffffffffffffffffffffffffff1602179055505b50565b613df16001826000015461281790919063ffffffff16565b816000018190555050565b6001816000016000828254019250508190555050565b60008060007fc5d2460186f7233c927e7db2dcc703c0e500b653ca82273b7bfad8045d85a47060001b9050833f9150808214158015613e5457506000801b8214155b92505050919050565b8173ffffffffffffffffffffffffffffffffffffffff16613e7d8261192b565b73ffffffffffffffffffffffffffffffffffffffff1614613ee9576040517f08c379a000000000000000000000000000000000000000000000000000000000815260040180806020018281038252602581526020018061439b6025913960400191505060405180910390fd5b613ef281613d1b565b613f39600360008473ffffffffffffffffffffffffffffffffffffffff1673ffffffffffffffffffffffffffffffffffffffff168152602001908152602001600020613dd9565b60006001600083815260200190815260200160002060006101000a81548173ffffffffffffffffffffffffffffffffffffffff021916908373ffffffffffffffffffffffffffffffffffffffff16021790555080600073ffffffffffffffffffffffffffffffffffffffff168373ffffffffffffffffffffffffffffffffffffffff167fddf252ad1be2c89b69c2b068fc378daa952ba7f163c4a11628f55a4df523b3ef60405160405180910390a45050565b6000614007600160078054905061281790919063ffffffff16565b905060006008600084815260200190815260200160002054905060006007838154811061403057fe5b90600052602060002001549050806007838154811061404b57fe5b9060005260206000200181905550816008600083815260200190815260200160002081905550600780548091906001900361408691906140ee565b506000600860008681526020019081526020016000208190555050505050565b50805460018160011615610100020316600290046000825580601f106140cc57506140eb565b601f0160209004906000526020600020908101906140ea919061411a565b5b50565b81548183558181111561411557818360005260206000209182019101614114919061411a565b5b505050565b61413c91905b80821115614138576000816000905550600101614120565b5090565b9056fe455243373231456e756d657261626c653a206f776e657220696e646578206f7574206f6620626f756e64734552433732313a207472616e7366657220746f206e6f6e20455243373231526563656976657220696d706c656d656e7465724552433732313a207472616e7366657220746f20746865207a65726f20616464726573734552433732313a206f70657261746f7220717565727920666f72206e6f6e6578697374656e7420746f6b656e4552433732313a20617070726f76652063616c6c6572206973206e6f74206f776e6572206e6f7220617070726f76656420666f7220616c6c4552433732313a2062616c616e636520717565727920666f7220746865207a65726f20616464726573734552433732313a206f776e657220717565727920666f72206e6f6e6578697374656e7420746f6b656e536166654d6174683a206d756c7469706c69636174696f6e206f766572666c6f774552433732313a20617070726f76656420717565727920666f72206e6f6e6578697374656e7420746f6b656e4552433732313a207472616e73666572206f6620746f6b656e2074686174206973206e6f74206f776e4552433732314d657461646174613a2055524920717565727920666f72206e6f6e6578697374656e7420746f6b656e4552433732313a20617070726f76616c20746f2063757272656e74206f776e65724552433732313a207472616e736665722063616c6c6572206973206e6f74206f776e6572206e6f7220617070726f766564455243373231456e756d657261626c653a20676c6f62616c20696e646578206f7574206f6620626f756e64734552433732313a206275726e206f6620746f6b656e2074686174206973206e6f74206f776ea265627a7a723158201b6bc2e80dde484408d46c358d80a0610659762b414b4e5f393d990c6424b76c64736f6c634300050c0032",
  "source": "pragma solidity >=0.4.21 <0.7.0;\n\nimport \"@openzeppelin/contracts/token/ERC721/ERC721Full.sol\";\nimport \"@openzeppelin/contracts/math/SafeMath.sol\";\n\n/// @title Dai contract interface\n/// @notice Various cash functions\ninterface Cash \n{\n    function approve(address _spender, uint _amount) external returns (bool);\n    function balanceOf(address _ownesr) external view returns (uint);\n    function mint(uint256) external;\n    function transfer(address _to, uint _amount) external returns (bool);\n}\n\ninterface IaToken \n{\n    function balanceOf(address _user) external view returns(uint);\n    function redeem(uint256 _amount) external;\n}\n\ninterface IAaveLendingPool \n{\n    function deposit( address _reserve, uint256 _amount, uint16 _referralCode) external;\n}\n\ninterface IAaveLendingPoolCore {}\n\ncontract PonziHodlFactory is ERC721Full {\n\n    using SafeMath for uint;\n\n    Cash underlying;\n    IaToken aToken;\n    IAaveLendingPool aaveLendingPool;\n    IAaveLendingPoolCore aaveLendingPoolCore;\n\n    constructor(address _cashAddress, address _aTokenAddress, address _aaveLpAddress, address _aaveLpcoreAddress ) ERC721Full(\"HodlFactory\", \"HODL++\") public { \n        underlying = Cash(_cashAddress);\n        aToken = IaToken(_aTokenAddress); \n        aaveLendingPool = IAaveLendingPool(_aaveLpAddress); \n        aaveLendingPoolCore = IAaveLendingPoolCore(_aaveLpcoreAddress); \n\n        //create first tier\n        tierProperties[0].size = 10;\n    }\n\n    uint public hodlCount = 0;\n    uint public tierCount = 0;\n    uint public averagePurchaseTime = 0;\n    uint constant public oneHundredDai = 10**20;\n    uint public totalInterestWithdrawn = 0;\n    uint public testingVariableA = 69;\n    uint public testingVariableB = 0;\n    uint public testingVariableC = 0;\n    uint public testingVariableD = 0;\n    uint public testingVariableE = 0;\n\n    struct hodl {\n        uint purchaseTime;\n        uint tier;\n    }\n\n    struct tier {\n        uint size;\n        uint hodlsInTier;\n        uint averagePurchaseTime;\n        uint interestAlreadyWithdrawn;\n    }\n\n    mapping (uint => hodl) public hodlProperties; \n    mapping (uint => tier) public tierProperties; \n    mapping (address => uint[]) hodlOwnerTracker;\n\n    modifier hodlExists(uint _hodlId) {\n        require(ownerOf(_hodlId) != address(0), \"Hodl does not exist\");\n        _;\n    }\n\n    function getAdaiBalance() public view returns (uint) {\n        return(aToken.balanceOf(address(this)));\n    }\n\n    function getHodlsOwned() public view returns(uint[] memory) {\n        return(hodlOwnerTracker[msg.sender]);\n    }\n\n    function _createNewTier() internal {\n        uint _sizeOfBiggestTier = tierProperties[tierCount].size;\n        uint _newSize = (_sizeOfBiggestTier.mul(10)).div(9);\n        tierCount = tierCount.add(1);\n        tierProperties[tierCount].size = _newSize;\n    }\n\n    function _addToTier(uint _hodlId) internal {\n        //add to existing tier\n        uint _hodlsInTier = tierProperties[tierCount].hodlsInTier;\n        uint _sizeOfTier = tierProperties[tierCount].size;\n        uint _tierAveragePurchaseTime = tierProperties[tierCount].averagePurchaseTime;\n        if (_hodlsInTier < _sizeOfTier) {\n            tierProperties[tierCount].hodlsInTier = _hodlsInTier.add(1);\n            tierProperties[tierCount].averagePurchaseTime = ((_tierAveragePurchaseTime.mul(_hodlsInTier)).add(now)).div(_hodlsInTier.add(1));\n        } else {\n            _createNewTier();\n            _addToTier(_hodlId);\n        }\n    }\n\n    function getPlayersMyTierOrBelow(uint _hodlId) public view returns (uint) {\n        uint _tier = hodlProperties[_hodlId].tier;\n        uint _playerCount;\n        for (uint i = 0; i <= _tier; i++) {\n            _playerCount = _playerCount.add(tierProperties[i].hodlsInTier);\n        }\n        return _playerCount;\n    }\n\n    function createHodl() public {\n        // UPDATE VARIABLES\n        _addToTier(hodlCount);\n        hodlOwnerTracker[msg.sender].push(hodlCount);\n        hodlProperties[hodlCount].purchaseTime = now;\n        hodlProperties[hodlCount].tier = tierCount;\n        averagePurchaseTime = ((averagePurchaseTime.mul(hodlCount)).add(now)).div(hodlCount.add(1));\n        // SWAP DAI FOR aDAI\n        underlying.mint(oneHundredDai);\n        underlying.approve(address(aaveLendingPoolCore), oneHundredDai);\n        aaveLendingPool.deposit(address(underlying), oneHundredDai, 0);\n        // // GENERATE NFT\n        _mint(msg.sender, hodlCount);\n        hodlCount = hodlCount.add(1);  \n    } \n\n    function getTierInterestAccrued(uint _tierId) public view returns (uint) {\n        uint _totalAdaiBalance = aToken.balanceOf(address(this)); \n        uint _totalDaiBalance = hodlCount.mul(oneHundredDai);\n        uint _totalInterestAvailable = (_totalAdaiBalance.sub(_totalDaiBalance)).add(totalInterestWithdrawn);\n        uint _hodlsInTier = tierProperties[_tierId].hodlsInTier;\n        uint _interestAlreadyWithdrawn = tierProperties[_tierId].interestAlreadyWithdrawn;\n        uint _numerator = _totalInterestAvailable.mul(now.sub(tierProperties[_tierId].averagePurchaseTime)).mul(_hodlsInTier);\n        uint _denominator = (now.sub(averagePurchaseTime)).mul(hodlCount);\n        return ((_numerator.div(_denominator)).sub(_interestAlreadyWithdrawn));\n    }\n\n    function getInterestAvailableToWithdrawView(uint _hodlId) public view hodlExists(_hodlId) returns (uint) {\n        uint _interestToWithdraw;\n        uint _playerCount = getPlayersMyTierOrBelow(_hodlId);\n        uint _tier = hodlProperties[_hodlId].tier;\n        // tier 0 gets their own interest, any other tier, you do not get your own\n        if (_tier != 0) {\n            _tier = _tier.add(1);\n        }\n        for (uint i = _tier; i <= tierCount; i++) {\n            uint _tierInterestAccrued = getTierInterestAccrued(i);\n            uint _interestToWithdrawFromThisTier = _tierInterestAccrued.div(_playerCount);\n            _interestToWithdraw = _interestToWithdraw.add(_interestToWithdrawFromThisTier);\n            if (i != 0) {\n                // otherwise double counting tier 0 players\n                _playerCount = _playerCount.add(tierProperties[i].hodlsInTier);\n            }\n        }\n        return _interestToWithdraw;\n    }\n\n    // the same as the above, except that it updates 'interestAlreadyWithdrawn' property of each tier \n    function _getInterestAvailableToWithdraw(uint _hodlId) internal hodlExists(_hodlId) returns (uint) {\n        uint _interestToWithdraw;\n        uint _playerCount = getPlayersMyTierOrBelow(_hodlId);\n        uint _tier = hodlProperties[_hodlId].tier;\n        // tier 0 gets their own interest, any other tier, you do not get your own\n        if (_tier != 0) {\n            _tier = _tier.add(1);\n        }\n        for (uint i = _tier; i <= tierCount; i++) {\n            uint _tierInterestAccrued = getTierInterestAccrued(i);\n            uint _interestToWithdrawFromThisTier = _tierInterestAccrued.div(_playerCount);\n            testingVariableA = _tierInterestAccrued;\n            testingVariableB = _interestToWithdrawFromThisTier;\n            testingVariableC = _playerCount;\n            _interestToWithdraw = _interestToWithdraw.add(_interestToWithdrawFromThisTier);\n            tierProperties[i].interestAlreadyWithdrawn = tierProperties[i].interestAlreadyWithdrawn.add(_interestToWithdrawFromThisTier); // <- only new line from View version\n            if (i != 0) {\n                // otherwise double counting tier 0 players\n                _playerCount = _playerCount.add(tierProperties[i].hodlsInTier);\n            }\n        }\n        return _interestToWithdraw;\n    }\n\n    function _withdrawInterest(uint _hodlId) internal {\n        uint _interestToWithdraw = _getInterestAvailableToWithdraw(_hodlId);\n        totalInterestWithdrawn = totalInterestWithdrawn.add(_interestToWithdraw);\n        aToken.redeem(_interestToWithdraw);\n        underlying.transfer(ownerOf(_hodlId), _interestToWithdraw);\n    } \n\n    function destroyHodl(uint _hodlId) public {\n        require (ownerOf(_hodlId) == msg.sender, \"Not owner\");\n        _withdrawInterest(_hodlId);\n        // remove HODL from tier\n        uint _tier = hodlProperties[_hodlId].tier;\n        uint _hodlsInTier = tierProperties[_tier].hodlsInTier;\n        uint _tierAveragePurchaseTime = tierProperties[_tier].averagePurchaseTime;\n        if (_hodlsInTier > 1) {\n            tierProperties[_tier].averagePurchaseTime = ((_tierAveragePurchaseTime.mul(_hodlsInTier)).sub(hodlProperties[_hodlId].purchaseTime)).div(_hodlsInTier.sub(1));\n        } else {\n            tierProperties[_tier].averagePurchaseTime = 0;\n        }\n        tierProperties[_tier].hodlsInTier = tierProperties[_tier].hodlsInTier.sub(1);\n        // external calls\n        aToken.redeem(oneHundredDai);\n        underlying.transfer(ownerOf(_hodlId), oneHundredDai);\n        // remove HODL\n        hodlCount = hodlCount.sub(1);\n        _burn(_hodlId);\n    }\n\n}\n",
  "sourcePath": "/Users/mcplums/Repos/HodlFactory/contracts/PonziHodlFactory.sol",
  "compiler": {
    "name": "solc",
    "version": "0.5.12+commit.7709ece9.Emscripten.clang"
  },
  "schemaVersion": "3.0.19",
  "updatedAt": "2020-04-23T11:43:23.041Z",
  "devdoc": {
    "methods": {
      "approve(address,uint256)": {
        "details": "Approves another address to transfer the given token ID The zero address indicates there is no approved address. There can only be one approved address per token at a given time. Can only be called by the token owner or an approved operator.",
        "params": {
          "to": "address to be approved for the given token ID",
          "tokenId": "uint256 ID of the token to be approved"
        }
      },
      "balanceOf(address)": {
        "details": "Gets the balance of the specified address.",
        "params": {
          "owner": "address to query the balance of"
        },
        "return": "uint256 representing the amount owned by the passed address"
      },
      "baseURI()": {
        "details": "Returns the base URI set via {_setBaseURI}. This will be automatically added as a preffix in {tokenURI} to each token's URI, when they are non-empty.    * _Available since v2.5.0._"
      },
      "getApproved(uint256)": {
        "details": "Gets the approved address for a token ID, or zero if no address set Reverts if the token ID does not exist.",
        "params": {
          "tokenId": "uint256 ID of the token to query the approval of"
        },
        "return": "address currently approved for the given token ID"
      },
      "isApprovedForAll(address,address)": {
        "details": "Tells whether an operator is approved by a given owner.",
        "params": {
          "operator": "operator address which you want to query the approval of",
          "owner": "owner address which you want to query the approval of"
        },
        "return": "bool whether the given operator is approved by the given owner"
      },
      "name()": {
        "details": "Gets the token name.",
        "return": "string representing the token name"
      },
      "ownerOf(uint256)": {
        "details": "Gets the owner of the specified token ID.",
        "params": {
          "tokenId": "uint256 ID of the token to query the owner of"
        },
        "return": "address currently marked as the owner of the given token ID"
      },
      "safeTransferFrom(address,address,uint256)": {
        "details": "Safely transfers the ownership of a given token ID to another address If the target address is a contract, it must implement {IERC721Receiver-onERC721Received}, which is called upon a safe transfer, and return the magic value `bytes4(keccak256(\"onERC721Received(address,address,uint256,bytes)\"))`; otherwise, the transfer is reverted. Requires the msg.sender to be the owner, approved, or operator",
        "params": {
          "from": "current owner of the token",
          "to": "address to receive the ownership of the given token ID",
          "tokenId": "uint256 ID of the token to be transferred"
        }
      },
      "safeTransferFrom(address,address,uint256,bytes)": {
        "details": "Safely transfers the ownership of a given token ID to another address If the target address is a contract, it must implement {IERC721Receiver-onERC721Received}, which is called upon a safe transfer, and return the magic value `bytes4(keccak256(\"onERC721Received(address,address,uint256,bytes)\"))`; otherwise, the transfer is reverted. Requires the _msgSender() to be the owner, approved, or operator",
        "params": {
          "_data": "bytes data to send along with a safe transfer check",
          "from": "current owner of the token",
          "to": "address to receive the ownership of the given token ID",
          "tokenId": "uint256 ID of the token to be transferred"
        }
      },
      "setApprovalForAll(address,bool)": {
        "details": "Sets or unsets the approval of a given operator An operator is allowed to transfer all tokens of the sender on their behalf.",
        "params": {
          "approved": "representing the status of the approval to be set",
          "to": "operator address to set the approval"
        }
      },
      "supportsInterface(bytes4)": {
        "details": "See {IERC165-supportsInterface}.     * Time complexity O(1), guaranteed to always use less than 30 000 gas."
      },
      "symbol()": {
        "details": "Gets the token symbol.",
        "return": "string representing the token symbol"
      },
      "tokenByIndex(uint256)": {
        "details": "Gets the token ID at a given index of all the tokens in this contract Reverts if the index is greater or equal to the total number of tokens.",
        "params": {
          "index": "uint256 representing the index to be accessed of the tokens list"
        },
        "return": "uint256 token ID at the given index of the tokens list"
      },
      "tokenOfOwnerByIndex(address,uint256)": {
        "details": "Gets the token ID at a given index of the tokens list of the requested owner.",
        "params": {
          "index": "uint256 representing the index to be accessed of the requested tokens list",
          "owner": "address owning the tokens list to be accessed"
        },
        "return": "uint256 token ID at the given index of the tokens list owned by the requested address"
      },
      "tokenURI(uint256)": {
        "details": "Returns the URI for a given token ID. May return an empty string.     * If the token's URI is non-empty and a base URI was set (via {_setBaseURI}), it will be added to the token ID's URI as a prefix.     * Reverts if the token ID does not exist."
      },
      "totalSupply()": {
        "details": "Gets the total amount of tokens stored by the contract.",
        "return": "uint256 representing the total amount of tokens"
      },
      "transferFrom(address,address,uint256)": {
        "details": "Transfers the ownership of a given token ID to another address. Usage of this method is discouraged, use {safeTransferFrom} whenever possible. Requires the msg.sender to be the owner, approved, or operator.",
        "params": {
          "from": "current owner of the token",
          "to": "address to receive the ownership of the given token ID",
          "tokenId": "uint256 ID of the token to be transferred"
        }
      }
    }
  },
  "userdoc": {
    "methods": {}
  }
}