{
  "contractName": "PonziHodlFactory",
  "abi": [
    {
      "inputs": [
        {
          "internalType": "address",
          "name": "_cashAddress",
          "type": "address"
        },
        {
          "internalType": "address",
          "name": "_aTokenAddress",
          "type": "address"
        },
        {
          "internalType": "address",
          "name": "_aaveLpAddress",
          "type": "address"
        },
        {
          "internalType": "address",
          "name": "_aaveLpcoreAddress",
          "type": "address"
        }
      ],
      "payable": false,
      "stateMutability": "nonpayable",
      "type": "constructor"
    },
    {
      "anonymous": false,
      "inputs": [
        {
          "indexed": true,
          "internalType": "address",
          "name": "owner",
          "type": "address"
        },
        {
          "indexed": true,
          "internalType": "address",
          "name": "approved",
          "type": "address"
        },
        {
          "indexed": true,
          "internalType": "uint256",
          "name": "tokenId",
          "type": "uint256"
        }
      ],
      "name": "Approval",
      "type": "event"
    },
    {
      "anonymous": false,
      "inputs": [
        {
          "indexed": true,
          "internalType": "address",
          "name": "owner",
          "type": "address"
        },
        {
          "indexed": true,
          "internalType": "address",
          "name": "operator",
          "type": "address"
        },
        {
          "indexed": false,
          "internalType": "bool",
          "name": "approved",
          "type": "bool"
        }
      ],
      "name": "ApprovalForAll",
      "type": "event"
    },
    {
      "anonymous": false,
      "inputs": [
        {
          "indexed": true,
          "internalType": "address",
          "name": "from",
          "type": "address"
        },
        {
          "indexed": true,
          "internalType": "address",
          "name": "to",
          "type": "address"
        },
        {
          "indexed": true,
          "internalType": "uint256",
          "name": "tokenId",
          "type": "uint256"
        }
      ],
      "name": "Transfer",
      "type": "event"
    },
    {
      "anonymous": false,
      "inputs": [
        {
          "indexed": true,
          "internalType": "uint256",
          "name": "stfu",
          "type": "uint256"
        }
      ],
      "name": "stfu",
      "type": "event"
    },
    {
      "constant": false,
      "inputs": [
        {
          "internalType": "address",
          "name": "to",
          "type": "address"
        },
        {
          "internalType": "uint256",
          "name": "tokenId",
          "type": "uint256"
        }
      ],
      "name": "approve",
      "outputs": [],
      "payable": false,
      "stateMutability": "nonpayable",
      "type": "function"
    },
    {
      "constant": true,
      "inputs": [],
      "name": "averagePurchaseTime",
      "outputs": [
        {
          "internalType": "uint256",
          "name": "",
          "type": "uint256"
        }
      ],
      "payable": false,
      "stateMutability": "view",
      "type": "function"
    },
    {
      "constant": true,
      "inputs": [
        {
          "internalType": "address",
          "name": "owner",
          "type": "address"
        }
      ],
      "name": "balanceOf",
      "outputs": [
        {
          "internalType": "uint256",
          "name": "",
          "type": "uint256"
        }
      ],
      "payable": false,
      "stateMutability": "view",
      "type": "function"
    },
    {
      "constant": true,
      "inputs": [],
      "name": "baseURI",
      "outputs": [
        {
          "internalType": "string",
          "name": "",
          "type": "string"
        }
      ],
      "payable": false,
      "stateMutability": "view",
      "type": "function"
    },
    {
      "constant": true,
      "inputs": [
        {
          "internalType": "uint256",
          "name": "tokenId",
          "type": "uint256"
        }
      ],
      "name": "getApproved",
      "outputs": [
        {
          "internalType": "address",
          "name": "",
          "type": "address"
        }
      ],
      "payable": false,
      "stateMutability": "view",
      "type": "function"
    },
    {
      "constant": true,
      "inputs": [],
      "name": "hodlCount",
      "outputs": [
        {
          "internalType": "uint256",
          "name": "",
          "type": "uint256"
        }
      ],
      "payable": false,
      "stateMutability": "view",
      "type": "function"
    },
    {
      "constant": true,
      "inputs": [
        {
          "internalType": "uint256",
          "name": "",
          "type": "uint256"
        }
      ],
      "name": "hodlProperties",
      "outputs": [
        {
          "internalType": "uint256",
          "name": "purchaseTime",
          "type": "uint256"
        },
        {
          "internalType": "uint256",
          "name": "tier",
          "type": "uint256"
        }
      ],
      "payable": false,
      "stateMutability": "view",
      "type": "function"
    },
    {
      "constant": true,
      "inputs": [
        {
          "internalType": "address",
          "name": "owner",
          "type": "address"
        },
        {
          "internalType": "address",
          "name": "operator",
          "type": "address"
        }
      ],
      "name": "isApprovedForAll",
      "outputs": [
        {
          "internalType": "bool",
          "name": "",
          "type": "bool"
        }
      ],
      "payable": false,
      "stateMutability": "view",
      "type": "function"
    },
    {
      "constant": true,
      "inputs": [],
      "name": "name",
      "outputs": [
        {
          "internalType": "string",
          "name": "",
          "type": "string"
        }
      ],
      "payable": false,
      "stateMutability": "view",
      "type": "function"
    },
    {
      "constant": true,
      "inputs": [],
      "name": "oneHundredDai",
      "outputs": [
        {
          "internalType": "uint256",
          "name": "",
          "type": "uint256"
        }
      ],
      "payable": false,
      "stateMutability": "view",
      "type": "function"
    },
    {
      "constant": true,
      "inputs": [
        {
          "internalType": "uint256",
          "name": "tokenId",
          "type": "uint256"
        }
      ],
      "name": "ownerOf",
      "outputs": [
        {
          "internalType": "address",
          "name": "",
          "type": "address"
        }
      ],
      "payable": false,
      "stateMutability": "view",
      "type": "function"
    },
    {
      "constant": false,
      "inputs": [
        {
          "internalType": "address",
          "name": "from",
          "type": "address"
        },
        {
          "internalType": "address",
          "name": "to",
          "type": "address"
        },
        {
          "internalType": "uint256",
          "name": "tokenId",
          "type": "uint256"
        }
      ],
      "name": "safeTransferFrom",
      "outputs": [],
      "payable": false,
      "stateMutability": "nonpayable",
      "type": "function"
    },
    {
      "constant": false,
      "inputs": [
        {
          "internalType": "address",
          "name": "from",
          "type": "address"
        },
        {
          "internalType": "address",
          "name": "to",
          "type": "address"
        },
        {
          "internalType": "uint256",
          "name": "tokenId",
          "type": "uint256"
        },
        {
          "internalType": "bytes",
          "name": "_data",
          "type": "bytes"
        }
      ],
      "name": "safeTransferFrom",
      "outputs": [],
      "payable": false,
      "stateMutability": "nonpayable",
      "type": "function"
    },
    {
      "constant": false,
      "inputs": [
        {
          "internalType": "address",
          "name": "to",
          "type": "address"
        },
        {
          "internalType": "bool",
          "name": "approved",
          "type": "bool"
        }
      ],
      "name": "setApprovalForAll",
      "outputs": [],
      "payable": false,
      "stateMutability": "nonpayable",
      "type": "function"
    },
    {
      "constant": true,
      "inputs": [
        {
          "internalType": "bytes4",
          "name": "interfaceId",
          "type": "bytes4"
        }
      ],
      "name": "supportsInterface",
      "outputs": [
        {
          "internalType": "bool",
          "name": "",
          "type": "bool"
        }
      ],
      "payable": false,
      "stateMutability": "view",
      "type": "function"
    },
    {
      "constant": true,
      "inputs": [],
      "name": "symbol",
      "outputs": [
        {
          "internalType": "string",
          "name": "",
          "type": "string"
        }
      ],
      "payable": false,
      "stateMutability": "view",
      "type": "function"
    },
    {
      "constant": true,
      "inputs": [],
      "name": "testingVariableA",
      "outputs": [
        {
          "internalType": "uint256",
          "name": "",
          "type": "uint256"
        }
      ],
      "payable": false,
      "stateMutability": "view",
      "type": "function"
    },
    {
      "constant": true,
      "inputs": [],
      "name": "testingVariableB",
      "outputs": [
        {
          "internalType": "uint256",
          "name": "",
          "type": "uint256"
        }
      ],
      "payable": false,
      "stateMutability": "view",
      "type": "function"
    },
    {
      "constant": true,
      "inputs": [],
      "name": "testingVariableC",
      "outputs": [
        {
          "internalType": "uint256",
          "name": "",
          "type": "uint256"
        }
      ],
      "payable": false,
      "stateMutability": "view",
      "type": "function"
    },
    {
      "constant": true,
      "inputs": [],
      "name": "testingVariableD",
      "outputs": [
        {
          "internalType": "uint256",
          "name": "",
          "type": "uint256"
        }
      ],
      "payable": false,
      "stateMutability": "view",
      "type": "function"
    },
    {
      "constant": true,
      "inputs": [],
      "name": "testingVariableE",
      "outputs": [
        {
          "internalType": "uint256",
          "name": "",
          "type": "uint256"
        }
      ],
      "payable": false,
      "stateMutability": "view",
      "type": "function"
    },
    {
      "constant": true,
      "inputs": [],
      "name": "tierCount",
      "outputs": [
        {
          "internalType": "uint256",
          "name": "",
          "type": "uint256"
        }
      ],
      "payable": false,
      "stateMutability": "view",
      "type": "function"
    },
    {
      "constant": true,
      "inputs": [
        {
          "internalType": "uint256",
          "name": "",
          "type": "uint256"
        }
      ],
      "name": "tierProperties",
      "outputs": [
        {
          "internalType": "uint256",
          "name": "averagePurchaseTime",
          "type": "uint256"
        },
        {
          "internalType": "uint256",
          "name": "interestAlreadyWithdrawn",
          "type": "uint256"
        },
        {
          "internalType": "uint256",
          "name": "hodlsInTier",
          "type": "uint256"
        },
        {
          "internalType": "uint256",
          "name": "size",
          "type": "uint256"
        }
      ],
      "payable": false,
      "stateMutability": "view",
      "type": "function"
    },
    {
      "constant": true,
      "inputs": [
        {
          "internalType": "uint256",
          "name": "index",
          "type": "uint256"
        }
      ],
      "name": "tokenByIndex",
      "outputs": [
        {
          "internalType": "uint256",
          "name": "",
          "type": "uint256"
        }
      ],
      "payable": false,
      "stateMutability": "view",
      "type": "function"
    },
    {
      "constant": true,
      "inputs": [
        {
          "internalType": "address",
          "name": "owner",
          "type": "address"
        },
        {
          "internalType": "uint256",
          "name": "index",
          "type": "uint256"
        }
      ],
      "name": "tokenOfOwnerByIndex",
      "outputs": [
        {
          "internalType": "uint256",
          "name": "",
          "type": "uint256"
        }
      ],
      "payable": false,
      "stateMutability": "view",
      "type": "function"
    },
    {
      "constant": true,
      "inputs": [
        {
          "internalType": "uint256",
          "name": "tokenId",
          "type": "uint256"
        }
      ],
      "name": "tokenURI",
      "outputs": [
        {
          "internalType": "string",
          "name": "",
          "type": "string"
        }
      ],
      "payable": false,
      "stateMutability": "view",
      "type": "function"
    },
    {
      "constant": true,
      "inputs": [],
      "name": "totalSupply",
      "outputs": [
        {
          "internalType": "uint256",
          "name": "",
          "type": "uint256"
        }
      ],
      "payable": false,
      "stateMutability": "view",
      "type": "function"
    },
    {
      "constant": false,
      "inputs": [
        {
          "internalType": "address",
          "name": "from",
          "type": "address"
        },
        {
          "internalType": "address",
          "name": "to",
          "type": "address"
        },
        {
          "internalType": "uint256",
          "name": "tokenId",
          "type": "uint256"
        }
      ],
      "name": "transferFrom",
      "outputs": [],
      "payable": false,
      "stateMutability": "nonpayable",
      "type": "function"
    },
    {
      "constant": true,
      "inputs": [
        {
          "internalType": "uint256",
          "name": "_hodlId",
          "type": "uint256"
        }
      ],
      "name": "getHodlPurchaseTime",
      "outputs": [
        {
          "internalType": "uint256",
          "name": "",
          "type": "uint256"
        }
      ],
      "payable": false,
      "stateMutability": "view",
      "type": "function"
    },
    {
      "constant": true,
      "inputs": [],
      "name": "getAdaiBalance",
      "outputs": [
        {
          "internalType": "uint256",
          "name": "",
          "type": "uint256"
        }
      ],
      "payable": false,
      "stateMutability": "view",
      "type": "function"
    },
    {
      "constant": true,
      "inputs": [],
      "name": "getHodlsOwned",
      "outputs": [
        {
          "internalType": "uint256[]",
          "name": "",
          "type": "uint256[]"
        }
      ],
      "payable": false,
      "stateMutability": "view",
      "type": "function"
    },
    {
      "constant": false,
      "inputs": [
        {
          "internalType": "uint256",
          "name": "_hodlId",
          "type": "uint256"
        }
      ],
      "name": "addToTier",
      "outputs": [],
      "payable": false,
      "stateMutability": "nonpayable",
      "type": "function"
    },
    {
      "constant": true,
      "inputs": [
        {
          "internalType": "uint256",
          "name": "_hodlId",
          "type": "uint256"
        }
      ],
      "name": "getPlayersMyTierOrBelow",
      "outputs": [
        {
          "internalType": "uint256",
          "name": "",
          "type": "uint256"
        }
      ],
      "payable": false,
      "stateMutability": "view",
      "type": "function"
    },
    {
      "constant": false,
      "inputs": [],
      "name": "createHodl",
      "outputs": [],
      "payable": false,
      "stateMutability": "nonpayable",
      "type": "function"
    },
    {
      "constant": true,
      "inputs": [
        {
          "internalType": "uint256",
          "name": "_tierId",
          "type": "uint256"
        }
      ],
      "name": "getTierInterestAccrued",
      "outputs": [
        {
          "internalType": "uint256",
          "name": "",
          "type": "uint256"
        }
      ],
      "payable": false,
      "stateMutability": "view",
      "type": "function"
    },
    {
      "constant": true,
      "inputs": [
        {
          "internalType": "uint256",
          "name": "_hodlId",
          "type": "uint256"
        }
      ],
      "name": "getInterestAvailableToWithdrawView",
      "outputs": [
        {
          "internalType": "uint256",
          "name": "",
          "type": "uint256"
        }
      ],
      "payable": false,
      "stateMutability": "view",
      "type": "function"
    },
    {
      "constant": false,
      "inputs": [
        {
          "internalType": "uint256",
          "name": "_hodlId",
          "type": "uint256"
        }
      ],
      "name": "getInterestAvailableToWithdraw",
      "outputs": [
        {
          "internalType": "uint256",
          "name": "",
          "type": "uint256"
        }
      ],
      "payable": false,
      "stateMutability": "nonpayable",
      "type": "function"
    },
    {
      "constant": false,
      "inputs": [
        {
          "internalType": "uint256",
          "name": "_hodlId",
          "type": "uint256"
        }
      ],
      "name": "destroyHodl",
      "outputs": [],
      "payable": false,
      "stateMutability": "nonpayable",
      "type": "function"
    }
  ],
  "bytecode": "0x6080604052600060115560006012556000601355604560145560006015556000601655600060175560006018553480156200003957600080fd5b506040516200477338038062004773833981810160405260808110156200005f57600080fd5b81019080805190602001909291908051906020019092919080519060200190929190805190602001909291905050506040518060400160405280600b81526020017f486f646c466163746f72790000000000000000000000000000000000000000008152506040518060400160405280600681526020017f484f444c2b2b00000000000000000000000000000000000000000000000000008152508181620001146301ffc9a760e01b620002bc60201b60201c565b6200012c6380ac58cd60e01b620002bc60201b60201c565b6200014463780e9d6360e01b620002bc60201b60201c565b81600990805190602001906200015c929190620003c5565b5080600a908051906020019062000175929190620003c5565b506200018e635b5e139f60e01b620002bc60201b60201c565b5050505083600d60006101000a81548173ffffffffffffffffffffffffffffffffffffffff021916908373ffffffffffffffffffffffffffffffffffffffff16021790555082600e60006101000a81548173ffffffffffffffffffffffffffffffffffffffff021916908373ffffffffffffffffffffffffffffffffffffffff16021790555081600f60006101000a81548173ffffffffffffffffffffffffffffffffffffffff021916908373ffffffffffffffffffffffffffffffffffffffff16021790555080601060006101000a81548173ffffffffffffffffffffffffffffffffffffffff021916908373ffffffffffffffffffffffffffffffffffffffff160217905550600a601a6000808152602001908152602001600020600301819055505050505062000474565b63ffffffff60e01b817bffffffffffffffffffffffffffffffffffffffffffffffffffffffff1916141562000359576040517f08c379a000000000000000000000000000000000000000000000000000000000815260040180806020018281038252601c8152602001807f4552433136353a20696e76616c696420696e746572666163652069640000000081525060200191505060405180910390fd5b6001600080837bffffffffffffffffffffffffffffffffffffffffffffffffffffffff19167bffffffffffffffffffffffffffffffffffffffffffffffffffffffff1916815260200190815260200160002060006101000a81548160ff02191690831515021790555050565b828054600181600116156101000203166002900490600052602060002090601f016020900481019282601f106200040857805160ff191683800117855562000439565b8280016001018555821562000439579182015b82811115620004385782518255916020019190600101906200041b565b5b5090506200044891906200044c565b5090565b6200047191905b808211156200046d57600081600090555060010162000453565b5090565b90565b6142ef80620004846000396000f3fe608060405234801561001057600080fd5b50600436106102315760003560e01c80636c0360eb11610130578063a5080bdd116100b8578063d3d125b21161007c578063d3d125b214610c6e578063e0c756fe14610c8c578063e985e9c514610c96578063ee9d129514610d12578063f440041d14610d6957610231565b8063a5080bdd14610a19578063aac13c3d14610a62578063b0aa089114610aa4578063b88d4fde14610ac2578063c87b56dd14610bc757610231565b80637a2aedc0116100ff5780637a2aedc0146108c857806395d89b411461090a57806396b55f7d1461098d5780639709e738146109ab578063a22cb465146109c957610231565b80636c0360eb146107b15780636c49c786146108345780636ebcf0c71461085257806370a082311461087057610231565b806323b872dd116101be5780634b704921116101825780634b704921146106425780634f6ccce714610660578063630e825a146106a25780636352211e14610701578063663922e21461076f57610231565b806323b872dd146104c8578063291eeebf146105365780632f745c5914610554578063369b79e9146105b657806342842e0e146105d457610231565b806306fdde031161020557806306fdde0314610329578063081812fc146103ac578063095ea7b31461041a57806318160ddd146104685780631a1409e01461048657610231565b80625d8d371461023657806301ffaabd1461027857806301ffc9a7146102a6578063035a06ca1461030b575b600080fd5b6102626004803603602081101561024c57600080fd5b8101908080359060200190929190505050610d97565b6040518082815260200191505060405180910390f35b6102a46004803603602081101561028e57600080fd5b8101908080359060200190929190505050610f96565b005b6102f1600480360360208110156102bc57600080fd5b8101908080357bffffffffffffffffffffffffffffffffffffffffffffffffffffffff19169060200190929190505050611339565b604051808215151515815260200191505060405180910390f35b6103136113a0565b6040518082815260200191505060405180910390f35b6103316113a6565b6040518080602001828103825283818151815260200191508051906020019080838360005b83811015610371578082015181840152602081019050610356565b50505050905090810190601f16801561039e5780820380516001836020036101000a031916815260200191505b509250505060405180910390f35b6103d8600480360360208110156103c257600080fd5b8101908080359060200190929190505050611448565b604051808273ffffffffffffffffffffffffffffffffffffffff1673ffffffffffffffffffffffffffffffffffffffff16815260200191505060405180910390f35b6104666004803603604081101561043057600080fd5b81019080803573ffffffffffffffffffffffffffffffffffffffff169060200190929190803590602001909291905050506114e3565b005b6104706116ca565b6040518082815260200191505060405180910390f35b6104b26004803603602081101561049c57600080fd5b81019080803590602001909291905050506116d7565b6040518082815260200191505060405180910390f35b610534600480360360608110156104de57600080fd5b81019080803573ffffffffffffffffffffffffffffffffffffffff169060200190929190803573ffffffffffffffffffffffffffffffffffffffff16906020019092919080359060200190929190505050611744565b005b61053e6117ba565b6040518082815260200191505060405180910390f35b6105a06004803603604081101561056a57600080fd5b81019080803573ffffffffffffffffffffffffffffffffffffffff169060200190929190803590602001909291905050506117c0565b6040518082815260200191505060405180910390f35b6105be61187f565b6040518082815260200191505060405180910390f35b610640600480360360608110156105ea57600080fd5b81019080803573ffffffffffffffffffffffffffffffffffffffff169060200190929190803573ffffffffffffffffffffffffffffffffffffffff16906020019092919080359060200190929190505050611885565b005b61064a6118a5565b6040518082815260200191505060405180910390f35b61068c6004803603602081101561067657600080fd5b81019080803590602001909291905050506118ab565b6040518082815260200191505060405180910390f35b6106aa61192b565b6040518080602001828103825283818151815260200191508051906020019060200280838360005b838110156106ed5780820151818401526020810190506106d2565b505050509050019250505060405180910390f35b61072d6004803603602081101561071757600080fd5b81019080803590602001909291905050506119c0565b604051808273ffffffffffffffffffffffffffffffffffffffff1673ffffffffffffffffffffffffffffffffffffffff16815260200191505060405180910390f35b61079b6004803603602081101561078557600080fd5b8101908080359060200190929190505050611a88565b6040518082815260200191505060405180910390f35b6107b9611b97565b6040518080602001828103825283818151815260200191508051906020019080838360005b838110156107f95780820151818401526020810190506107de565b50505050905090810190601f1680156108265780820380516001836020036101000a031916815260200191505b509250505060405180910390f35b61083c611c39565b6040518082815260200191505060405180910390f35b61085a611d1a565b6040518082815260200191505060405180910390f35b6108b26004803603602081101561088657600080fd5b81019080803573ffffffffffffffffffffffffffffffffffffffff169060200190929190505050611d20565b6040518082815260200191505060405180910390f35b6108f4600480360360208110156108de57600080fd5b8101908080359060200190929190505050611df5565b6040518082815260200191505060405180910390f35b610912611ec1565b6040518080602001828103825283818151815260200191508051906020019080838360005b83811015610952578082015181840152602081019050610937565b50505050905090810190601f16801561097f5780820380516001836020036101000a031916815260200191505b509250505060405180910390f35b610995611f63565b6040518082815260200191505060405180910390f35b6109b3611f69565b6040518082815260200191505060405180910390f35b610a17600480360360408110156109df57600080fd5b81019080803573ffffffffffffffffffffffffffffffffffffffff169060200190929190803515159060200190929190505050611f76565b005b610a4560048036036020811015610a2f57600080fd5b810190808035906020019092919050505061212e565b604051808381526020018281526020019250505060405180910390f35b610a8e60048036036020811015610a7857600080fd5b8101908080359060200190929190505050612152565b6040518082815260200191505060405180910390f35b610aac612172565b6040518082815260200191505060405180910390f35b610bc560048036036080811015610ad857600080fd5b81019080803573ffffffffffffffffffffffffffffffffffffffff169060200190929190803573ffffffffffffffffffffffffffffffffffffffff1690602001909291908035906020019092919080359060200190640100000000811115610b3f57600080fd5b820183602082011115610b5157600080fd5b80359060200191846001830284011164010000000083111715610b7357600080fd5b91908080601f016020809104026020016040519081016040528093929190818152602001838380828437600081840152601f19601f820116905080830192505050505050509192919290505050612178565b005b610bf360048036036020811015610bdd57600080fd5b81019080803590602001909291905050506121f0565b6040518080602001828103825283818151815260200191508051906020019080838360005b83811015610c33578082015181840152602081019050610c18565b50505050905090810190601f168015610c605780820380516001836020036101000a031916815260200191505b509250505060405180910390f35b610c766123f2565b6040518082815260200191505060405180910390f35b610c946123f8565b005b610cf860048036036040811015610cac57600080fd5b81019080803573ffffffffffffffffffffffffffffffffffffffff169060200190929190803573ffffffffffffffffffffffffffffffffffffffff1690602001909291905050506127c9565b604051808215151515815260200191505060405180910390f35b610d3e60048036036020811015610d2857600080fd5b810190808035906020019092919050505061285d565b6040518085815260200184815260200183815260200182815260200194505050505060405180910390f35b610d9560048036036020811015610d7f57600080fd5b810190808035906020019092919050505061288d565b005b600080600e60009054906101000a900473ffffffffffffffffffffffffffffffffffffffff1673ffffffffffffffffffffffffffffffffffffffff166370a08231306040518263ffffffff1660e01b8152600401808273ffffffffffffffffffffffffffffffffffffffff1673ffffffffffffffffffffffffffffffffffffffff16815260200191505060206040518083038186803b158015610e3957600080fd5b505afa158015610e4d573d6000803e3d6000fd5b505050506040513d6020811015610e6357600080fd5b810190808051906020019092919050505090506000610e9668056bc75e2d6310000060115461299f90919063ffffffff16565b90506000610ead8284612a2590919063ffffffff16565b90506000601a60008781526020019081526020016000206002015490506000601a60008881526020019081526020016000206001015490506000610f3483610f26610f17601a60008d81526020019081526020016000206000015442612a2590919063ffffffff16565b8761299f90919063ffffffff16565b61299f90919063ffffffff16565b90506000610f61601154610f5360135442612a2590919063ffffffff16565b61299f90919063ffffffff16565b9050610f8883610f7a8385612a6f90919063ffffffff16565b612a2590919063ffffffff16565b975050505050505050919050565b3373ffffffffffffffffffffffffffffffffffffffff16610fb6826119c0565b73ffffffffffffffffffffffffffffffffffffffff161461103f576040517f08c379a00000000000000000000000000000000000000000000000000000000081526004018080602001828103825260098152602001807f4e6f74206f776e6572000000000000000000000000000000000000000000000081525060200191505060405180910390fd5b61104881612ab9565b6000601960008381526020019081526020016000206001015490506000601a60008381526020019081526020016000206002015490506000601a60008481526020019081526020016000206000015490506001821115611121576111026110b9600184612a2590919063ffffffff16565b6110f460196000888152602001908152602001600020600001546110e6868661299f90919063ffffffff16565b612a2590919063ffffffff16565b612a6f90919063ffffffff16565b601a60008581526020019081526020016000206000018190555061113e565b6000601a6000858152602001908152602001600020600001819055505b6111686001601a600086815260200190815260200160002060020154612a2590919063ffffffff16565b601a600085815260200190815260200160002060020181905550600e60009054906101000a900473ffffffffffffffffffffffffffffffffffffffff1673ffffffffffffffffffffffffffffffffffffffff1663db006a7568056bc75e2d631000006040518263ffffffff1660e01b815260040180828152602001915050600060405180830381600087803b15801561120057600080fd5b505af1158015611214573d6000803e3d6000fd5b50505050600d60009054906101000a900473ffffffffffffffffffffffffffffffffffffffff1673ffffffffffffffffffffffffffffffffffffffff1663a9059cbb61125f866119c0565b68056bc75e2d631000006040518363ffffffff1660e01b8152600401808373ffffffffffffffffffffffffffffffffffffffff1673ffffffffffffffffffffffffffffffffffffffff16815260200182815260200192505050602060405180830381600087803b1580156112d257600080fd5b505af11580156112e6573d6000803e3d6000fd5b505050506040513d60208110156112fc57600080fd5b8101908080519060200190929190505050506113246001601154612a2590919063ffffffff16565b60118190555061133384612c44565b50505050565b6000806000837bffffffffffffffffffffffffffffffffffffffffffffffffffffffff19167bffffffffffffffffffffffffffffffffffffffffffffffffffffffff1916815260200190815260200160002060009054906101000a900460ff169050919050565b60135481565b606060098054600181600116156101000203166002900480601f01602080910402602001604051908101604052809291908181526020018280546001816001161561010002031660029004801561143e5780601f106114135761010080835404028352916020019161143e565b820191906000526020600020905b81548152906001019060200180831161142157829003601f168201915b5050505050905090565b600061145382612c59565b6114a8576040517f08c379a000000000000000000000000000000000000000000000000000000000815260040180806020018281038252602c815260200180614194602c913960400191505060405180910390fd5b6002600083815260200190815260200160002060009054906101000a900473ffffffffffffffffffffffffffffffffffffffff169050919050565b60006114ee826119c0565b90508073ffffffffffffffffffffffffffffffffffffffff168373ffffffffffffffffffffffffffffffffffffffff161415611575576040517f08c379a00000000000000000000000000000000000000000000000000000000081526004018080602001828103825260218152602001806142186021913960400191505060405180910390fd5b8073ffffffffffffffffffffffffffffffffffffffff16611594612ccb565b73ffffffffffffffffffffffffffffffffffffffff1614806115c357506115c2816115bd612ccb565b6127c9565b5b611618576040517f08c379a00000000000000000000000000000000000000000000000000000000081526004018080602001828103825260388152602001806140e86038913960400191505060405180910390fd5b826002600084815260200190815260200160002060006101000a81548173ffffffffffffffffffffffffffffffffffffffff021916908373ffffffffffffffffffffffffffffffffffffffff160217905550818373ffffffffffffffffffffffffffffffffffffffff168273ffffffffffffffffffffffffffffffffffffffff167f8c5be1e5ebec7d5bd14f71427d1e84f3dd0314c0f7b2291e5b200ac8c7c3b92560405160405180910390a4505050565b6000600780549050905090565b60008060196000848152602001908152602001600020600101549050600080600090505b82811161173c5761172d601a600060125481526020019081526020016000206002015483612cd390919063ffffffff16565b915080806001019150506116fb565b505050919050565b61175561174f612ccb565b82612d5b565b6117aa576040517f08c379a00000000000000000000000000000000000000000000000000000000081526004018080602001828103825260318152602001806142396031913960400191505060405180910390fd5b6117b5838383612e4f565b505050565b60185481565b60006117cb83611d20565b8210611822576040517f08c379a000000000000000000000000000000000000000000000000000000000815260040180806020018281038252602b81526020018061403b602b913960400191505060405180910390fd5b600560008473ffffffffffffffffffffffffffffffffffffffff1673ffffffffffffffffffffffffffffffffffffffff168152602001908152602001600020828154811061186c57fe5b9060005260206000200154905092915050565b60155481565b6118a083838360405180602001604052806000815250612178565b505050565b60165481565b60006118b56116ca565b821061190c576040517f08c379a000000000000000000000000000000000000000000000000000000000815260040180806020018281038252602c81526020018061426a602c913960400191505060405180910390fd5b6007828154811061191957fe5b90600052602060002001549050919050565b6060601b60003373ffffffffffffffffffffffffffffffffffffffff1673ffffffffffffffffffffffffffffffffffffffff1681526020019081526020016000208054806020026020016040519081016040528092919081815260200182805480156119b657602002820191906000526020600020905b8154815260200190600101908083116119a2575b5050505050905090565b6000806001600084815260200190815260200160002060009054906101000a900473ffffffffffffffffffffffffffffffffffffffff169050600073ffffffffffffffffffffffffffffffffffffffff168173ffffffffffffffffffffffffffffffffffffffff161415611a7f576040517f08c379a000000000000000000000000000000000000000000000000000000000815260040180806020018281038252602981526020018061414a6029913960400191505060405180910390fd5b80915050919050565b6000806000611a96846116d7565b90506000601960008681526020019081526020016000206001015490506000611ac9600183612cd390919063ffffffff16565b90505b6012548111611b8b576000611ae082610d97565b90506000611af78583612a6f90919063ffffffff16565b9050611b0c8187612cd390919063ffffffff16565b9550611b37601a60008581526020019081526020016000206002015486612cd390919063ffffffff16565b9450611b6281601a600086815260200190815260200160002060010154612cd390919063ffffffff16565b601a60008581526020019081526020016000206001018190555050508080600101915050611acc565b50829350505050919050565b6060600b8054600181600116156101000203166002900480601f016020809104026020016040519081016040528092919081815260200182805460018160011615610100020316600290048015611c2f5780601f10611c0457610100808354040283529160200191611c2f565b820191906000526020600020905b815481529060010190602001808311611c1257829003601f168201915b5050505050905090565b6000600e60009054906101000a900473ffffffffffffffffffffffffffffffffffffffff1673ffffffffffffffffffffffffffffffffffffffff166370a08231306040518263ffffffff1660e01b8152600401808273ffffffffffffffffffffffffffffffffffffffff1673ffffffffffffffffffffffffffffffffffffffff16815260200191505060206040518083038186803b158015611cda57600080fd5b505afa158015611cee573d6000803e3d6000fd5b505050506040513d6020811015611d0457600080fd5b8101908080519060200190929190505050905090565b60115481565b60008073ffffffffffffffffffffffffffffffffffffffff168273ffffffffffffffffffffffffffffffffffffffff161415611da7576040517f08c379a000000000000000000000000000000000000000000000000000000000815260040180806020018281038252602a815260200180614120602a913960400191505060405180910390fd5b611dee600360008473ffffffffffffffffffffffffffffffffffffffff1673ffffffffffffffffffffffffffffffffffffffff168152602001908152602001600020612e73565b9050919050565b6000806000611e03846116d7565b90506000601960008681526020019081526020016000206001015490506000611e36600183612cd390919063ffffffff16565b90505b6012548111611eb5576000611e4d82610d97565b90506000611e648583612a6f90919063ffffffff16565b9050611e798187612cd390919063ffffffff16565b9550611ea4601a60008581526020019081526020016000206002015486612cd390919063ffffffff16565b945050508080600101915050611e39565b50829350505050919050565b6060600a8054600181600116156101000203166002900480601f016020809104026020016040519081016040528092919081815260200182805460018160011615610100020316600290048015611f595780601f10611f2e57610100808354040283529160200191611f59565b820191906000526020600020905b815481529060010190602001808311611f3c57829003601f168201915b5050505050905090565b60125481565b68056bc75e2d6310000081565b611f7e612ccb565b73ffffffffffffffffffffffffffffffffffffffff168273ffffffffffffffffffffffffffffffffffffffff16141561201f576040517f08c379a00000000000000000000000000000000000000000000000000000000081526004018080602001828103825260198152602001807f4552433732313a20617070726f766520746f2063616c6c65720000000000000081525060200191505060405180910390fd5b806004600061202c612ccb565b73ffffffffffffffffffffffffffffffffffffffff1673ffffffffffffffffffffffffffffffffffffffff16815260200190815260200160002060008473ffffffffffffffffffffffffffffffffffffffff1673ffffffffffffffffffffffffffffffffffffffff16815260200190815260200160002060006101000a81548160ff0219169083151502179055508173ffffffffffffffffffffffffffffffffffffffff166120d9612ccb565b73ffffffffffffffffffffffffffffffffffffffff167f17307eab39ab6107e8899845ad3d59bd9653f200f220920489ca2b5937696c3183604051808215151515815260200191505060405180910390a35050565b60196020528060005260406000206000915090508060000154908060010154905082565b600060196000838152602001908152602001600020600001549050919050565b60145481565b612189612183612ccb565b83612d5b565b6121de576040517f08c379a00000000000000000000000000000000000000000000000000000000081526004018080602001828103825260318152602001806142396031913960400191505060405180910390fd5b6121ea84848484612e81565b50505050565b60606121fb82612c59565b612250576040517f08c379a000000000000000000000000000000000000000000000000000000000815260040180806020018281038252602f8152602001806141e9602f913960400191505060405180910390fd5b6060600c60008481526020019081526020016000208054600181600116156101000203166002900480601f0160208091040260200160405190810160405280929190818152602001828054600181600116156101000203166002900480156122f95780601f106122ce576101008083540402835291602001916122f9565b820191906000526020600020905b8154815290600101906020018083116122dc57829003601f168201915b5050505050905060008151141561232257604051806020016040528060008152509150506123ed565b600b8160405160200180838054600181600116156101000203166002900480156123835780601f10612361576101008083540402835291820191612383565b820191906000526020600020905b81548152906001019060200180831161236f575b505082805190602001908083835b602083106123b45780518252602082019150602081019050602083039250612391565b6001836020036101000a038019825116818451168082178552505050505050905001925050506040516020818303038152906040529150505b919050565b60175481565b601b60003373ffffffffffffffffffffffffffffffffffffffff1673ffffffffffffffffffffffffffffffffffffffff16815260200190815260200160002060115490806001815401808255809150509060018203906000526020600020016000909192909190915055504260196000601154815260200190815260200160002060000181905550601254601960006011548152602001908152602001600020600101819055506124ef6124b86001601154612cd390919063ffffffff16565b6124e1426124d360115460135461299f90919063ffffffff16565b612cd390919063ffffffff16565b612a6f90919063ffffffff16565b60138190555061250060115461288d565b600d60009054906101000a900473ffffffffffffffffffffffffffffffffffffffff1673ffffffffffffffffffffffffffffffffffffffff1663a0712d6868056bc75e2d631000006040518263ffffffff1660e01b815260040180828152602001915050600060405180830381600087803b15801561257e57600080fd5b505af1158015612592573d6000803e3d6000fd5b50505050600d60009054906101000a900473ffffffffffffffffffffffffffffffffffffffff1673ffffffffffffffffffffffffffffffffffffffff1663095ea7b3601060009054906101000a900473ffffffffffffffffffffffffffffffffffffffff1668056bc75e2d631000006040518363ffffffff1660e01b8152600401808373ffffffffffffffffffffffffffffffffffffffff1673ffffffffffffffffffffffffffffffffffffffff16815260200182815260200192505050602060405180830381600087803b15801561266a57600080fd5b505af115801561267e573d6000803e3d6000fd5b505050506040513d602081101561269457600080fd5b810190808051906020019092919050505050600f60009054906101000a900473ffffffffffffffffffffffffffffffffffffffff1673ffffffffffffffffffffffffffffffffffffffff1663d2d0e066600d60009054906101000a900473ffffffffffffffffffffffffffffffffffffffff1668056bc75e2d6310000060006040518463ffffffff1660e01b8152600401808473ffffffffffffffffffffffffffffffffffffffff1673ffffffffffffffffffffffffffffffffffffffff1681526020018381526020018261ffff1681526020019350505050600060405180830381600087803b15801561278757600080fd5b505af115801561279b573d6000803e3d6000fd5b505050506127ab33601154612ef3565b6127c16001601154612cd390919063ffffffff16565b601181905550565b6000600460008473ffffffffffffffffffffffffffffffffffffffff1673ffffffffffffffffffffffffffffffffffffffff16815260200190815260200160002060008373ffffffffffffffffffffffffffffffffffffffff1673ffffffffffffffffffffffffffffffffffffffff16815260200190815260200160002060009054906101000a900460ff16905092915050565b601a6020528060005260406000206000915090508060000154908060010154908060020154908060030154905084565b6000601a600060125481526020019081526020016000206002015490506000601a600060125481526020019081526020016000206003015490506000601a600060125481526020019081526020016000206000015490508183101561298757612900600184612cd390919063ffffffff16565b601a6000601254815260200190815260200160002060020181905550612966612933600185612cd390919063ffffffff16565b6129584261294a878661299f90919063ffffffff16565b612cd390919063ffffffff16565b612a6f90919063ffffffff16565b601a6000601254815260200190815260200160002060000181905550612999565b61298f612f14565b6129988461288d565b5b50505050565b6000808314156129b25760009050612a1f565b60008284029050828482816129c357fe5b0414612a1a576040517f08c379a00000000000000000000000000000000000000000000000000000000081526004018080602001828103825260218152602001806141736021913960400191505060405180910390fd5b809150505b92915050565b6000612a6783836040518060400160405280601e81526020017f536166654d6174683a207375627472616374696f6e206f766572666c6f770000815250612f99565b905092915050565b6000612ab183836040518060400160405280601a81526020017f536166654d6174683a206469766973696f6e206279207a65726f000000000000815250613059565b905092915050565b6000612ac482611a88565b9050600e60009054906101000a900473ffffffffffffffffffffffffffffffffffffffff1673ffffffffffffffffffffffffffffffffffffffff1663db006a75826040518263ffffffff1660e01b815260040180828152602001915050600060405180830381600087803b158015612b3b57600080fd5b505af1158015612b4f573d6000803e3d6000fd5b50505050600d60009054906101000a900473ffffffffffffffffffffffffffffffffffffffff1673ffffffffffffffffffffffffffffffffffffffff1663a9059cbb612b9a846119c0565b836040518363ffffffff1660e01b8152600401808373ffffffffffffffffffffffffffffffffffffffff1673ffffffffffffffffffffffffffffffffffffffff16815260200182815260200192505050602060405180830381600087803b158015612c0457600080fd5b505af1158015612c18573d6000803e3d6000fd5b505050506040513d6020811015612c2e57600080fd5b8101908080519060200190929190505050505050565b612c56612c50826119c0565b8261311f565b50565b6000806001600084815260200190815260200160002060009054906101000a900473ffffffffffffffffffffffffffffffffffffffff169050600073ffffffffffffffffffffffffffffffffffffffff168173ffffffffffffffffffffffffffffffffffffffff161415915050919050565b600033905090565b600080828401905083811015612d51576040517f08c379a000000000000000000000000000000000000000000000000000000000815260040180806020018281038252601b8152602001807f536166654d6174683a206164646974696f6e206f766572666c6f77000000000081525060200191505060405180910390fd5b8091505092915050565b6000612d6682612c59565b612dbb576040517f08c379a000000000000000000000000000000000000000000000000000000000815260040180806020018281038252602c8152602001806140bc602c913960400191505060405180910390fd5b6000612dc6836119c0565b90508073ffffffffffffffffffffffffffffffffffffffff168473ffffffffffffffffffffffffffffffffffffffff161480612e3557508373ffffffffffffffffffffffffffffffffffffffff16612e1d84611448565b73ffffffffffffffffffffffffffffffffffffffff16145b80612e465750612e4581856127c9565b5b91505092915050565b612e5a83838361317c565b612e6483826133d7565b612e6e8282613575565b505050565b600081600001549050919050565b612e8c848484612e4f565b612e988484848461363c565b612eed576040517f08c379a00000000000000000000000000000000000000000000000000000000081526004018080602001828103825260328152602001806140666032913960400191505060405180910390fd5b50505050565b612efd8282613978565b612f078282613575565b612f1081613b90565b5050565b6000601a600060125481526020019081526020016000206003015490506000612f5a6009612f4c600a8561299f90919063ffffffff16565b612a6f90919063ffffffff16565b9050612f726001601254612cd390919063ffffffff16565b60128190555080601a60006012548152602001908152602001600020600301819055505050565b6000838311158290613046576040517f08c379a00000000000000000000000000000000000000000000000000000000081526004018080602001828103825283818151815260200191508051906020019080838360005b8381101561300b578082015181840152602081019050612ff0565b50505050905090810190601f1680156130385780820380516001836020036101000a031916815260200191505b509250505060405180910390fd5b5060008385039050809150509392505050565b60008083118290613105576040517f08c379a00000000000000000000000000000000000000000000000000000000081526004018080602001828103825283818151815260200191508051906020019080838360005b838110156130ca5780820151818401526020810190506130af565b50505050905090810190601f1680156130f75780820380516001836020036101000a031916815260200191505b509250505060405180910390fd5b50600083858161311157fe5b049050809150509392505050565b6131298282613bdc565b6000600c60008381526020019081526020016000208054600181600116156101000203166002900490501461317857600c600082815260200190815260200160002060006131779190613fa1565b5b5050565b8273ffffffffffffffffffffffffffffffffffffffff1661319c826119c0565b73ffffffffffffffffffffffffffffffffffffffff1614613208576040517f08c379a00000000000000000000000000000000000000000000000000000000081526004018080602001828103825260298152602001806141c06029913960400191505060405180910390fd5b600073ffffffffffffffffffffffffffffffffffffffff168273ffffffffffffffffffffffffffffffffffffffff16141561328e576040517f08c379a00000000000000000000000000000000000000000000000000000000081526004018080602001828103825260248152602001806140986024913960400191505060405180910390fd5b61329781613c16565b6132de600360008573ffffffffffffffffffffffffffffffffffffffff1673ffffffffffffffffffffffffffffffffffffffff168152602001908152602001600020613cd4565b613325600360008473ffffffffffffffffffffffffffffffffffffffff1673ffffffffffffffffffffffffffffffffffffffff168152602001908152602001600020613cf7565b816001600083815260200190815260200160002060006101000a81548173ffffffffffffffffffffffffffffffffffffffff021916908373ffffffffffffffffffffffffffffffffffffffff160217905550808273ffffffffffffffffffffffffffffffffffffffff168473ffffffffffffffffffffffffffffffffffffffff167fddf252ad1be2c89b69c2b068fc378daa952ba7f163c4a11628f55a4df523b3ef60405160405180910390a4505050565b600061342f6001600560008673ffffffffffffffffffffffffffffffffffffffff1673ffffffffffffffffffffffffffffffffffffffff16815260200190815260200160002080549050612a2590919063ffffffff16565b905060006006600084815260200190815260200160002054905081811461351c576000600560008673ffffffffffffffffffffffffffffffffffffffff1673ffffffffffffffffffffffffffffffffffffffff168152602001908152602001600020838154811061349c57fe5b9060005260206000200154905080600560008773ffffffffffffffffffffffffffffffffffffffff1673ffffffffffffffffffffffffffffffffffffffff16815260200190815260200160002083815481106134f457fe5b9060005260206000200181905550816006600083815260200190815260200160002081905550505b600560008573ffffffffffffffffffffffffffffffffffffffff1673ffffffffffffffffffffffffffffffffffffffff16815260200190815260200160002080548091906001900361356e9190613fe9565b5050505050565b600560008373ffffffffffffffffffffffffffffffffffffffff1673ffffffffffffffffffffffffffffffffffffffff168152602001908152602001600020805490506006600083815260200190815260200160002081905550600560008373ffffffffffffffffffffffffffffffffffffffff1673ffffffffffffffffffffffffffffffffffffffff1681526020019081526020016000208190806001815401808255809150509060018203906000526020600020016000909192909190915055505050565b600061365d8473ffffffffffffffffffffffffffffffffffffffff16613d0d565b61366a5760019050613970565b600060608573ffffffffffffffffffffffffffffffffffffffff168673ffffffffffffffffffffffffffffffffffffffff1663150b7a02905060e01b6136ae612ccb565b898888604051602401808573ffffffffffffffffffffffffffffffffffffffff1673ffffffffffffffffffffffffffffffffffffffff1681526020018473ffffffffffffffffffffffffffffffffffffffff1673ffffffffffffffffffffffffffffffffffffffff16815260200183815260200180602001828103825283818151815260200191508051906020019080838360005b8381101561375e578082015181840152602081019050613743565b50505050905090810190601f16801561378b5780820380516001836020036101000a031916815260200191505b5095505050505050604051602081830303815290604052907bffffffffffffffffffffffffffffffffffffffffffffffffffffffff19166020820180517bffffffffffffffffffffffffffffffffffffffffffffffffffffffff83818316178352505050506040518082805190602001908083835b602083106138235780518252602082019150602081019050602083039250613800565b6001836020036101000a0380198251168184511680821785525050505050509050019150506000604051808303816000865af19150503d8060008114613885576040519150601f19603f3d011682016040523d82523d6000602084013e61388a565b606091505b5091509150816138f8576000815111156138a75780518082602001fd5b6040517f08c379a00000000000000000000000000000000000000000000000000000000081526004018080602001828103825260328152602001806140666032913960400191505060405180910390fd5b600081806020019051602081101561390f57600080fd5b8101908080519060200190929190505050905063150b7a0260e01b7bffffffffffffffffffffffffffffffffffffffffffffffffffffffff1916817bffffffffffffffffffffffffffffffffffffffffffffffffffffffff19161493505050505b949350505050565b600073ffffffffffffffffffffffffffffffffffffffff168273ffffffffffffffffffffffffffffffffffffffff161415613a1b576040517f08c379a00000000000000000000000000000000000000000000000000000000081526004018080602001828103825260208152602001807f4552433732313a206d696e7420746f20746865207a65726f206164647265737381525060200191505060405180910390fd5b613a2481612c59565b15613a97576040517f08c379a000000000000000000000000000000000000000000000000000000000815260040180806020018281038252601c8152602001807f4552433732313a20746f6b656e20616c7265616479206d696e7465640000000081525060200191505060405180910390fd5b816001600083815260200190815260200160002060006101000a81548173ffffffffffffffffffffffffffffffffffffffff021916908373ffffffffffffffffffffffffffffffffffffffff160217905550613b30600360008473ffffffffffffffffffffffffffffffffffffffff1673ffffffffffffffffffffffffffffffffffffffff168152602001908152602001600020613cf7565b808273ffffffffffffffffffffffffffffffffffffffff16600073ffffffffffffffffffffffffffffffffffffffff167fddf252ad1be2c89b69c2b068fc378daa952ba7f163c4a11628f55a4df523b3ef60405160405180910390a45050565b6007805490506008600083815260200190815260200160002081905550600781908060018154018082558091505090600182039060005260206000200160009091929091909150555050565b613be68282613d58565b613bf082826133d7565b60006006600083815260200190815260200160002081905550613c1281613ee7565b5050565b600073ffffffffffffffffffffffffffffffffffffffff166002600083815260200190815260200160002060009054906101000a900473ffffffffffffffffffffffffffffffffffffffff1673ffffffffffffffffffffffffffffffffffffffff1614613cd15760006002600083815260200190815260200160002060006101000a81548173ffffffffffffffffffffffffffffffffffffffff021916908373ffffffffffffffffffffffffffffffffffffffff1602179055505b50565b613cec60018260000154612a2590919063ffffffff16565b816000018190555050565b6001816000016000828254019250508190555050565b60008060007fc5d2460186f7233c927e7db2dcc703c0e500b653ca82273b7bfad8045d85a47060001b9050833f9150808214158015613d4f57506000801b8214155b92505050919050565b8173ffffffffffffffffffffffffffffffffffffffff16613d78826119c0565b73ffffffffffffffffffffffffffffffffffffffff1614613de4576040517f08c379a00000000000000000000000000000000000000000000000000000000081526004018080602001828103825260258152602001806142966025913960400191505060405180910390fd5b613ded81613c16565b613e34600360008473ffffffffffffffffffffffffffffffffffffffff1673ffffffffffffffffffffffffffffffffffffffff168152602001908152602001600020613cd4565b60006001600083815260200190815260200160002060006101000a81548173ffffffffffffffffffffffffffffffffffffffff021916908373ffffffffffffffffffffffffffffffffffffffff16021790555080600073ffffffffffffffffffffffffffffffffffffffff168373ffffffffffffffffffffffffffffffffffffffff167fddf252ad1be2c89b69c2b068fc378daa952ba7f163c4a11628f55a4df523b3ef60405160405180910390a45050565b6000613f026001600780549050612a2590919063ffffffff16565b9050600060086000848152602001908152602001600020549050600060078381548110613f2b57fe5b906000526020600020015490508060078381548110613f4657fe5b90600052602060002001819055508160086000838152602001908152602001600020819055506007805480919060019003613f819190613fe9565b506000600860008681526020019081526020016000208190555050505050565b50805460018160011615610100020316600290046000825580601f10613fc75750613fe6565b601f016020900490600052602060002090810190613fe59190614015565b5b50565b8154818355818111156140105781836000526020600020918201910161400f9190614015565b5b505050565b61403791905b8082111561403357600081600090555060010161401b565b5090565b9056fe455243373231456e756d657261626c653a206f776e657220696e646578206f7574206f6620626f756e64734552433732313a207472616e7366657220746f206e6f6e20455243373231526563656976657220696d706c656d656e7465724552433732313a207472616e7366657220746f20746865207a65726f20616464726573734552433732313a206f70657261746f7220717565727920666f72206e6f6e6578697374656e7420746f6b656e4552433732313a20617070726f76652063616c6c6572206973206e6f74206f776e6572206e6f7220617070726f76656420666f7220616c6c4552433732313a2062616c616e636520717565727920666f7220746865207a65726f20616464726573734552433732313a206f776e657220717565727920666f72206e6f6e6578697374656e7420746f6b656e536166654d6174683a206d756c7469706c69636174696f6e206f766572666c6f774552433732313a20617070726f76656420717565727920666f72206e6f6e6578697374656e7420746f6b656e4552433732313a207472616e73666572206f6620746f6b656e2074686174206973206e6f74206f776e4552433732314d657461646174613a2055524920717565727920666f72206e6f6e6578697374656e7420746f6b656e4552433732313a20617070726f76616c20746f2063757272656e74206f776e65724552433732313a207472616e736665722063616c6c6572206973206e6f74206f776e6572206e6f7220617070726f766564455243373231456e756d657261626c653a20676c6f62616c20696e646578206f7574206f6620626f756e64734552433732313a206275726e206f6620746f6b656e2074686174206973206e6f74206f776ea265627a7a72315820c2ad03ddbd1a131df56f1572b6a7e598b77fb32024a16043df0dcaa3e357bb2164736f6c634300050c0032",
  "source": "pragma solidity >=0.4.21 <0.7.0;\n\nimport \"@openzeppelin/contracts/token/ERC721/ERC721Full.sol\";\nimport \"@openzeppelin/contracts/math/SafeMath.sol\";\n\n/// @title Dai contract interface\n/// @notice Various cash functions\ninterface Cash \n{\n    function approve(address _spender, uint _amount) external returns (bool);\n    function balanceOf(address _ownesr) external view returns (uint);\n    function mint(uint256) external;\n    function transfer(address _to, uint _amount) external returns (bool);\n}\n\ninterface IaToken \n{\n    function balanceOf(address _user) external view returns(uint);\n    function redeem(uint256 _amount) external;\n}\n\ninterface IAaveLendingPool \n{\n    function deposit( address _reserve, uint256 _amount, uint16 _referralCode) external;\n}\n\ninterface IAaveLendingPoolCore {}\n\ncontract PonziHodlFactory is ERC721Full {\n\n    using SafeMath for uint;\n\n    Cash underlying;\n    IaToken aToken;\n    IAaveLendingPool aaveLendingPool;\n    IAaveLendingPoolCore aaveLendingPoolCore;\n\n    constructor(address _cashAddress, address _aTokenAddress, address _aaveLpAddress, address _aaveLpcoreAddress ) ERC721Full(\"HodlFactory\", \"HODL++\") public { \n        underlying = Cash(_cashAddress);\n        aToken = IaToken(_aTokenAddress); \n        aaveLendingPool = IAaveLendingPool(_aaveLpAddress); \n        aaveLendingPoolCore = IAaveLendingPoolCore(_aaveLpcoreAddress); \n\n        //create first tier\n        tierProperties[0].size = 10;\n    }\n\n    uint public hodlCount = 0;\n    uint public tierCount = 0;\n    uint public averagePurchaseTime = 0;\n    uint constant public oneHundredDai = 10**20;\n    uint public testingVariableA = 69;\n    uint public testingVariableB = 0;\n    uint public testingVariableC = 0;\n    uint public testingVariableD = 0;\n    uint public testingVariableE = 0;\n\n    struct hodl {\n        uint purchaseTime;\n        uint tier;\n    }\n\n    struct tier {\n        uint averagePurchaseTime;\n        uint interestAlreadyWithdrawn;\n        uint hodlsInTier;\n        uint size;\n    }\n\n    mapping (uint => hodl) public hodlProperties; \n    mapping (uint => tier) public tierProperties; \n    mapping (address => uint[]) hodlOwnerTracker;\n\n    event stfu(uint indexed stfu);\n\n    function getHodlPurchaseTime(uint _hodlId) external view returns (uint) {\n        return hodlProperties[_hodlId].purchaseTime;\n    }\n\n    function getAdaiBalance() public view returns (uint) {\n        return(aToken.balanceOf(address(this)));\n    }\n\n    function getHodlsOwned() public view returns(uint[] memory) {\n        return(hodlOwnerTracker[msg.sender]);\n    }\n\n    function _createNewTier() internal {\n        uint _sizeOfBiggestTier = tierProperties[tierCount].size;\n        uint _newSize = (_sizeOfBiggestTier.mul(10)).div(9);\n        tierCount = tierCount.add(1);\n        tierProperties[tierCount].size = _newSize;\n    }\n\n    function addToTier(uint _hodlId) public {\n        //add to existing tier\n        uint _hodlsInTier = tierProperties[tierCount].hodlsInTier;\n        uint _sizeOfTier = tierProperties[tierCount].size;\n        uint _tierAveragePurchaseTime = tierProperties[tierCount].averagePurchaseTime;\n        if (_hodlsInTier < _sizeOfTier) {\n            tierProperties[tierCount].hodlsInTier = _hodlsInTier.add(1);\n            tierProperties[tierCount].averagePurchaseTime = ((_tierAveragePurchaseTime.mul(_hodlsInTier)).add(now)).div(_hodlsInTier.add(1));\n        } else {\n            _createNewTier();\n            addToTier(_hodlId);\n        }\n    }\n\n    function getPlayersMyTierOrBelow(uint _hodlId) public view returns (uint) {\n        uint _tier = hodlProperties[_hodlId].tier;\n        uint _playerCount;\n        for (uint i = 0; i <= _tier; i++) {\n            _playerCount = _playerCount.add(tierProperties[tierCount].hodlsInTier);\n        }\n    }\n\n    function createHodl() public {\n        // UPDATE VARIABLES\n        hodlOwnerTracker[msg.sender].push(hodlCount);\n        hodlProperties[hodlCount].purchaseTime = now;\n        hodlProperties[hodlCount].tier = tierCount;\n        averagePurchaseTime = ((averagePurchaseTime.mul(hodlCount)).add(now)).div(hodlCount.add(1));\n        addToTier(hodlCount);\n        // SWAP DAI FOR aDAI\n        underlying.mint(oneHundredDai);\n        underlying.approve(address(aaveLendingPoolCore), oneHundredDai);\n        aaveLendingPool.deposit(address(underlying), oneHundredDai, 0);\n        // // GENERATE NFT\n        _mint(msg.sender, hodlCount);\n        hodlCount = hodlCount.add(1);  \n    } \n\n    function getTierInterestAccrued(uint _tierId) public view returns (uint) {\n        uint _totalAdaiBalance = aToken.balanceOf(address(this)); \n        uint _totalDaiBalance = hodlCount.mul(oneHundredDai);\n        uint _totalInterestAvailable = _totalAdaiBalance.sub(_totalDaiBalance);\n        uint _hodlsInTier = tierProperties[_tierId].hodlsInTier;\n        uint _interestAlreadyWithdrawn = tierProperties[_tierId].interestAlreadyWithdrawn;\n        uint _numerator = _totalInterestAvailable.mul(now.sub(tierProperties[_tierId].averagePurchaseTime)).mul(_hodlsInTier);\n        uint _denominator = (now.sub(averagePurchaseTime)).mul(hodlCount);\n        return ((_numerator.div(_denominator)).sub(_interestAlreadyWithdrawn));\n    }\n\n    function getInterestAvailableToWithdrawView(uint _hodlId) public view returns (uint) {\n        uint _interestToWithdraw;\n        uint _playerCount = getPlayersMyTierOrBelow(_hodlId);\n        uint _tier = hodlProperties[_hodlId].tier;\n        for (uint i = _tier.add(1); i <= tierCount; i++) {\n            uint _tierInterestAccrued = getTierInterestAccrued(i);\n            uint _interestToWithdrawFromThisTier = _tierInterestAccrued.div(_playerCount);\n            _interestToWithdraw = _interestToWithdraw.add(_interestToWithdrawFromThisTier);\n            _playerCount = _playerCount.add(tierProperties[i].hodlsInTier);\n        }\n        return _interestToWithdraw;\n    }\n\n    function getInterestAvailableToWithdraw(uint _hodlId) public returns (uint) {\n        uint _interestToWithdraw;\n        uint _playerCount = getPlayersMyTierOrBelow(_hodlId);\n        uint _tier = hodlProperties[_hodlId].tier;\n        for (uint i = _tier.add(1); i <= tierCount; i++) {\n            uint _tierInterestAccrued = getTierInterestAccrued(i);\n            uint _interestToWithdrawFromThisTier = _tierInterestAccrued.div(_playerCount);\n            _interestToWithdraw = _interestToWithdraw.add(_interestToWithdrawFromThisTier);\n            _playerCount = _playerCount.add(tierProperties[i].hodlsInTier);\n            tierProperties[i].interestAlreadyWithdrawn = tierProperties[i].interestAlreadyWithdrawn.add(_interestToWithdrawFromThisTier);\n        }\n        return _interestToWithdraw;\n    }\n\n    function _withdrawInterest(uint _hodlId) internal {\n        uint _interestToWithdraw = getInterestAvailableToWithdraw(_hodlId);\n        aToken.redeem(_interestToWithdraw);\n        underlying.transfer(ownerOf(_hodlId), _interestToWithdraw);\n    } \n\n    function destroyHodl(uint _hodlId) public {\n        require (ownerOf(_hodlId) == msg.sender, \"Not owner\");\n        _withdrawInterest(_hodlId);\n        // remove HODL from tier\n        uint _tier = hodlProperties[_hodlId].tier;\n        uint _hodlsInTier = tierProperties[_tier].hodlsInTier;\n        uint _tierAveragePurchaseTime = tierProperties[_tier].averagePurchaseTime;\n        if (_hodlsInTier > 1) {\n            tierProperties[_tier].averagePurchaseTime = ((_tierAveragePurchaseTime.mul(_hodlsInTier)).sub(hodlProperties[_hodlId].purchaseTime)).div(_hodlsInTier.sub(1));\n        } else {\n            tierProperties[_tier].averagePurchaseTime = 0;\n        }\n        tierProperties[_tier].hodlsInTier = tierProperties[_tier].hodlsInTier.sub(1);\n        // external calls\n        aToken.redeem(oneHundredDai);\n        underlying.transfer(ownerOf(_hodlId), oneHundredDai);\n        // remove HODL\n        hodlCount = hodlCount.sub(1);\n        _burn(_hodlId);\n    }\n\n}\n",
  "sourcePath": "/Users/mcplums/Repos/HodlFactory/contracts/PonziHodlFactory.sol",
  "compiler": {
    "name": "solc",
    "version": "0.5.12+commit.7709ece9.Emscripten.clang"
  },
  "schemaVersion": "3.0.19",
  "updatedAt": "2020-04-20T13:45:58.046Z",
  "devdoc": {
    "methods": {
      "approve(address,uint256)": {
        "details": "Approves another address to transfer the given token ID The zero address indicates there is no approved address. There can only be one approved address per token at a given time. Can only be called by the token owner or an approved operator.",
        "params": {
          "to": "address to be approved for the given token ID",
          "tokenId": "uint256 ID of the token to be approved"
        }
      },
      "balanceOf(address)": {
        "details": "Gets the balance of the specified address.",
        "params": {
          "owner": "address to query the balance of"
        },
        "return": "uint256 representing the amount owned by the passed address"
      },
      "baseURI()": {
        "details": "Returns the base URI set via {_setBaseURI}. This will be automatically added as a preffix in {tokenURI} to each token's URI, when they are non-empty.    * _Available since v2.5.0._"
      },
      "getApproved(uint256)": {
        "details": "Gets the approved address for a token ID, or zero if no address set Reverts if the token ID does not exist.",
        "params": {
          "tokenId": "uint256 ID of the token to query the approval of"
        },
        "return": "address currently approved for the given token ID"
      },
      "isApprovedForAll(address,address)": {
        "details": "Tells whether an operator is approved by a given owner.",
        "params": {
          "operator": "operator address which you want to query the approval of",
          "owner": "owner address which you want to query the approval of"
        },
        "return": "bool whether the given operator is approved by the given owner"
      },
      "name()": {
        "details": "Gets the token name.",
        "return": "string representing the token name"
      },
      "ownerOf(uint256)": {
        "details": "Gets the owner of the specified token ID.",
        "params": {
          "tokenId": "uint256 ID of the token to query the owner of"
        },
        "return": "address currently marked as the owner of the given token ID"
      },
      "safeTransferFrom(address,address,uint256)": {
        "details": "Safely transfers the ownership of a given token ID to another address If the target address is a contract, it must implement {IERC721Receiver-onERC721Received}, which is called upon a safe transfer, and return the magic value `bytes4(keccak256(\"onERC721Received(address,address,uint256,bytes)\"))`; otherwise, the transfer is reverted. Requires the msg.sender to be the owner, approved, or operator",
        "params": {
          "from": "current owner of the token",
          "to": "address to receive the ownership of the given token ID",
          "tokenId": "uint256 ID of the token to be transferred"
        }
      },
      "safeTransferFrom(address,address,uint256,bytes)": {
        "details": "Safely transfers the ownership of a given token ID to another address If the target address is a contract, it must implement {IERC721Receiver-onERC721Received}, which is called upon a safe transfer, and return the magic value `bytes4(keccak256(\"onERC721Received(address,address,uint256,bytes)\"))`; otherwise, the transfer is reverted. Requires the _msgSender() to be the owner, approved, or operator",
        "params": {
          "_data": "bytes data to send along with a safe transfer check",
          "from": "current owner of the token",
          "to": "address to receive the ownership of the given token ID",
          "tokenId": "uint256 ID of the token to be transferred"
        }
      },
      "setApprovalForAll(address,bool)": {
        "details": "Sets or unsets the approval of a given operator An operator is allowed to transfer all tokens of the sender on their behalf.",
        "params": {
          "approved": "representing the status of the approval to be set",
          "to": "operator address to set the approval"
        }
      },
      "supportsInterface(bytes4)": {
        "details": "See {IERC165-supportsInterface}.     * Time complexity O(1), guaranteed to always use less than 30 000 gas."
      },
      "symbol()": {
        "details": "Gets the token symbol.",
        "return": "string representing the token symbol"
      },
      "tokenByIndex(uint256)": {
        "details": "Gets the token ID at a given index of all the tokens in this contract Reverts if the index is greater or equal to the total number of tokens.",
        "params": {
          "index": "uint256 representing the index to be accessed of the tokens list"
        },
        "return": "uint256 token ID at the given index of the tokens list"
      },
      "tokenOfOwnerByIndex(address,uint256)": {
        "details": "Gets the token ID at a given index of the tokens list of the requested owner.",
        "params": {
          "index": "uint256 representing the index to be accessed of the requested tokens list",
          "owner": "address owning the tokens list to be accessed"
        },
        "return": "uint256 token ID at the given index of the tokens list owned by the requested address"
      },
      "tokenURI(uint256)": {
        "details": "Returns the URI for a given token ID. May return an empty string.     * If the token's URI is non-empty and a base URI was set (via {_setBaseURI}), it will be added to the token ID's URI as a prefix.     * Reverts if the token ID does not exist."
      },
      "totalSupply()": {
        "details": "Gets the total amount of tokens stored by the contract.",
        "return": "uint256 representing the total amount of tokens"
      },
      "transferFrom(address,address,uint256)": {
        "details": "Transfers the ownership of a given token ID to another address. Usage of this method is discouraged, use {safeTransferFrom} whenever possible. Requires the msg.sender to be the owner, approved, or operator.",
        "params": {
          "from": "current owner of the token",
          "to": "address to receive the ownership of the given token ID",
          "tokenId": "uint256 ID of the token to be transferred"
        }
      }
    }
  },
  "userdoc": {
    "methods": {}
  }
}