{
  "contractName": "SimpleStorage2",
  "abi": [
    {
      "constant": true,
      "inputs": [],
      "name": "storedData2",
      "outputs": [
        {
          "internalType": "uint256",
          "name": "",
          "type": "uint256"
        }
      ],
      "payable": false,
      "stateMutability": "view",
      "type": "function"
    }
  ],
  "bytecode": "0x60806040526045600055348015601457600080fd5b506084806100236000396000f3fe6080604052348015600f57600080fd5b506004361060285760003560e01c80633dc2692814602d575b600080fd5b60336049565b6040518082815260200191505060405180910390f35b6000548156fea265627a7a723158209cbb2057be275bdb70adffa6557b6191abb0a24822b4a820ccb203db4176a65364736f6c634300050c0032",
  "source": "pragma solidity >=0.4.21 <0.7.0;\n\ncontract SimpleStorage2 {\n\n    uint256 public storedData2 = 69;\n\n}\n",
  "sourcePath": "/Users/mcplums/Repos/HodlFactory/contracts/SimpleStorage2.sol",
  "compiler": {
    "name": "solc",
    "version": "0.5.12+commit.7709ece9.Emscripten.clang"
  },
  "schemaVersion": "3.0.19",
  "updatedAt": "2020-04-01T15:29:11.557Z",
  "networkType": "ethereum",
  "devdoc": {
    "methods": {}
  },
  "userdoc": {
    "methods": {}
  }
}