{
  "contractName": "WildcardsQV",
  "abi": [
    {
      "inputs": [
        {
          "internalType": "uint256",
          "name": "_votingInterval",
          "type": "uint256"
        },
        {
          "internalType": "contract ILoyaltyToken",
          "name": "_addressOfLoyalyTokenContract",
          "type": "address"
        },
        {
          "internalType": "contract IWildCardToken",
          "name": "_addressOfWildCardTokenContract",
          "type": "address"
        },
        {
          "internalType": "contract IWildCardSteward",
          "name": "_addressOfWildCardStewardContract",
          "type": "address"
        },
        {
          "internalType": "uint256",
          "name": "_dragonCardId",
          "type": "uint256"
        }
      ],
      "payable": false,
      "stateMutability": "nonpayable",
      "type": "constructor"
    },
    {
      "anonymous": false,
      "inputs": [
        {
          "indexed": true,
          "internalType": "uint256",
          "name": "fundsDistributed",
          "type": "uint256"
        },
        {
          "indexed": true,
          "internalType": "uint256",
          "name": "totalVotes",
          "type": "uint256"
        },
        {
          "indexed": false,
          "internalType": "uint256",
          "name": "winningVotes",
          "type": "uint256"
        },
        {
          "indexed": true,
          "internalType": "uint256",
          "name": "winningProposal",
          "type": "uint256"
        },
        {
          "indexed": false,
          "internalType": "uint256",
          "name": "newDeadline",
          "type": "uint256"
        },
        {
          "indexed": false,
          "internalType": "uint256",
          "name": "newIteration",
          "type": "uint256"
        }
      ],
      "name": "LogFundsDistributed",
      "type": "event"
    },
    {
      "anonymous": false,
      "inputs": [
        {
          "indexed": true,
          "internalType": "uint256",
          "name": "newInterval",
          "type": "uint256"
        }
      ],
      "name": "LogNewVotingInterval",
      "type": "event"
    },
    {
      "anonymous": false,
      "inputs": [
        {
          "indexed": true,
          "internalType": "uint256",
          "name": "newProposalId",
          "type": "uint256"
        },
        {
          "indexed": true,
          "internalType": "address",
          "name": "newProposalAddress",
          "type": "address"
        }
      ],
      "name": "LogProposalCreated",
      "type": "event"
    },
    {
      "anonymous": false,
      "inputs": [
        {
          "indexed": true,
          "internalType": "uint256",
          "name": "proposalIdUpdated",
          "type": "uint256"
        },
        {
          "indexed": false,
          "internalType": "bool",
          "name": "isActive",
          "type": "bool"
        }
      ],
      "name": "LogProposalStateChange",
      "type": "event"
    },
    {
      "anonymous": false,
      "inputs": [
        {
          "indexed": true,
          "internalType": "uint256",
          "name": "proposalVotedFor",
          "type": "uint256"
        },
        {
          "indexed": true,
          "internalType": "uint256",
          "name": "votesCast",
          "type": "uint256"
        },
        {
          "indexed": false,
          "internalType": "uint256",
          "name": "totalVotesForProposal",
          "type": "uint256"
        },
        {
          "indexed": false,
          "internalType": "uint256",
          "name": "totalVotesAllProposals",
          "type": "uint256"
        },
        {
          "indexed": true,
          "internalType": "address",
          "name": "addressOfVoter",
          "type": "address"
        }
      ],
      "name": "LogVote",
      "type": "event"
    },
    {
      "payable": true,
      "stateMutability": "payable",
      "type": "fallback"
    },
    {
      "constant": true,
      "inputs": [],
      "name": "admin",
      "outputs": [
        {
          "internalType": "address",
          "name": "",
          "type": "address"
        }
      ],
      "payable": false,
      "stateMutability": "view",
      "type": "function"
    },
    {
      "constant": true,
      "inputs": [],
      "name": "currentHighestVoteCount",
      "outputs": [
        {
          "internalType": "uint256",
          "name": "",
          "type": "uint256"
        }
      ],
      "payable": false,
      "stateMutability": "view",
      "type": "function"
    },
    {
      "constant": true,
      "inputs": [],
      "name": "currentWinner",
      "outputs": [
        {
          "internalType": "uint256",
          "name": "",
          "type": "uint256"
        }
      ],
      "payable": false,
      "stateMutability": "view",
      "type": "function"
    },
    {
      "constant": true,
      "inputs": [],
      "name": "dragonCardId",
      "outputs": [
        {
          "internalType": "uint256",
          "name": "",
          "type": "uint256"
        }
      ],
      "payable": false,
      "stateMutability": "view",
      "type": "function"
    },
    {
      "constant": true,
      "inputs": [
        {
          "internalType": "uint256",
          "name": "",
          "type": "uint256"
        },
        {
          "internalType": "address",
          "name": "",
          "type": "address"
        },
        {
          "internalType": "uint256",
          "name": "",
          "type": "uint256"
        }
      ],
      "name": "hasUserVotedForProposalIteration",
      "outputs": [
        {
          "internalType": "bool",
          "name": "",
          "type": "bool"
        }
      ],
      "payable": false,
      "stateMutability": "view",
      "type": "function"
    },
    {
      "constant": true,
      "inputs": [],
      "name": "loyaltyToken",
      "outputs": [
        {
          "internalType": "contract ILoyaltyToken",
          "name": "",
          "type": "address"
        }
      ],
      "payable": false,
      "stateMutability": "view",
      "type": "function"
    },
    {
      "constant": true,
      "inputs": [
        {
          "internalType": "uint256",
          "name": "",
          "type": "uint256"
        }
      ],
      "name": "proposalAddresses",
      "outputs": [
        {
          "internalType": "address payable",
          "name": "",
          "type": "address"
        }
      ],
      "payable": false,
      "stateMutability": "view",
      "type": "function"
    },
    {
      "constant": true,
      "inputs": [],
      "name": "proposalDeadline",
      "outputs": [
        {
          "internalType": "uint256",
          "name": "",
          "type": "uint256"
        }
      ],
      "payable": false,
      "stateMutability": "view",
      "type": "function"
    },
    {
      "constant": true,
      "inputs": [],
      "name": "proposalId",
      "outputs": [
        {
          "internalType": "uint256",
          "name": "",
          "type": "uint256"
        }
      ],
      "payable": false,
      "stateMutability": "view",
      "type": "function"
    },
    {
      "constant": true,
      "inputs": [],
      "name": "proposalIteration",
      "outputs": [
        {
          "internalType": "uint256",
          "name": "",
          "type": "uint256"
        }
      ],
      "payable": false,
      "stateMutability": "view",
      "type": "function"
    },
    {
      "constant": true,
      "inputs": [
        {
          "internalType": "uint256",
          "name": "",
          "type": "uint256"
        },
        {
          "internalType": "uint256",
          "name": "",
          "type": "uint256"
        }
      ],
      "name": "proposalVotes",
      "outputs": [
        {
          "internalType": "uint256",
          "name": "",
          "type": "uint256"
        }
      ],
      "payable": false,
      "stateMutability": "view",
      "type": "function"
    },
    {
      "constant": true,
      "inputs": [
        {
          "internalType": "uint256",
          "name": "",
          "type": "uint256"
        }
      ],
      "name": "state",
      "outputs": [
        {
          "internalType": "enum WildcardsQV.ProposalState",
          "name": "",
          "type": "uint8"
        }
      ],
      "payable": false,
      "stateMutability": "view",
      "type": "function"
    },
    {
      "constant": true,
      "inputs": [
        {
          "internalType": "uint256",
          "name": "",
          "type": "uint256"
        }
      ],
      "name": "topProject",
      "outputs": [
        {
          "internalType": "uint256",
          "name": "",
          "type": "uint256"
        }
      ],
      "payable": false,
      "stateMutability": "view",
      "type": "function"
    },
    {
      "constant": true,
      "inputs": [],
      "name": "totalVotes",
      "outputs": [
        {
          "internalType": "uint256",
          "name": "",
          "type": "uint256"
        }
      ],
      "payable": false,
      "stateMutability": "view",
      "type": "function"
    },
    {
      "constant": true,
      "inputs": [],
      "name": "votingInterval",
      "outputs": [
        {
          "internalType": "uint256",
          "name": "",
          "type": "uint256"
        }
      ],
      "payable": false,
      "stateMutability": "view",
      "type": "function"
    },
    {
      "constant": true,
      "inputs": [],
      "name": "wildCardSteward",
      "outputs": [
        {
          "internalType": "contract IWildCardSteward",
          "name": "",
          "type": "address"
        }
      ],
      "payable": false,
      "stateMutability": "view",
      "type": "function"
    },
    {
      "constant": true,
      "inputs": [],
      "name": "wildCardToken",
      "outputs": [
        {
          "internalType": "contract IWildCardToken",
          "name": "",
          "type": "address"
        }
      ],
      "payable": false,
      "stateMutability": "view",
      "type": "function"
    },
    {
      "constant": false,
      "inputs": [
        {
          "internalType": "uint256",
          "name": "newInterval",
          "type": "uint256"
        }
      ],
      "name": "changeVotingInterval",
      "outputs": [],
      "payable": false,
      "stateMutability": "nonpayable",
      "type": "function"
    },
    {
      "constant": false,
      "inputs": [
        {
          "internalType": "uint256",
          "name": "_proposalId",
          "type": "uint256"
        },
        {
          "internalType": "bool",
          "name": "newState",
          "type": "bool"
        }
      ],
      "name": "changeProposalState",
      "outputs": [],
      "payable": false,
      "stateMutability": "nonpayable",
      "type": "function"
    },
    {
      "constant": false,
      "inputs": [
        {
          "internalType": "address payable",
          "name": "_addressOfCharity",
          "type": "address"
        }
      ],
      "name": "createProposal",
      "outputs": [
        {
          "internalType": "uint256",
          "name": "newProposalId",
          "type": "uint256"
        }
      ],
      "payable": false,
      "stateMutability": "nonpayable",
      "type": "function"
    },
    {
      "constant": false,
      "inputs": [
        {
          "internalType": "uint256",
          "name": "proposalIdToVoteFor",
          "type": "uint256"
        },
        {
          "internalType": "uint256",
          "name": "amount",
          "type": "uint256"
        },
        {
          "internalType": "uint256",
          "name": "sqrt",
          "type": "uint256"
        }
      ],
      "name": "vote",
      "outputs": [],
      "payable": false,
      "stateMutability": "nonpayable",
      "type": "function"
    },
    {
      "constant": false,
      "inputs": [],
      "name": "distributeFunds",
      "outputs": [],
      "payable": false,
      "stateMutability": "nonpayable",
      "type": "function"
    }
  ],
  "bytecode": "0x608060405261dead600e60006101000a81548173ffffffffffffffffffffffffffffffffffffffff021916908373ffffffffffffffffffffffffffffffffffffffff16021790555034801561005357600080fd5b50604051611de0380380611de0833981810160405260a081101561007657600080fd5b810190808051906020019092919080519060200190929190805190602001909291908051906020019092919080519060200190929190505050336000806101000a81548173ffffffffffffffffffffffffffffffffffffffff021916908373ffffffffffffffffffffffffffffffffffffffff1602179055508460058190555061010d85426101f760201b6117d41790919060201c565b6008819055506000600f81905550600060118190555083600160006101000a81548173ffffffffffffffffffffffffffffffffffffffff021916908373ffffffffffffffffffffffffffffffffffffffff16021790555082600260006101000a81548173ffffffffffffffffffffffffffffffffffffffff021916908373ffffffffffffffffffffffffffffffffffffffff16021790555081600360006101000a81548173ffffffffffffffffffffffffffffffffffffffff021916908373ffffffffffffffffffffffffffffffffffffffff16021790555080600481905550505050505061027f565b600080828401905083811015610275576040517f08c379a000000000000000000000000000000000000000000000000000000000815260040180806020018281038252601b8152602001807f536166654d6174683a206164646974696f6e206f766572666c6f77000000000081525060200191505060405180910390fd5b8091505092915050565b611b528061028e6000396000f3fe6080604052600436106101355760003560e01c80637ce1f844116100ab578063b7a7a1951161006f578063b7a7a1951461051d578063b8f12f1c14610574578063bb5e711a146105cb578063bdd882f014610648578063f851a44014610697578063ff299e5f146106ee57610135565b80637ce1f844146103d25780638a6655d6146103fd578063924c75141461044c578063a17ad776146104c7578063aabe2fe3146104f257610135565b80633a6a4d2e116100fd5780633a6a4d2e146102765780633e4f49e61461028d57806351252f6c146102ea5780637566ad53146103255780637584939914610350578063770aa84d1461037b57610135565b806307eecaf5146101375780630d15fd771461019c5780630d68eb9e146101c757806329e28d26146102205780632dfca4451461024b575b005b34801561014357600080fd5b506101866004803603602081101561015a57600080fd5b81019080803573ffffffffffffffffffffffffffffffffffffffff169060200190929190505050610735565b6040518082815260200191505060405180910390f35b3480156101a857600080fd5b506101b1610903565b6040518082815260200191505060405180910390f35b3480156101d357600080fd5b5061020a600480360360408110156101ea57600080fd5b810190808035906020019092919080359060200190929190505050610909565b6040518082815260200191505060405180910390f35b34801561022c57600080fd5b5061023561092e565b6040518082815260200191505060405180910390f35b34801561025757600080fd5b50610260610934565b6040518082815260200191505060405180910390f35b34801561028257600080fd5b5061028b61093a565b005b34801561029957600080fd5b506102c6600480360360208110156102b057600080fd5b8101908080359060200190929190505050610cda565b604051808260028111156102d657fe5b60ff16815260200191505060405180910390f35b3480156102f657600080fd5b506103236004803603602081101561030d57600080fd5b8101908080359060200190929190505050610cfa565b005b34801561033157600080fd5b5061033a610df3565b6040518082815260200191505060405180910390f35b34801561035c57600080fd5b50610365610df9565b6040518082815260200191505060405180910390f35b34801561038757600080fd5b50610390610dff565b604051808273ffffffffffffffffffffffffffffffffffffffff1673ffffffffffffffffffffffffffffffffffffffff16815260200191505060405180910390f35b3480156103de57600080fd5b506103e7610e25565b6040518082815260200191505060405180910390f35b34801561040957600080fd5b5061044a6004803603606081101561042057600080fd5b81019080803590602001909291908035906020019092919080359060200190929190505050610e2b565b005b34801561045857600080fd5b506104856004803603602081101561046f57600080fd5b8101908080359060200190929190505050611558565b604051808273ffffffffffffffffffffffffffffffffffffffff1673ffffffffffffffffffffffffffffffffffffffff16815260200191505060405180910390f35b3480156104d357600080fd5b506104dc61158b565b6040518082815260200191505060405180910390f35b3480156104fe57600080fd5b50610507611591565b6040518082815260200191505060405180910390f35b34801561052957600080fd5b50610532611597565b604051808273ffffffffffffffffffffffffffffffffffffffff1673ffffffffffffffffffffffffffffffffffffffff16815260200191505060405180910390f35b34801561058057600080fd5b506105896115bd565b604051808273ffffffffffffffffffffffffffffffffffffffff1673ffffffffffffffffffffffffffffffffffffffff16815260200191505060405180910390f35b3480156105d757600080fd5b5061062e600480360360608110156105ee57600080fd5b8101908080359060200190929190803573ffffffffffffffffffffffffffffffffffffffff169060200190929190803590602001909291905050506115e3565b604051808215151515815260200191505060405180910390f35b34801561065457600080fd5b506106816004803603602081101561066b57600080fd5b810190808035906020019092919050505061161f565b6040518082815260200191505060405180910390f35b3480156106a357600080fd5b506106ac611637565b604051808273ffffffffffffffffffffffffffffffffffffffff1673ffffffffffffffffffffffffffffffffffffffff16815260200191505060405180910390f35b3480156106fa57600080fd5b506107336004803603604081101561071157600080fd5b810190808035906020019092919080351515906020019092919050505061165c565b005b60008060009054906101000a900473ffffffffffffffffffffffffffffffffffffffff1673ffffffffffffffffffffffffffffffffffffffff163373ffffffffffffffffffffffffffffffffffffffff16146107f9576040517f08c379a00000000000000000000000000000000000000000000000000000000081526004018080602001828103825260098152602001807f4e6f742061646d696e000000000000000000000000000000000000000000000081525060200191505060405180910390fd5b8160096000600754815260200190815260200160002060006101000a81548173ffffffffffffffffffffffffffffffffffffffff021916908373ffffffffffffffffffffffffffffffffffffffff1602179055506002600a6000600754815260200190815260200160002060006101000a81548160ff0219169083600281111561087f57fe5b02179055508173ffffffffffffffffffffffffffffffffffffffff166007547fbb5cb4fe5f8ce229749057e580e6821bbc09458d69130d3abe8033977368086960405160405180910390a36108e060016007546117d490919063ffffffff16565b6007819055506108fc600160075461185c90919063ffffffff16565b9050919050565b60115481565b600c602052816000526040600020602052806000526040600020600091509150505481565b600f5481565b60075481565b42600854106109b1576040517f08c379a000000000000000000000000000000000000000000000000000000000815260040180806020018281038252601c8152602001807f497465726174696f6e20696e74657276616c206e6f7420656e6465640000000081525060200191505060405180910390fd5b60003090506000819050600360009054906101000a900473ffffffffffffffffffffffffffffffffffffffff1673ffffffffffffffffffffffffffffffffffffffff1663fb84e7ec6004546040518263ffffffff1660e01b815260040180828152602001915050600060405180830381600087803b158015610a3257600080fd5b505af1158015610a46573d6000803e3d6000fd5b50505050600360009054906101000a900473ffffffffffffffffffffffffffffffffffffffff1673ffffffffffffffffffffffffffffffffffffffff16632c3db6ea826040518263ffffffff1660e01b8152600401808273ffffffffffffffffffffffffffffffffffffffff1673ffffffffffffffffffffffffffffffffffffffff168152602001915050600060405180830381600087803b158015610aeb57600080fd5b505af1158015610aff573d6000803e3d6000fd5b5050505060008173ffffffffffffffffffffffffffffffffffffffff163190503373ffffffffffffffffffffffffffffffffffffffff166108fc610b4d6064846118a690919063ffffffff16565b9081150290604051600060405180830381858888f19350505050158015610b78573d6000803e3d6000fd5b508173ffffffffffffffffffffffffffffffffffffffff16319050600060096000601054815260200190815260200160002060009054906101000a900473ffffffffffffffffffffffffffffffffffffffff1690508073ffffffffffffffffffffffffffffffffffffffff166108fc839081150290604051600060405180830381858888f19350505050158015610c13573d6000803e3d6000fd5b50601054601154837f2a08c6cd4dd7d763b829e5460b9b8dd8c6dec87c26460cab4d34838740e2ad63600f54610c54600554426117d490919063ffffffff16565b610c6a60016006546117d490919063ffffffff16565b60405180848152602001838152602001828152602001935050505060405180910390a46000600f819055506000601181905550610cb2600554426117d490919063ffffffff16565b600881905550610cce60016006546117d490919063ffffffff16565b60068190555050505050565b600a6020528060005260406000206000915054906101000a900460ff1681565b6000809054906101000a900473ffffffffffffffffffffffffffffffffffffffff1673ffffffffffffffffffffffffffffffffffffffff163373ffffffffffffffffffffffffffffffffffffffff1614610dbc576040517f08c379a00000000000000000000000000000000000000000000000000000000081526004018080602001828103825260098152602001807f4e6f742061646d696e000000000000000000000000000000000000000000000081525060200191505060405180910390fd5b80600581905550807f31ea2ea4bc25a8b86f863a4033bdc12071a2187d8fa60426e2647a65ec129c9c60405160405180910390a250565b60055481565b60065481565b600160009054906101000a900473ffffffffffffffffffffffffffffffffffffffff1681565b60085481565b6000600260009054906101000a900473ffffffffffffffffffffffffffffffffffffffff1673ffffffffffffffffffffffffffffffffffffffff166370a08231336040518263ffffffff1660e01b8152600401808273ffffffffffffffffffffffffffffffffffffffff1673ffffffffffffffffffffffffffffffffffffffff16815260200191505060206040518083038186803b158015610ecc57600080fd5b505afa158015610ee0573d6000803e3d6000fd5b505050506040513d6020811015610ef657600080fd5b810190808051906020019092919050505011610f7a576040517f08c379a00000000000000000000000000000000000000000000000000000000081526004018080602001828103825260178152602001807f446f6573206e6f74206f776e20612057696c644361726400000000000000000081525060200191505060405180910390fd5b670de0b6b3a7640000821015610ff8576040517f08c379a00000000000000000000000000000000000000000000000000000000081526004018080602001828103825260168152602001807f4d696e696d756d20766f7465206f6e6520746f6b656e0000000000000000000081525060200191505060405180910390fd5b60028081111561100457fe5b600a600085815260200190815260200160002060009054906101000a900460ff16600281111561103057fe5b146110a3576040517f08c379a00000000000000000000000000000000000000000000000000000000081526004018080602001828103825260138152602001807f50726f706f73616c206e6f74204163746976650000000000000000000000000081525060200191505060405180910390fd5b600b6000600654815260200190815260200160002060003373ffffffffffffffffffffffffffffffffffffffff1673ffffffffffffffffffffffffffffffffffffffff168152602001908152602001600020600084815260200190815260200160002060009054906101000a900460ff1615611187576040517f08c379a000000000000000000000000000000000000000000000000000000000815260040180806020018281038252601e8152602001807f416c726561647920766f746564206f6e20746869732070726f706f73616c000081525060200191505060405180910390fd5b600160009054906101000a900473ffffffffffffffffffffffffffffffffffffffff1673ffffffffffffffffffffffffffffffffffffffff166323b872dd33600e60009054906101000a900473ffffffffffffffffffffffffffffffffffffffff16856040518463ffffffff1660e01b8152600401808473ffffffffffffffffffffffffffffffffffffffff1673ffffffffffffffffffffffffffffffffffffffff1681526020018373ffffffffffffffffffffffffffffffffffffffff1673ffffffffffffffffffffffffffffffffffffffff1681526020018281526020019350505050602060405180830381600087803b15801561128657600080fd5b505af115801561129a573d6000803e3d6000fd5b505050506040513d60208110156112b057600080fd5b8101908080519060200190929190505050611333576040517f08c379a000000000000000000000000000000000000000000000000000000000815260040180806020018281038252601d8152602001807f4c6f79616c747920546f6b656e207472616e73666572206661696c656400000081525060200191505060405180910390fd5b8161134782836118f090919063ffffffff16565b146113ba576040517f08c379a00000000000000000000000000000000000000000000000000000000081526004018080602001828103825260158152602001807f53717561726520726f6f7420696e636f7272656374000000000000000000000081525060200191505060405180910390fd5b6001600b6000600654815260200190815260200160002060003373ffffffffffffffffffffffffffffffffffffffff1673ffffffffffffffffffffffffffffffffffffffff168152602001908152602001600020600085815260200190815260200160002060006101000a81548160ff02191690831515021790555061146f81600c600060065481526020019081526020016000206000868152602001908152602001600020546117d490919063ffffffff16565b600c600060065481526020019081526020016000206000858152602001908152602001600020819055506000600c600060065481526020019081526020016000206000858152602001908152602001600020549050600f548111156114dd5780600f81905550836010819055505b6114f2826011546117d490919063ffffffff16565b6011819055503373ffffffffffffffffffffffffffffffffffffffff1682857f8156901e268aea902371f0e4c4765356ce23f34d2c58a4052bf6835f6270e75a84601154604051808381526020018281526020019250505060405180910390a450505050565b60096020528060005260406000206000915054906101000a900473ffffffffffffffffffffffffffffffffffffffff1681565b60045481565b60105481565b600360009054906101000a900473ffffffffffffffffffffffffffffffffffffffff1681565b600260009054906101000a900473ffffffffffffffffffffffffffffffffffffffff1681565b600b602052826000526040600020602052816000526040600020602052806000526040600020600092509250509054906101000a900460ff1681565b600d6020528060005260406000206000915090505481565b6000809054906101000a900473ffffffffffffffffffffffffffffffffffffffff1681565b6000809054906101000a900473ffffffffffffffffffffffffffffffffffffffff1673ffffffffffffffffffffffffffffffffffffffff163373ffffffffffffffffffffffffffffffffffffffff161461171e576040517f08c379a00000000000000000000000000000000000000000000000000000000081526004018080602001828103825260098152602001807f4e6f742061646d696e000000000000000000000000000000000000000000000081525060200191505060405180910390fd5b801561175e576002600a600084815260200190815260200160002060006101000a81548160ff0219169083600281111561175457fe5b0217905550611794565b6001600a600084815260200190815260200160002060006101000a81548160ff0219169083600281111561178e57fe5b02179055505b817fdc13fcc6f63ec77dc403e7940f2785d0e61d9a27f697a1610a742f3a72c45fef82604051808215151515815260200191505060405180910390a25050565b600080828401905083811015611852576040517f08c379a000000000000000000000000000000000000000000000000000000000815260040180806020018281038252601b8152602001807f536166654d6174683a206164646974696f6e206f766572666c6f77000000000081525060200191505060405180910390fd5b8091505092915050565b600061189e83836040518060400160405280601e81526020017f536166654d6174683a207375627472616374696f6e206f766572666c6f770000815250611976565b905092915050565b60006118e883836040518060400160405280601a81526020017f536166654d6174683a206469766973696f6e206279207a65726f000000000000815250611a36565b905092915050565b6000808314156119035760009050611970565b600082840290508284828161191457fe5b041461196b576040517f08c379a0000000000000000000000000000000000000000000000000000000008152600401808060200182810382526021815260200180611afd6021913960400191505060405180910390fd5b809150505b92915050565b6000838311158290611a23576040517f08c379a00000000000000000000000000000000000000000000000000000000081526004018080602001828103825283818151815260200191508051906020019080838360005b838110156119e85780820151818401526020810190506119cd565b50505050905090810190601f168015611a155780820380516001836020036101000a031916815260200191505b509250505060405180910390fd5b5060008385039050809150509392505050565b60008083118290611ae2576040517f08c379a00000000000000000000000000000000000000000000000000000000081526004018080602001828103825283818151815260200191508051906020019080838360005b83811015611aa7578082015181840152602081019050611a8c565b50505050905090810190601f168015611ad45780820380516001836020036101000a031916815260200191505b509250505060405180910390fd5b506000838581611aee57fe5b04905080915050939250505056fe536166654d6174683a206d756c7469706c69636174696f6e206f766572666c6f77a265627a7a72315820b1c233a80a3f8d1be8f13d3cf3ee0fe0ab6ec85d67276ad7ddbae686184784f564736f6c634300050c0032",
  "source": "pragma solidity 0.5.12;\n\nimport \"@openzeppelin/contracts/math/SafeMath.sol\";\n\ninterface IWildCardSteward\n{\n    function withdrawBenefactorFundsTo(address payable benefactor) external;\n    function _collectPatronage(uint ) external;\n    function currentPatron(uint tokenId) external returns (address);\n}\n\ninterface IWildCardToken\n{\n    function balanceOf(address owner) external view returns (uint256) ;\n}\n\ninterface ILoyaltyToken \n{\n    function transfer(address _to, uint256 _amount) external returns (bool);\n    function transferFrom(address _from, address _to, uint256 _amount) external returns (bool);\n}\n\ncontract WildcardsQV  {\n    using SafeMath for uint256;\n\n    //////// MASTER //////////////\n    address public admin;\n\n    //////// External contract specific //////////\n    ILoyaltyToken public loyaltyToken;\n    IWildCardToken public wildCardToken;\n    IWildCardSteward public wildCardSteward;\n    uint256 public dragonCardId;\n\n    //////// Iteration specific //////////\n    uint256 public votingInterval;\n    uint256 public proposalIteration;\n\n    ///////// Proposal specific ///////////\n    uint256 public proposalId;\n    uint256 public proposalDeadline; // keeping track of time\n    mapping(uint256 => address payable) public proposalAddresses;\n    enum ProposalState {DoesNotExist, Withdrawn, Active}\n    mapping(uint256 => ProposalState) public state; // ProposalId to current state\n\n    //////// DAO / VOTE specific //////////\n    // TODO: - we can replace `hasUserVotedForProposalIniteration` value with `userProposalVotes` in the future and allow user to vote multiple times\n    mapping(uint256 => mapping(address => mapping(uint256 => bool))) public hasUserVotedForProposalIteration; /// iteration -> userAddress -> proposalId -> bool\n    mapping(uint256 => mapping(uint256 => uint256)) public proposalVotes; /// iteration -> proposalId -> num votes\n    mapping(uint256 => uint256) public topProject;\n    address burnAddress = 0x000000000000000000000000000000000000dEaD;\n    uint256 public currentHighestVoteCount;\n    uint256 public currentWinner;\n    uint256 public totalVotes;\n\n    ////////////////////////////////////\n    //////// Events ///////////////////\n    ////////////////////////////////////\n    event LogNewVotingInterval(uint256 indexed newInterval);\n    event LogProposalStateChange(\n        uint256 indexed proposalIdUpdated,\n        bool isActive\n    );\n    event LogProposalCreated(\n        uint256 indexed newProposalId,\n        address indexed newProposalAddress\n    );\n    event LogVote(\n        uint256 indexed proposalVotedFor,\n        uint256 indexed votesCast,\n        uint256 totalVotesForProposal,\n        uint256 totalVotesAllProposals,\n        address indexed addressOfVoter\n    );\n    event LogFundsDistributed(\n        uint256 indexed fundsDistributed,\n        uint256 indexed totalVotes,\n        uint256 winningVotes,\n        uint256 indexed winningProposal,\n        uint256 newDeadline,\n        uint256 newIteration\n    );\n\n    ////////////////////////////////////\n    //////// Modifiers /////////////////\n    ////////////////////////////////////\n    modifier onlyAdmin() {\n        require(msg.sender == admin, \"Not admin\");\n        _;\n    }\n\n    ////////////////////////////////////\n    //////// SETUP CONTRACT////////////\n    //// NOTE: Upgradable at the moment\n    // Changed from initialise to constructor \n    // because I couldnt figure out how to get tests\n    // to work otherwise, needs to be changed back\n    constructor( \n        uint256 _votingInterval,\n        ILoyaltyToken _addressOfLoyalyTokenContract,\n        IWildCardToken _addressOfWildCardTokenContract,\n        IWildCardSteward _addressOfWildCardStewardContract,\n        uint256 _dragonCardId\n    ) public {\n        admin = msg.sender;\n        votingInterval = _votingInterval;\n\n        proposalDeadline = now.add(_votingInterval);\n        currentHighestVoteCount = 0;\n        totalVotes = 0;\n\n        // externals:\n        loyaltyToken = _addressOfLoyalyTokenContract;\n        wildCardToken = _addressOfWildCardTokenContract;\n        wildCardSteward = _addressOfWildCardStewardContract;\n        dragonCardId = _dragonCardId;\n    }\n\n    ///////////////////////////////////\n    /////// Config functions //////////\n    ///////////////////////////////////\n    function changeVotingInterval(uint256 newInterval) external onlyAdmin {\n        votingInterval = newInterval;\n        emit LogNewVotingInterval(newInterval);\n    }\n\n    function changeProposalState(uint256 _proposalId, bool newState)\n        external\n        onlyAdmin\n    {\n        // state: true = Active, false = Withdrawn\n        if (newState) {\n            state[_proposalId] = ProposalState.Active;\n        } else {\n            state[_proposalId] = ProposalState.Withdrawn;\n        }\n        emit LogProposalStateChange(_proposalId, newState);\n    }\n\n    ///////////////////////////////////\n    /////// CreateProposal  ///////////\n    ///////////////////////////////////\n    function createProposal(address payable _addressOfCharity)\n        external\n        onlyAdmin\n        returns (uint256 newProposalId)\n    {\n        proposalAddresses[proposalId] = _addressOfCharity;\n        //proposalOwner[proposalId] = msg.sender;\n        //benefactorsProposal[msg.sender] = proposalId;\n        state[proposalId] = ProposalState.Active;\n        emit LogProposalCreated(proposalId, _addressOfCharity);\n        // So the first proposal will have an ID of 0\n        proposalId = proposalId.add(1);\n        return proposalId.sub(1); // <- so it is returning the ID of the created proposal\n    }\n\n    ///////////////////////////////////\n    /////// vote function  ///////////\n    ///////////////////////////////////\n    function vote(uint256 proposalIdToVoteFor, uint256 amount, uint256 sqrt)\n        external\n    {\n        // Check they are a wildcards user\n        require(\n            wildCardToken.balanceOf(msg.sender) > 0,\n            \"Does not own a WildCard\"\n        );\n        // Check they have at least 1 wildcards loyalty token:\n\n        require(amount >= 10**18, \"Minimum vote one token\");\n        // Check they are voting for a valid proposal:\n        require(\n            state[proposalIdToVoteFor] == ProposalState.Active,\n            \"Proposal not Active\"\n        );\n        // Check that they haven't yet voted for the proposal in this iteration\n        require(\n            !hasUserVotedForProposalIteration[proposalIteration][msg\n                .sender][proposalIdToVoteFor],\n            \"Already voted on this proposal\"\n        );\n        // Send their wildcards tokens to the burn address\n        require(\n            loyaltyToken.transferFrom(msg.sender, burnAddress, amount),\n            \"Loyalty Token transfer failed\"\n        );\n        // Validate the square root\n        require(sqrt.mul(sqrt) == amount, \"Square root incorrect\");\n\n        hasUserVotedForProposalIteration[proposalIteration][msg\n            .sender][proposalIdToVoteFor] = true;\n\n        // Add the tokens to the total tally\n        proposalVotes[proposalIteration][proposalIdToVoteFor] = proposalVotes[proposalIteration][proposalIdToVoteFor]\n            .add(sqrt);\n\n            uint256 _currentVoteCount\n         = proposalVotes[proposalIteration][proposalIdToVoteFor];\n        // Take note that the user has voted on this proposal so they can't do it again\n\n        // Update currentWinner, currentHighestVoteCount, totalVotes\n        if (_currentVoteCount > currentHighestVoteCount) {\n            currentHighestVoteCount = _currentVoteCount;\n            currentWinner = proposalIdToVoteFor;\n        }\n\n        totalVotes = totalVotes.add(sqrt);\n        emit LogVote(\n            proposalIdToVoteFor,\n            sqrt,\n            _currentVoteCount,\n            totalVotes,\n            msg.sender\n        );\n    }\n\n    ///////////////////////////////////\n    //// Iteration changes/////////////\n    ///////////////////////////////////\n    function distributeFunds() public {\n        require(proposalDeadline < now, \"Iteration interval not ended\");\n        address _thisAddressNotPayable = address(this);\n        address payable _thisAddress = address(uint160(_thisAddressNotPayable)); // <-- this is required to cast address to address payable\n\n        // Get current patron of Dragon Token\n        // address _currentPatron = wildCardSteward.currentPatron(dragonCardId);\n        // Collect patronage on the WildCard\n        wildCardSteward._collectPatronage(dragonCardId);\n        // Transfer patronage to this contract\n        wildCardSteward.withdrawBenefactorFundsTo(_thisAddress);\n        // Get balance to distrubute\n        uint256 _fundsToDistribute = _thisAddress.balance;\n        // Send 1% to message caller as incentive\n        msg.sender.transfer(_fundsToDistribute.div(100));\n        // Get remaining balance\n        _fundsToDistribute = _thisAddress.balance;\n        // Send funds to winner\n        address payable _addressOfWinner = proposalAddresses[currentWinner];\n        _addressOfWinner.transfer(_fundsToDistribute);\n\n        emit LogFundsDistributed(\n            _fundsToDistribute,\n            totalVotes,\n            currentHighestVoteCount,\n            currentWinner,\n            now.add(votingInterval),\n            proposalIteration.add(1)\n        );\n        // Clean up for next iteration\n        currentHighestVoteCount = 0;\n        totalVotes = 0;\n\n        proposalDeadline = now.add(votingInterval);\n        proposalIteration = proposalIteration.add(1);\n    }\n\n    ///////////////////////////////////\n    /////////// Fallback /////////////\n    ///////////////////////////////////\n    function () external payable {}\n}\n",
  "sourcePath": "/Users/mcplums/Repos/HodlFactory/contracts/WildcardsQV.sol",
  "compiler": {
    "name": "solc",
    "version": "0.5.12+commit.7709ece9.Emscripten.clang"
  },
  "schemaVersion": "3.0.19",
  "updatedAt": "2020-04-29T10:28:43.274Z",
  "networkType": "ethereum",
  "devdoc": {
    "methods": {}
  },
  "userdoc": {
    "methods": {
      "changeVotingInterval(uint256)": {
        "notice": "//////////////////////////////// //// Config functions ////////// ////////////////////////////////"
      },
      "constructor": "///////////////////////////////// ///// SETUP CONTRACT//////////// / NOTE: Upgradable at the moment",
      "createProposal(address)": {
        "notice": "//////////////////////////////// //// CreateProposal  /////////// ////////////////////////////////"
      },
      "distributeFunds()": {
        "notice": "//////////////////////////////// / Iteration changes///////////// ////////////////////////////////"
      },
      "vote(uint256,uint256,uint256)": {
        "notice": "//////////////////////////////// //// vote function  /////////// ////////////////////////////////"
      }
    }
  }
}